{
  "address": "0x7c9AE25F52DfE6E31F004DB2907c9D70CD8535BE",
  "abi": [
    {
      "inputs": [
        {
          "internalType": "address",
          "name": "_admin",
          "type": "address"
        },
        {
          "internalType": "address",
          "name": "_operator",
          "type": "address"
        },
        {
          "internalType": "address",
          "name": "_mailbox",
          "type": "address"
        },
        {
          "internalType": "address",
          "name": "igp",
          "type": "address"
        },
        {
          "internalType": "address",
          "name": "_registry",
          "type": "address"
        },
        {
          "internalType": "uint128",
          "name": "_gasLimit",
          "type": "uint128"
        }
      ],
      "stateMutability": "nonpayable",
      "type": "constructor"
    },
    {
      "inputs": [],
      "name": "AccessControlBadConfirmation",
      "type": "error"
    },
    {
      "inputs": [
        {
          "internalType": "address",
          "name": "account",
          "type": "address"
        },
        {
          "internalType": "bytes32",
          "name": "neededRole",
          "type": "bytes32"
        }
      ],
      "name": "AccessControlUnauthorizedAccount",
      "type": "error"
    },
    {
      "inputs": [],
      "name": "AddressIsZero",
      "type": "error"
    },
    {
      "inputs": [],
      "name": "GasLimitInvalid",
      "type": "error"
    },
    {
      "inputs": [
        {
          "internalType": "address",
          "name": "owner",
          "type": "address"
        }
      ],
      "name": "OwnableInvalidOwner",
      "type": "error"
    },
    {
      "inputs": [
        {
          "internalType": "address",
          "name": "account",
          "type": "address"
        }
      ],
      "name": "OwnableUnauthorizedAccount",
      "type": "error"
    },
    {
      "inputs": [
        {
          "internalType": "uint32",
          "name": "eid",
          "type": "uint32"
        },
        {
          "internalType": "address",
          "name": "sender",
          "type": "address"
        }
      ],
      "name": "SenderIsNotPeer",
      "type": "error"
    },
    {
      "inputs": [
        {
          "internalType": "address",
          "name": "sender",
          "type": "address"
        }
      ],
      "name": "SenderIsNotRouter",
      "type": "error"
    },
    {
      "inputs": [
        {
          "internalType": "address",
          "name": "sender",
          "type": "address"
        }
      ],
      "name": "SenderIsNotSingleId",
      "type": "error"
    },
    {
      "anonymous": false,
      "inputs": [
        {
          "indexed": true,
          "internalType": "address",
          "name": "previousOwner",
          "type": "address"
        },
        {
          "indexed": true,
          "internalType": "address",
          "name": "newOwner",
          "type": "address"
        }
      ],
      "name": "OwnershipTransferred",
      "type": "event"
    },
    {
      "anonymous": false,
      "inputs": [
        {
          "indexed": true,
          "internalType": "bytes32",
          "name": "role",
          "type": "bytes32"
        },
        {
          "indexed": true,
          "internalType": "bytes32",
          "name": "previousAdminRole",
          "type": "bytes32"
        },
        {
          "indexed": true,
          "internalType": "bytes32",
          "name": "newAdminRole",
          "type": "bytes32"
        }
      ],
      "name": "RoleAdminChanged",
      "type": "event"
    },
    {
      "anonymous": false,
      "inputs": [
        {
          "indexed": true,
          "internalType": "bytes32",
          "name": "role",
          "type": "bytes32"
        },
        {
          "indexed": true,
          "internalType": "address",
          "name": "account",
          "type": "address"
        },
        {
          "indexed": true,
          "internalType": "address",
          "name": "sender",
          "type": "address"
        }
      ],
      "name": "RoleGranted",
      "type": "event"
    },
    {
      "anonymous": false,
      "inputs": [
        {
          "indexed": true,
          "internalType": "bytes32",
          "name": "role",
          "type": "bytes32"
        },
        {
          "indexed": true,
          "internalType": "address",
          "name": "account",
          "type": "address"
        },
        {
          "indexed": true,
          "internalType": "address",
          "name": "sender",
          "type": "address"
        }
      ],
      "name": "RoleRevoked",
      "type": "event"
    },
    {
      "anonymous": false,
      "inputs": [
        {
          "indexed": true,
          "internalType": "uint256",
          "name": "nativeChainId",
          "type": "uint256"
        },
        {
          "indexed": true,
          "internalType": "uint256",
          "name": "customChainId",
          "type": "uint256"
        }
      ],
      "name": "SetChainIds",
      "type": "event"
    },
    {
      "anonymous": false,
      "inputs": [
        {
          "indexed": true,
          "internalType": "uint32",
          "name": "connectorId",
          "type": "uint32"
        }
      ],
      "name": "SetConnectorId",
      "type": "event"
    },
    {
      "anonymous": false,
      "inputs": [
        {
          "indexed": false,
          "internalType": "uint128",
          "name": "gasLimit",
          "type": "uint128"
        }
      ],
      "name": "SetGasLimit",
      "type": "event"
    },
    {
      "anonymous": false,
      "inputs": [
        {
          "indexed": true,
          "internalType": "address",
          "name": "ipg",
          "type": "address"
        }
      ],
      "name": "SetIgp",
      "type": "event"
    },
    {
      "anonymous": false,
      "inputs": [
        {
          "indexed": true,
          "internalType": "address",
          "name": "mailbox",
          "type": "address"
        }
      ],
      "name": "SetMailbox",
      "type": "event"
    },
    {
      "anonymous": false,
      "inputs": [
        {
          "indexed": true,
          "internalType": "address",
          "name": "registry",
          "type": "address"
        }
      ],
      "name": "SetRegistry",
      "type": "event"
    },
    {
      "anonymous": false,
      "inputs": [
        {
          "indexed": true,
          "internalType": "address",
          "name": "router",
          "type": "address"
        }
      ],
      "name": "SetRouter",
      "type": "event"
    },
    {
      "anonymous": false,
      "inputs": [
        {
          "indexed": true,
          "internalType": "address",
          "name": "singleId",
          "type": "address"
        }
      ],
      "name": "SetSingleId",
      "type": "event"
    },
    {
      "inputs": [],
      "name": "DEFAULT_ADMIN_ROLE",
      "outputs": [
        {
          "internalType": "bytes32",
          "name": "",
          "type": "bytes32"
        }
      ],
      "stateMutability": "view",
      "type": "function"
    },
    {
      "inputs": [],
      "name": "OPERATOR_ROLE",
      "outputs": [
        {
          "internalType": "bytes32",
          "name": "",
          "type": "bytes32"
        }
      ],
      "stateMutability": "view",
      "type": "function"
    },
    {
      "inputs": [],
      "name": "connectorId",
      "outputs": [
        {
          "internalType": "uint32",
          "name": "",
          "type": "uint32"
        }
      ],
      "stateMutability": "view",
      "type": "function"
    },
    {
      "inputs": [
        {
          "internalType": "uint256",
          "name": "nativeChainId",
          "type": "uint256"
        }
      ],
      "name": "customChainIds",
      "outputs": [
        {
          "internalType": "uint256",
          "name": "customChainId",
          "type": "uint256"
        }
      ],
      "stateMutability": "view",
      "type": "function"
    },
    {
      "inputs": [],
      "name": "gasLimit",
      "outputs": [
        {
          "internalType": "uint128",
          "name": "",
          "type": "uint128"
        }
      ],
      "stateMutability": "view",
      "type": "function"
    },
    {
      "inputs": [
        {
          "internalType": "bytes32",
          "name": "role",
          "type": "bytes32"
        }
      ],
      "name": "getRoleAdmin",
      "outputs": [
        {
          "internalType": "bytes32",
          "name": "",
          "type": "bytes32"
        }
      ],
      "stateMutability": "view",
      "type": "function"
    },
    {
      "inputs": [
        {
          "internalType": "bytes32",
          "name": "role",
          "type": "bytes32"
        },
        {
          "internalType": "address",
          "name": "account",
          "type": "address"
        }
      ],
      "name": "grantRole",
      "outputs": [],
      "stateMutability": "nonpayable",
      "type": "function"
    },
    {
      "inputs": [
        {
          "internalType": "uint32",
          "name": "_origin",
          "type": "uint32"
        },
        {
          "internalType": "bytes32",
          "name": "_sender",
          "type": "bytes32"
        },
        {
          "internalType": "bytes",
          "name": "_message",
          "type": "bytes"
        }
      ],
      "name": "handle",
      "outputs": [],
      "stateMutability": "nonpayable",
      "type": "function"
    },
    {
      "inputs": [
        {
          "internalType": "bytes32",
          "name": "role",
          "type": "bytes32"
        },
        {
          "internalType": "address",
          "name": "account",
          "type": "address"
        }
      ],
      "name": "hasRole",
      "outputs": [
        {
          "internalType": "bool",
          "name": "",
          "type": "bool"
        }
      ],
      "stateMutability": "view",
      "type": "function"
    },
    {
      "inputs": [],
      "name": "igp",
      "outputs": [
        {
          "internalType": "contract InterchainGasPaymaster",
          "name": "",
          "type": "address"
        }
      ],
      "stateMutability": "view",
      "type": "function"
    },
    {
      "inputs": [],
      "name": "mailbox",
      "outputs": [
        {
          "internalType": "contract IMailbox",
          "name": "",
          "type": "address"
        }
      ],
      "stateMutability": "view",
      "type": "function"
    },
    {
      "inputs": [
        {
          "internalType": "uint256",
          "name": "customChainId",
          "type": "uint256"
        }
      ],
      "name": "nativeChainIds",
      "outputs": [
        {
          "internalType": "uint256",
          "name": "nativeChainId",
          "type": "uint256"
        }
      ],
      "stateMutability": "view",
      "type": "function"
    },
    {
      "inputs": [],
      "name": "owner",
      "outputs": [
        {
          "internalType": "address",
          "name": "",
          "type": "address"
        }
      ],
      "stateMutability": "view",
      "type": "function"
    },
    {
      "inputs": [
        {
          "internalType": "uint32",
          "name": "_registryDst",
          "type": "uint32"
        },
        {
          "internalType": "bytes",
          "name": "",
          "type": "bytes"
        }
      ],
      "name": "quote",
      "outputs": [
        {
          "internalType": "uint256",
          "name": "",
          "type": "uint256"
        }
      ],
      "stateMutability": "view",
      "type": "function"
    },
    {
      "inputs": [],
      "name": "registry",
      "outputs": [
        {
          "internalType": "contract ISingleIdentifierRegistry",
          "name": "",
          "type": "address"
        }
      ],
      "stateMutability": "view",
      "type": "function"
    },
    {
      "inputs": [],
      "name": "renounceOwnership",
      "outputs": [],
      "stateMutability": "nonpayable",
      "type": "function"
    },
    {
      "inputs": [
        {
          "internalType": "bytes32",
          "name": "role",
          "type": "bytes32"
        },
        {
          "internalType": "address",
          "name": "callerConfirmation",
          "type": "address"
        }
      ],
      "name": "renounceRole",
      "outputs": [],
      "stateMutability": "nonpayable",
      "type": "function"
    },
    {
      "inputs": [
        {
          "internalType": "bytes32",
          "name": "role",
          "type": "bytes32"
        },
        {
          "internalType": "address",
          "name": "account",
          "type": "address"
        }
      ],
      "name": "revokeRole",
      "outputs": [],
      "stateMutability": "nonpayable",
      "type": "function"
    },
    {
      "inputs": [],
      "name": "router",
      "outputs": [
        {
          "internalType": "contract SingleRouter",
          "name": "",
          "type": "address"
        }
      ],
      "stateMutability": "view",
      "type": "function"
    },
    {
      "inputs": [
        {
          "internalType": "uint256",
          "name": "_registryDst",
          "type": "uint256"
        },
        {
          "internalType": "bytes",
          "name": "_payload",
          "type": "bytes"
        }
      ],
      "name": "sendMessage",
      "outputs": [],
      "stateMutability": "payable",
      "type": "function"
    },
    {
      "inputs": [
        {
          "internalType": "uint256",
          "name": "_nativeChainId",
          "type": "uint256"
        },
        {
          "internalType": "uint256",
          "name": "_customChainId",
          "type": "uint256"
        }
      ],
      "name": "setChainId",
      "outputs": [],
      "stateMutability": "nonpayable",
      "type": "function"
    },
    {
      "inputs": [
        {
          "internalType": "uint256[]",
          "name": "_nativeChainIds",
          "type": "uint256[]"
        },
        {
          "internalType": "uint256[]",
          "name": "_customChainIds",
          "type": "uint256[]"
        }
      ],
      "name": "setChainIds",
      "outputs": [],
      "stateMutability": "nonpayable",
      "type": "function"
    },
    {
      "inputs": [
        {
          "internalType": "uint32",
          "name": "_connectorId",
          "type": "uint32"
        }
      ],
      "name": "setConnectorId",
      "outputs": [],
      "stateMutability": "nonpayable",
      "type": "function"
    },
    {
      "inputs": [
        {
          "internalType": "uint128",
          "name": "_gasLimit",
          "type": "uint128"
        }
      ],
      "name": "setGasLimit",
      "outputs": [],
      "stateMutability": "nonpayable",
      "type": "function"
    },
    {
      "inputs": [
        {
          "internalType": "address",
          "name": "_igp",
          "type": "address"
        }
      ],
      "name": "setIgp",
      "outputs": [],
      "stateMutability": "nonpayable",
      "type": "function"
    },
    {
      "inputs": [
        {
          "internalType": "address",
          "name": "_mailbox",
          "type": "address"
        }
      ],
      "name": "setMailbox",
      "outputs": [],
      "stateMutability": "nonpayable",
      "type": "function"
    },
    {
      "inputs": [
        {
          "internalType": "address",
          "name": "_registry",
          "type": "address"
        }
      ],
      "name": "setRegistry",
      "outputs": [],
      "stateMutability": "nonpayable",
      "type": "function"
    },
    {
      "inputs": [
        {
          "internalType": "address",
          "name": "_router",
          "type": "address"
        }
      ],
      "name": "setRouter",
      "outputs": [],
      "stateMutability": "nonpayable",
      "type": "function"
    },
    {
      "inputs": [
        {
          "internalType": "address",
          "name": "_singleId",
          "type": "address"
        }
      ],
      "name": "setSingleId",
      "outputs": [],
      "stateMutability": "nonpayable",
      "type": "function"
    },
    {
      "inputs": [],
      "name": "singleId",
      "outputs": [
        {
          "internalType": "contract SingleIdentifierID",
          "name": "",
          "type": "address"
        }
      ],
      "stateMutability": "view",
      "type": "function"
    },
    {
      "inputs": [
        {
          "internalType": "bytes4",
          "name": "selector",
          "type": "bytes4"
        }
      ],
      "name": "supportMethod",
      "outputs": [
        {
          "internalType": "bool",
          "name": "",
          "type": "bool"
        }
      ],
      "stateMutability": "pure",
      "type": "function"
    },
    {
      "inputs": [
        {
          "internalType": "bytes4",
          "name": "interfaceId",
          "type": "bytes4"
        }
      ],
      "name": "supportsInterface",
      "outputs": [
        {
          "internalType": "bool",
          "name": "",
          "type": "bool"
        }
      ],
      "stateMutability": "view",
      "type": "function"
    },
    {
      "inputs": [
        {
          "internalType": "address",
          "name": "newOwner",
          "type": "address"
        }
      ],
      "name": "transferOwnership",
      "outputs": [],
      "stateMutability": "nonpayable",
      "type": "function"
    }
  ],
  "transactionHash": "0xaf62a25122467df54c33771ad6f9b4bef2584974ec4be4b43e331610fcf4eaaa",
  "args": [
    "0x0d0D5Ff3cFeF8B7B2b1cAC6B6C27Fd0846c09361",
    "0x381c031bAA5995D0Cc52386508050Ac947780815",
    "0x6966b0E55883d49BFB24539356a2f8A673E02039",
    "0x28B02B97a850872C4D33C3E024fab6499ad96564",
    "0x449c8eB96594c9f75b26b14C429045DfB1d41473",
    50000
  ],
  "numDeployments": 1,
  "solcInputHash": "ed2252f80b10e936ef23184019e93e2d",
  "bytecode": "0x6080346200027b57601f62001b9a38819003918201601f191683019291906001600160401b0384118385101762000280578160c092849260409687528339810103126200027b57620000518162000296565b91620000606020830162000296565b916200006e82820162000296565b6200007c6060830162000296565b9060a06200008d6080850162000296565b9301516001600160801b03811691908290036200027b576001600160a01b038781169690949087156200026357600080546001600160a01b03198082168b178355919a9199889493929185167f8be0079c531659141344cd1fd0a4f28419497f9722a3daafe3b4186f6b6457e08d80a36200010890620002ab565b5062000114336200032c565b5062000120906200032c565b501690811562000252578490828860045416176004558651927f278c70ced5f3e0e5eeb385b5ff9cb735748ba00a625147e66065ed48fc1562cd8a80a216908115620002435750808660075416176007558451907f24ff87f37fffcf8010bd99a5170997e7ba0cb142148ad07cecfc1444f55bf9248880a28115620002345750600980546001600160801b0319168217905583519081527f1c71b0b8c071240d5960f42aa433d532b00a347608de270d2200adece7cc09a490602090a116918215620002235790827f7a0fea380d7a6cd83f0f8ccad3c349cad10d42f760f63fd2492d5d407471a49c926008541617600855519280a26117aa9081620003d08239f35b815163867915ab60e01b8152600490fd5b632b2acf8b60e01b8152600490fd5b63867915ab60e01b8152600490fd5b855163867915ab60e01b8152600490fd5b8651631e4fbdf760e01b815260006004820152602490fd5b600080fd5b634e487b7160e01b600052604160045260246000fd5b51906001600160a01b03821682036200027b57565b6001600160a01b031660008181527fa6eef7e35abe7026729641147f7915573c7e97b47efa546f5f6e3230263bcb49602052604081205490919060ff16620003285781805260016020526040822081835260205260408220600160ff19825416179055339160008051602062001b7a8339815191528180a4600190565b5090565b6001600160a01b031660008181527f31c1e66639f421f1853aeefe8ad6b62a3b96f3287efe23106923cd924aa025c260205260408120549091907f97667070c54ef182b0f5858b034beac1b6f3089aa2d3188bb1e8929f4fa9b9299060ff16620003ca5780835260016020526040832082845260205260408320600160ff1982541617905560008051602062001b7a833981519152339380a4600190565b50509056fe608060408181526004918236101561001657600080fd5b600092833560e01c91826301ffc9a714610fef575081630c6a043714610f1957816321f93b1e14610eee578163248a9ca314610ec45781632f2ff15d14610e9a5781633152d80714610e2c57816336568abe14610de657816337528ffa14610d545781633e42d4a414610d1a5781634214d2e514610c2f57816356d5d475146108e65781636d4c9cd6146108be578163715018a6146108645781637b1039991461083c5781638078a4ca146107ce5781638da5cb5b146107a65781638e97632f1461077d57816391d1485414610737578163a1da9dae146106b3578163a217fddf14610698578163a91ee0dc1461062d578163b00899cf14610605578163b3d63288146105db578163c0d786551461056d578163d5438eae14610544578163d547741f14610505578163e289adcd14610355578163f28b2daa1461032c578163f2fde38b1461029b578163f3c61d6b1461021c57508063f5b541a6146101e2578063f68016b7146101bb5763f887ea401461019057600080fd5b346101b757816003193601126101b75760025490516001600160a01b039091168152602090f35b5080fd5b50346101b757816003193601126101b7576020906001600160801b03600954169051908152f35b50346101b757816003193601126101b757602090517f97667070c54ef182b0f5858b034beac1b6f3089aa2d3188bb1e8929f4fa9b9298152f35b90503461029757602036600319011261029757610237611088565b61023f6113b7565b6001600160a01b031691821561028a575050600780546001600160a01b031916821790557f24ff87f37fffcf8010bd99a5170997e7ba0cb142148ad07cecfc1444f55bf9248280a280f35b5163867915ab60e01b8152fd5b8280fd5b905034610297576020366003190112610297576102b6611088565b906102bf6113b7565b6001600160a01b03918216928315610316575050600054826bffffffffffffffffffffffff60a01b821617600055167f8be0079c531659141344cd1fd0a4f28419497f9722a3daafe3b4186f6b6457e0600080a380f35b51631e4fbdf760e01b8152908101849052602490fd5b5050346101b757816003193601126101b75760085490516001600160a01b039091168152602090f35b8383806003193601126101b75782356024356001600160401b0381116105015761038290369086016111b9565b60035490936001600160a01b039390929091841633036104eb578596826103f39752602095600587528663ffffffff9485878c20541695886002541690855489519c8d948593849363bd3eb98f60e01b855260a01c168984016020909392919363ffffffff60408201951681520152565b03915afa9586156104e15787988a9896976104ae575b50908060c49260075416948851998a97889663122bba3560e21b885287015260248601526080604486015281608486015260a48501378960a48285010152601f801991011682018960a48483039260a0840160648701520152019134905af19081156104a55750610478578280f35b813d831161049e575b61048b8183611146565b810103126104995781808280f35b600080fd5b503d610481565b513d85823e3d90fd5b868193979299503d83116104da575b6104c78183611146565b8101031261049957519587949081610409565b503d6104bd565b85513d8b823e3d90fd5b82516367616c9560e11b81523381890152602490fd5b8380fd5b91905034610297578060031936011261029757610540913561053b600161052a611072565b9383875281602052862001546112ce565b6113e3565b5080f35b5050346101b757816003193601126101b75760075490516001600160a01b039091168152602090f35b90503461029757602036600319011261029757610588611088565b610590611254565b6001600160a01b031691821561028a575050600280546001600160a01b031916821790557f6de4326a8b9054d72d9dbab97d27bc4edffadee7d966f5af9cc4eafdaf8e54558280a280f35b8284346106025780600319360112610602575063ffffffff6020925460a01c169051908152f35b80fd5b9050346102975760203660031901126102975760209282913581526006845220549051908152f35b90503461029757602036600319011261029757610648611088565b610650611254565b6001600160a01b031691821561028a575080546001600160a01b031916821790557f278c70ced5f3e0e5eeb385b5ff9cb735748ba00a625147e66065ed48fc1562cd8280a280f35b5050346101b757816003193601126101b75751908152602090f35b91905034610297576020366003190112610297578135916001600160801b038316809303610501576106e36113b7565b82156107295750816020917f1c71b0b8c071240d5960f42aa433d532b00a347608de270d2200adece7cc09a4936001600160801b0319600954161760095551908152a180f35b9051632b2acf8b60e01b8152fd5b90503461029757816003193601126102975781602093610755611072565b9235815260018552209060018060a01b0316600052825260ff81600020541690519015158152f35b5050346101b757816003193601126101b75760035490516001600160a01b039091168152602090f35b5050346101b757816003193601126101b757905490516001600160a01b039091168152602090f35b905034610297576020366003190112610297576107e9611088565b6107f1611254565b6001600160a01b031691821561028a575050600380546001600160a01b031916821790557f52e6d2e71f8c0e051b2e43ce23ed13768759cac6bc5f6ae587d3888be98288358280a280f35b9050346102975782600319360112610297575490516001600160a01b03909116815260209150f35b833461060257806003193601126106025761087d6113b7565b600080546001600160a01b0319811682556001600160a01b03167f8be0079c531659141344cd1fd0a4f28419497f9722a3daafe3b4186f6b6457e08280a380f35b9050346102975760203660031901126102975760209282913581526005845220549051908152f35b839150346101b75760603660031901126101b75761090261109e565b926001600160401b03916024604435848111610b3d5761092590369084016111b9565b60075490956001600160a01b03949092909185163303610be25763ffffffff80991688526020966006885261099388888b2054886002541686549d8e8c519586948593849363bd3eb98f60e01b855260a01c168b84016020909392919363ffffffff60408201951681520152565b03915afa908115610bd8578a91610ba7575b50853503610b65576109c1916109bc913691611182565b6114c1565b9182516002811015610b5357610a7e57879850868583541693015191833b15610a7a57610a4c88938a979388948a519b8c998a98899763797266f560e11b8952880152845190870152830151166044850152898201511660648401526080610a38606083015160a0608487015260c486019061122f565b9101518382036023190160a485015261122f565b03925af1908115610a715750610a6157505080f35b610a6a906110b1565b6106025780f35b513d84823e3d90fd5b8880fd5b9192939783519860028a1015610b41576001899a9997989914610aa8575b50505050505050505080f35b87911693015190833b15610b3d57610b108692899489519a8b98899788966328f2f2c960e21b88528701528351908601528201511660448401526060610afc8a8301516080606487015260a486019061122f565b91015183820360231901608485015261122f565b03925af1908115610a715750610b2e575b8082818080808080610a9c565b610b37906110b1565b81610b21565b8580fd5b634e487b7160e01b8952602183528589fd5b634e487b7160e01b8952602183528489fd5b865162461bcd60e51b8152808401899052601f818701527f436861696e52756d626c653a2073656e646572206973206e6f742070656572006044820152606490fd5b90508881813d8311610bd1575b610bbe8183611146565b81010312610bcd57518b6109a5565b8980fd5b503d610bb4565b88513d8c823e3d90fd5b855162461bcd60e51b81526020818401526022818601527f436861696e52756d626c653a2063616c6c6572206973206e6f74206d61696c626044820152610def60f31b6064820152608490fd5b8383346101b757806003193601126101b757610c4961109e565b926024356001600160401b038111610501573660238201121561050157610c799036906024818501359101611182565b5063ffffffff809416835260208094600582528385205416604460018060a01b0360085416936001600160801b0360095416948651958694859363a692979360e01b855284015260248301525afa928315610d0f578093610cdd575b505051908152f35b909192508382813d8311610d08575b610cf68183611146565b81010312610602575051908380610cd5565b503d610cec565b8251903d90823e3d90fd5b90503461029757602036600319011261029757359063ffffffff60e01b821680920361029757516356d5d47560e01b909114815260209150f35b839150346101b75760203660031901126101b757610d7061109e565b6002549091906001600160a01b03163303610dcf57805463ffffffff60a01b191660a083901b63ffffffff60a01b1617905563ffffffff167f47333240c37caed3a1253ddbea098806bb1baf7280274b495d478f95b28dd06d8280a280f35b602490845190633d5e603f60e01b82523390820152fd5b8383346101b757806003193601126101b757610e00611072565b90336001600160a01b03831603610e1d57506105409192356113e3565b5163334bd91960e11b81528390fd5b90503461029757602036600319011261029757610e47611088565b610e4f6113b7565b6001600160a01b031691821561028a575050600880546001600160a01b031916821790557f7a0fea380d7a6cd83f0f8ccad3c349cad10d42f760f63fd2492d5d407471a49c8280a280f35b919050346102975780600319360112610297576105409135610ebf600161052a611072565b611337565b90503461029757602036600319011261029757816020936001923581528285522001549051908152f35b91905034610297573660031901126101b757610f1690610f0c611254565b60243590356112f4565b80f35b919050346102975780600319360112610297576001600160401b03918035838111610feb57610f4b9036908301611042565b9093602435908111610b3d57610f649036908401611042565b929093610f6f611254565b838303610faf575050845b818110610f85578580f35b80610fa9610f9660019385896111e6565b35610fa28387896111e6565b35906112f4565b01610f7a565b906020606492519162461bcd60e51b8352820152601660248201527524b73b30b634b21030b93930bcb9903632b733ba341760511b6044820152fd5b8480fd5b849134610297576020366003190112610297573563ffffffff60e01b81168091036102975760209250637965db0b60e01b8114908115611031575b5015158152f35b6301ffc9a760e01b1490508361102a565b9181601f84011215610499578235916001600160401b038311610499576020808501948460051b01011161049957565b602435906001600160a01b038216820361049957565b600435906001600160a01b038216820361049957565b6004359063ffffffff8216820361049957565b6001600160401b0381116110c457604052565b634e487b7160e01b600052604160045260246000fd5b606081019081106001600160401b038211176110c457604052565b60a081019081106001600160401b038211176110c457604052565b608081019081106001600160401b038211176110c457604052565b602081019081106001600160401b038211176110c457604052565b90601f801991011681019081106001600160401b038211176110c457604052565b6001600160401b0381116110c457601f01601f191660200190565b92919261118e82611167565b9161119c6040519384611146565b829481845281830111610499578281602093846000960137010152565b9181601f84011215610499578235916001600160401b038311610499576020838186019501011161049957565b91908110156111f65760051b0190565b634e487b7160e01b600052603260045260246000fd5b60005b83811061121f5750506000910152565b818101518382015260200161120f565b906020916112488151809281855285808601910161120c565b601f01601f1916010190565b3360009081527f31c1e66639f421f1853aeefe8ad6b62a3b96f3287efe23106923cd924aa025c260205260409020547f97667070c54ef182b0f5858b034beac1b6f3089aa2d3188bb1e8929f4fa9b9299060ff16156112b05750565b6044906040519063e2517d3f60e01b82523360048301526024820152fd5b80600052600160205260406000203360005260205260ff60406000205416156112b05750565b7fcf862c2ab9207085c570abb732a01b9fc3dea1732596d0d04982ccbc8f3e455b60008381526006602052826040822055828152600560205283604082205580a3565b906000918083526001602052604083209160018060a01b03169182845260205260ff604084205416156000146113b25780835260016020526040832082845260205260408320600160ff198254161790557f2f8788117e7eff1d82e926ec794901d17c78024a50270940304540a733656f0d339380a4600190565b505090565b6000546001600160a01b031633036113cb57565b60405163118cdaa760e01b8152336004820152602490fd5b906000918083526001602052604083209160018060a01b03169182845260205260ff6040842054166000146113b2578083526001602052604083208284526020526040832060ff1981541690557ff6391f5c32d9c69d2a47ea670b442974b53935d1edc7fd64eb21e047a839171b339380a4600190565b519060ff8216820361049957565b51906001600160401b038216820361049957565b81601f8201121561049957805161149281611167565b926114a06040519485611146565b81845260208284010111610499576114be916020808501910161120c565b90565b60408051906114cf826110da565b60009283835260208251936114e3856110f5565b858552858286015285848601526060948580820152856080820152828201528380519161150f83611110565b8783528784840152868284015286808401520152815181838181019281010312610b3d5760ff61153e8261145a565b166001810361164d5750825183019060c084848401930312611649576115639061145a565b50828401518584015190936001600160a01b0382169290918390036116455761158e60808301611468565b60a0830151916001600160401b03928381116116415781876115b29287010161147c565b9360c08101519084821161163d576115cd929101870161147c565b938751966115da886110f5565b87528587015216858501528584015260808301528251936115fa85611110565b8585528582860152835161160d8161112b565b868152848601528351906116208261112b565b868252850152825194611632866110da565b855284015282015290565b8b80fd5b8a80fd5b8780fd5b8680fd5b91959294929160020361173957845185019060a086888401930312610297576116759061145a565b508385015194611686848201611468565b916080820151906001600160401b0391828111610b3d57818a6116ab9286010161147c565b9260a081015190838211611649576116c69291018a0161147c565b928651976116d389611110565b8852168787015284860152828501528251916116ee836110f5565b818352818684015281848401528351906117078261112b565b8282528301528251906117198261112b565b8152608082015281519361172c856110da565b6001855284015282015290565b835162461bcd60e51b8152600481018790526014602482015273556e6b6e6f776e206d657373616765207479706560601b6044820152606490fdfea264697066735822122059a4cb0d01d1b757e17b76ebc092ca49b9145e2f508efbfed4b705427196bdbd64736f6c634300081800332f8788117e7eff1d82e926ec794901d17c78024a50270940304540a733656f0d",
  "devdoc": {
    "errors": {
      "AccessControlBadConfirmation()": [
        {
          "details": "The caller of a function is not the expected one. NOTE: Don't confuse with {AccessControlUnauthorizedAccount}."
        }
      ],
      "AccessControlUnauthorizedAccount(address,bytes32)": [
        {
          "details": "The `account` is missing a role."
        }
      ],
      "OwnableInvalidOwner(address)": [
        {
          "details": "The owner is not a valid owner account. (eg. `address(0)`)"
        }
      ],
      "OwnableUnauthorizedAccount(address)": [
        {
          "details": "The caller account is not authorized to perform an operation."
        }
      ]
    },
    "events": {
      "RoleAdminChanged(bytes32,bytes32,bytes32)": {
        "details": "Emitted when `newAdminRole` is set as ``role``'s admin role, replacing `previousAdminRole` `DEFAULT_ADMIN_ROLE` is the starting admin for all roles, despite {RoleAdminChanged} not being emitted signaling this."
      },
      "RoleGranted(bytes32,address,address)": {
        "details": "Emitted when `account` is granted `role`. `sender` is the account that originated the contract call, an admin role bearer except when using {AccessControl-_setupRole}."
      },
      "RoleRevoked(bytes32,address,address)": {
        "details": "Emitted when `account` is revoked `role`. `sender` is the account that originated the contract call:   - if using `revokeRole`, it is the admin role bearer   - if using `renounceRole`, it is the role bearer (i.e. `account`)"
      }
    },
    "kind": "dev",
    "methods": {
      "getRoleAdmin(bytes32)": {
        "details": "Returns the admin role that controls `role`. See {grantRole} and {revokeRole}. To change a role's admin, use {_setRoleAdmin}."
      },
      "grantRole(bytes32,address)": {
        "details": "Grants `role` to `account`. If `account` had not been already granted `role`, emits a {RoleGranted} event. Requirements: - the caller must have ``role``'s admin role. May emit a {RoleGranted} event."
      },
      "hasRole(bytes32,address)": {
        "details": "Returns `true` if `account` has been granted `role`."
      },
      "owner()": {
        "details": "Returns the address of the current owner."
      },
      "renounceOwnership()": {
        "details": "Leaves the contract without owner. It will not be possible to call `onlyOwner` functions. Can only be called by the current owner. NOTE: Renouncing ownership will leave the contract without an owner, thereby disabling any functionality that is only available to the owner."
      },
      "renounceRole(bytes32,address)": {
        "details": "Revokes `role` from the calling account. Roles are often managed via {grantRole} and {revokeRole}: this function's purpose is to provide a mechanism for accounts to lose their privileges if they are compromised (such as when a trusted device is misplaced). If the calling account had been revoked `role`, emits a {RoleRevoked} event. Requirements: - the caller must be `callerConfirmation`. May emit a {RoleRevoked} event."
      },
      "revokeRole(bytes32,address)": {
        "details": "Revokes `role` from `account`. If `account` had been granted `role`, emits a {RoleRevoked} event. Requirements: - the caller must have ``role``'s admin role. May emit a {RoleRevoked} event."
      },
      "supportsInterface(bytes4)": {
        "details": "See {IERC165-supportsInterface}."
      },
      "transferOwnership(address)": {
        "details": "Transfers ownership of the contract to a new account (`newOwner`). Can only be called by the current owner."
      }
    },
    "version": 1
  },
  "userdoc": {
    "kind": "user",
    "methods": {},
    "version": 1
  },
  "storageLayout": {
    "storage": [
      {
        "astId": 8220,
        "contract": "contracts/connectors/HyperlaneConnector.sol:HyperlaneConnector",
        "label": "_owner",
        "offset": 0,
        "slot": "0",
        "type": "t_address"
      },
      {
        "astId": 7859,
        "contract": "contracts/connectors/HyperlaneConnector.sol:HyperlaneConnector",
        "label": "_roles",
        "offset": 0,
        "slot": "1",
        "type": "t_mapping(t_bytes32,t_struct(RoleData)7854_storage)"
      },
      {
        "astId": 15581,
        "contract": "contracts/connectors/HyperlaneConnector.sol:HyperlaneConnector",
        "label": "router",
        "offset": 0,
        "slot": "2",
        "type": "t_contract(SingleRouter)15559"
      },
      {
        "astId": 15584,
        "contract": "contracts/connectors/HyperlaneConnector.sol:HyperlaneConnector",
        "label": "singleId",
        "offset": 0,
        "slot": "3",
        "type": "t_contract(SingleIdentifierID)14400"
      },
      {
        "astId": 15587,
        "contract": "contracts/connectors/HyperlaneConnector.sol:HyperlaneConnector",
        "label": "registry",
        "offset": 0,
        "slot": "4",
        "type": "t_contract(ISingleIdentifierRegistry)16886"
      },
      {
        "astId": 15589,
        "contract": "contracts/connectors/HyperlaneConnector.sol:HyperlaneConnector",
        "label": "connectorId",
        "offset": 20,
        "slot": "4",
        "type": "t_uint32"
      },
      {
        "astId": 15593,
        "contract": "contracts/connectors/HyperlaneConnector.sol:HyperlaneConnector",
        "label": "customChainIds",
        "offset": 0,
        "slot": "5",
        "type": "t_mapping(t_uint256,t_uint256)"
      },
      {
        "astId": 15597,
        "contract": "contracts/connectors/HyperlaneConnector.sol:HyperlaneConnector",
        "label": "nativeChainIds",
        "offset": 0,
        "slot": "6",
        "type": "t_mapping(t_uint256,t_uint256)"
      },
      {
        "astId": 15928,
        "contract": "contracts/connectors/HyperlaneConnector.sol:HyperlaneConnector",
        "label": "mailbox",
        "offset": 0,
        "slot": "7",
        "type": "t_contract(IMailbox)1118"
      },
      {
        "astId": 15931,
        "contract": "contracts/connectors/HyperlaneConnector.sol:HyperlaneConnector",
        "label": "igp",
        "offset": 0,
        "slot": "8",
        "type": "t_contract(InterchainGasPaymaster)487"
      },
      {
        "astId": 15933,
        "contract": "contracts/connectors/HyperlaneConnector.sol:HyperlaneConnector",
        "label": "gasLimit",
        "offset": 0,
        "slot": "9",
        "type": "t_uint128"
      }
    ],
    "types": {
      "t_address": {
        "encoding": "inplace",
        "label": "address",
        "numberOfBytes": "20"
      },
      "t_bool": {
        "encoding": "inplace",
        "label": "bool",
        "numberOfBytes": "1"
      },
      "t_bytes32": {
        "encoding": "inplace",
        "label": "bytes32",
        "numberOfBytes": "32"
      },
      "t_contract(IMailbox)1118": {
        "encoding": "inplace",
        "label": "contract IMailbox",
        "numberOfBytes": "20"
      },
      "t_contract(ISingleIdentifierRegistry)16886": {
        "encoding": "inplace",
        "label": "contract ISingleIdentifierRegistry",
        "numberOfBytes": "20"
      },
      "t_contract(InterchainGasPaymaster)487": {
        "encoding": "inplace",
        "label": "contract InterchainGasPaymaster",
        "numberOfBytes": "20"
      },
      "t_contract(SingleIdentifierID)14400": {
        "encoding": "inplace",
        "label": "contract SingleIdentifierID",
        "numberOfBytes": "20"
      },
      "t_contract(SingleRouter)15559": {
        "encoding": "inplace",
        "label": "contract SingleRouter",
        "numberOfBytes": "20"
      },
      "t_mapping(t_address,t_bool)": {
        "encoding": "mapping",
        "key": "t_address",
        "label": "mapping(address => bool)",
        "numberOfBytes": "32",
        "value": "t_bool"
      },
      "t_mapping(t_bytes32,t_struct(RoleData)7854_storage)": {
        "encoding": "mapping",
        "key": "t_bytes32",
        "label": "mapping(bytes32 => struct AccessControl.RoleData)",
        "numberOfBytes": "32",
        "value": "t_struct(RoleData)7854_storage"
      },
      "t_mapping(t_uint256,t_uint256)": {
        "encoding": "mapping",
        "key": "t_uint256",
        "label": "mapping(uint256 => uint256)",
        "numberOfBytes": "32",
        "value": "t_uint256"
      },
      "t_struct(RoleData)7854_storage": {
        "encoding": "inplace",
        "label": "struct AccessControl.RoleData",
        "members": [
          {
            "astId": 7851,
            "contract": "contracts/connectors/HyperlaneConnector.sol:HyperlaneConnector",
            "label": "hasRole",
            "offset": 0,
            "slot": "0",
            "type": "t_mapping(t_address,t_bool)"
          },
          {
            "astId": 7853,
            "contract": "contracts/connectors/HyperlaneConnector.sol:HyperlaneConnector",
            "label": "adminRole",
            "offset": 0,
            "slot": "1",
            "type": "t_bytes32"
          }
        ],
        "numberOfBytes": "64"
      },
      "t_uint128": {
        "encoding": "inplace",
        "label": "uint128",
        "numberOfBytes": "16"
      },
      "t_uint256": {
        "encoding": "inplace",
        "label": "uint256",
        "numberOfBytes": "32"
      },
      "t_uint32": {
        "encoding": "inplace",
        "label": "uint32",
        "numberOfBytes": "4"
      }
    }
  }
}