{
  "address": "0x3d52d95D58fCb53814ea37d580601D2AF2B4CC98",
  "abi": [
    {
      "inputs": [
        {
          "internalType": "address",
          "name": "_admin",
          "type": "address"
        },
        {
          "internalType": "address",
          "name": "_operator",
          "type": "address"
        },
        {
          "internalType": "address",
          "name": "_mailbox",
          "type": "address"
        },
        {
          "internalType": "address",
          "name": "igp",
          "type": "address"
        },
        {
          "internalType": "address",
          "name": "_registry",
          "type": "address"
        },
        {
          "internalType": "uint128",
          "name": "_gasLimit",
          "type": "uint128"
        }
      ],
      "stateMutability": "nonpayable",
      "type": "constructor"
    },
    {
      "inputs": [],
      "name": "AccessControlBadConfirmation",
      "type": "error"
    },
    {
      "inputs": [
        {
          "internalType": "address",
          "name": "account",
          "type": "address"
        },
        {
          "internalType": "bytes32",
          "name": "neededRole",
          "type": "bytes32"
        }
      ],
      "name": "AccessControlUnauthorizedAccount",
      "type": "error"
    },
    {
      "inputs": [],
      "name": "AddressIsZero",
      "type": "error"
    },
    {
      "inputs": [],
      "name": "GasLimitInvalid",
      "type": "error"
    },
    {
      "inputs": [
        {
          "internalType": "address",
          "name": "owner",
          "type": "address"
        }
      ],
      "name": "OwnableInvalidOwner",
      "type": "error"
    },
    {
      "inputs": [
        {
          "internalType": "address",
          "name": "account",
          "type": "address"
        }
      ],
      "name": "OwnableUnauthorizedAccount",
      "type": "error"
    },
    {
      "inputs": [
        {
          "internalType": "uint32",
          "name": "eid",
          "type": "uint32"
        }
      ],
      "name": "SenderIsNotPeer",
      "type": "error"
    },
    {
      "inputs": [
        {
          "internalType": "address",
          "name": "sender",
          "type": "address"
        }
      ],
      "name": "SenderIsNotRouter",
      "type": "error"
    },
    {
      "anonymous": false,
      "inputs": [
        {
          "indexed": true,
          "internalType": "address",
          "name": "previousOwner",
          "type": "address"
        },
        {
          "indexed": true,
          "internalType": "address",
          "name": "newOwner",
          "type": "address"
        }
      ],
      "name": "OwnershipTransferred",
      "type": "event"
    },
    {
      "anonymous": false,
      "inputs": [
        {
          "indexed": true,
          "internalType": "bytes32",
          "name": "role",
          "type": "bytes32"
        },
        {
          "indexed": true,
          "internalType": "bytes32",
          "name": "previousAdminRole",
          "type": "bytes32"
        },
        {
          "indexed": true,
          "internalType": "bytes32",
          "name": "newAdminRole",
          "type": "bytes32"
        }
      ],
      "name": "RoleAdminChanged",
      "type": "event"
    },
    {
      "anonymous": false,
      "inputs": [
        {
          "indexed": true,
          "internalType": "bytes32",
          "name": "role",
          "type": "bytes32"
        },
        {
          "indexed": true,
          "internalType": "address",
          "name": "account",
          "type": "address"
        },
        {
          "indexed": true,
          "internalType": "address",
          "name": "sender",
          "type": "address"
        }
      ],
      "name": "RoleGranted",
      "type": "event"
    },
    {
      "anonymous": false,
      "inputs": [
        {
          "indexed": true,
          "internalType": "bytes32",
          "name": "role",
          "type": "bytes32"
        },
        {
          "indexed": true,
          "internalType": "address",
          "name": "account",
          "type": "address"
        },
        {
          "indexed": true,
          "internalType": "address",
          "name": "sender",
          "type": "address"
        }
      ],
      "name": "RoleRevoked",
      "type": "event"
    },
    {
      "anonymous": false,
      "inputs": [
        {
          "indexed": true,
          "internalType": "address",
          "name": "chainId",
          "type": "address"
        }
      ],
      "name": "SetChainIds",
      "type": "event"
    },
    {
      "anonymous": false,
      "inputs": [
        {
          "indexed": true,
          "internalType": "uint32",
          "name": "connectorId",
          "type": "uint32"
        }
      ],
      "name": "SetConnectorId",
      "type": "event"
    },
    {
      "anonymous": false,
      "inputs": [
        {
          "indexed": false,
          "internalType": "uint128",
          "name": "gasLimit",
          "type": "uint128"
        }
      ],
      "name": "SetGasLimit",
      "type": "event"
    },
    {
      "anonymous": false,
      "inputs": [
        {
          "indexed": true,
          "internalType": "address",
          "name": "ipg",
          "type": "address"
        }
      ],
      "name": "SetIgp",
      "type": "event"
    },
    {
      "anonymous": false,
      "inputs": [
        {
          "indexed": true,
          "internalType": "address",
          "name": "mailbox",
          "type": "address"
        }
      ],
      "name": "SetMailbox",
      "type": "event"
    },
    {
      "anonymous": false,
      "inputs": [
        {
          "indexed": true,
          "internalType": "address",
          "name": "registry",
          "type": "address"
        }
      ],
      "name": "SetRegistry",
      "type": "event"
    },
    {
      "anonymous": false,
      "inputs": [
        {
          "indexed": true,
          "internalType": "address",
          "name": "router",
          "type": "address"
        }
      ],
      "name": "SetRouter",
      "type": "event"
    },
    {
      "inputs": [],
      "name": "DEFAULT_ADMIN_ROLE",
      "outputs": [
        {
          "internalType": "bytes32",
          "name": "",
          "type": "bytes32"
        }
      ],
      "stateMutability": "view",
      "type": "function"
    },
    {
      "inputs": [],
      "name": "OPERATOR_ROLE",
      "outputs": [
        {
          "internalType": "bytes32",
          "name": "",
          "type": "bytes32"
        }
      ],
      "stateMutability": "view",
      "type": "function"
    },
    {
      "inputs": [],
      "name": "connectorId",
      "outputs": [
        {
          "internalType": "uint32",
          "name": "",
          "type": "uint32"
        }
      ],
      "stateMutability": "view",
      "type": "function"
    },
    {
      "inputs": [
        {
          "internalType": "uint256",
          "name": "nativeChainId",
          "type": "uint256"
        }
      ],
      "name": "customChainIds",
      "outputs": [
        {
          "internalType": "uint256",
          "name": "customChainId",
          "type": "uint256"
        }
      ],
      "stateMutability": "view",
      "type": "function"
    },
    {
      "inputs": [],
      "name": "gasLimit",
      "outputs": [
        {
          "internalType": "uint128",
          "name": "",
          "type": "uint128"
        }
      ],
      "stateMutability": "view",
      "type": "function"
    },
    {
      "inputs": [
        {
          "internalType": "bytes32",
          "name": "role",
          "type": "bytes32"
        }
      ],
      "name": "getRoleAdmin",
      "outputs": [
        {
          "internalType": "bytes32",
          "name": "",
          "type": "bytes32"
        }
      ],
      "stateMutability": "view",
      "type": "function"
    },
    {
      "inputs": [
        {
          "internalType": "bytes32",
          "name": "role",
          "type": "bytes32"
        },
        {
          "internalType": "address",
          "name": "account",
          "type": "address"
        }
      ],
      "name": "grantRole",
      "outputs": [],
      "stateMutability": "nonpayable",
      "type": "function"
    },
    {
      "inputs": [
        {
          "internalType": "uint32",
          "name": "_origin",
          "type": "uint32"
        },
        {
          "internalType": "bytes32",
          "name": "_sender",
          "type": "bytes32"
        },
        {
          "internalType": "bytes",
          "name": "_message",
          "type": "bytes"
        }
      ],
      "name": "handle",
      "outputs": [],
      "stateMutability": "nonpayable",
      "type": "function"
    },
    {
      "inputs": [
        {
          "internalType": "bytes32",
          "name": "role",
          "type": "bytes32"
        },
        {
          "internalType": "address",
          "name": "account",
          "type": "address"
        }
      ],
      "name": "hasRole",
      "outputs": [
        {
          "internalType": "bool",
          "name": "",
          "type": "bool"
        }
      ],
      "stateMutability": "view",
      "type": "function"
    },
    {
      "inputs": [],
      "name": "igp",
      "outputs": [
        {
          "internalType": "contract InterchainGasPaymaster",
          "name": "",
          "type": "address"
        }
      ],
      "stateMutability": "view",
      "type": "function"
    },
    {
      "inputs": [],
      "name": "mailbox",
      "outputs": [
        {
          "internalType": "contract IMailbox",
          "name": "",
          "type": "address"
        }
      ],
      "stateMutability": "view",
      "type": "function"
    },
    {
      "inputs": [
        {
          "internalType": "uint256",
          "name": "customChainId",
          "type": "uint256"
        }
      ],
      "name": "nativeChainIds",
      "outputs": [
        {
          "internalType": "uint256",
          "name": "nativeChainId",
          "type": "uint256"
        }
      ],
      "stateMutability": "view",
      "type": "function"
    },
    {
      "inputs": [],
      "name": "owner",
      "outputs": [
        {
          "internalType": "address",
          "name": "",
          "type": "address"
        }
      ],
      "stateMutability": "view",
      "type": "function"
    },
    {
      "inputs": [
        {
          "internalType": "uint32",
          "name": "_registryDst",
          "type": "uint32"
        },
        {
          "internalType": "bytes",
          "name": "",
          "type": "bytes"
        }
      ],
      "name": "quote",
      "outputs": [
        {
          "internalType": "uint256",
          "name": "",
          "type": "uint256"
        }
      ],
      "stateMutability": "view",
      "type": "function"
    },
    {
      "inputs": [],
      "name": "registry",
      "outputs": [
        {
          "internalType": "contract ISingleIdentifierRegistry",
          "name": "",
          "type": "address"
        }
      ],
      "stateMutability": "view",
      "type": "function"
    },
    {
      "inputs": [],
      "name": "renounceOwnership",
      "outputs": [],
      "stateMutability": "nonpayable",
      "type": "function"
    },
    {
      "inputs": [
        {
          "internalType": "bytes32",
          "name": "role",
          "type": "bytes32"
        },
        {
          "internalType": "address",
          "name": "callerConfirmation",
          "type": "address"
        }
      ],
      "name": "renounceRole",
      "outputs": [],
      "stateMutability": "nonpayable",
      "type": "function"
    },
    {
      "inputs": [
        {
          "internalType": "bytes32",
          "name": "role",
          "type": "bytes32"
        },
        {
          "internalType": "address",
          "name": "account",
          "type": "address"
        }
      ],
      "name": "revokeRole",
      "outputs": [],
      "stateMutability": "nonpayable",
      "type": "function"
    },
    {
      "inputs": [],
      "name": "router",
      "outputs": [
        {
          "internalType": "contract SingleRouter",
          "name": "",
          "type": "address"
        }
      ],
      "stateMutability": "view",
      "type": "function"
    },
    {
      "inputs": [
        {
          "internalType": "uint256",
          "name": "_registryDst",
          "type": "uint256"
        },
        {
          "internalType": "bytes",
          "name": "_payload",
          "type": "bytes"
        }
      ],
      "name": "sendMessage",
      "outputs": [],
      "stateMutability": "payable",
      "type": "function"
    },
    {
      "inputs": [
        {
          "internalType": "uint256",
          "name": "_nativeChainId",
          "type": "uint256"
        },
        {
          "internalType": "uint256",
          "name": "_customChainId",
          "type": "uint256"
        }
      ],
      "name": "setChainId",
      "outputs": [],
      "stateMutability": "nonpayable",
      "type": "function"
    },
    {
      "inputs": [
        {
          "internalType": "uint256[]",
          "name": "_nativeChainIds",
          "type": "uint256[]"
        },
        {
          "internalType": "uint256[]",
          "name": "_customChainIds",
          "type": "uint256[]"
        }
      ],
      "name": "setChainIds",
      "outputs": [],
      "stateMutability": "nonpayable",
      "type": "function"
    },
    {
      "inputs": [
        {
          "internalType": "uint32",
          "name": "_connectorId",
          "type": "uint32"
        }
      ],
      "name": "setConnectorId",
      "outputs": [],
      "stateMutability": "nonpayable",
      "type": "function"
    },
    {
      "inputs": [
        {
          "internalType": "uint128",
          "name": "_gasLimit",
          "type": "uint128"
        }
      ],
      "name": "setGasLimit",
      "outputs": [],
      "stateMutability": "nonpayable",
      "type": "function"
    },
    {
      "inputs": [
        {
          "internalType": "address",
          "name": "_igp",
          "type": "address"
        }
      ],
      "name": "setIgp",
      "outputs": [],
      "stateMutability": "nonpayable",
      "type": "function"
    },
    {
      "inputs": [
        {
          "internalType": "address",
          "name": "_mailbox",
          "type": "address"
        }
      ],
      "name": "setMailbox",
      "outputs": [],
      "stateMutability": "nonpayable",
      "type": "function"
    },
    {
      "inputs": [
        {
          "internalType": "address",
          "name": "_registry",
          "type": "address"
        }
      ],
      "name": "setRegistry",
      "outputs": [],
      "stateMutability": "nonpayable",
      "type": "function"
    },
    {
      "inputs": [
        {
          "internalType": "address",
          "name": "_router",
          "type": "address"
        }
      ],
      "name": "setRouter",
      "outputs": [],
      "stateMutability": "nonpayable",
      "type": "function"
    },
    {
      "inputs": [
        {
          "internalType": "bytes4",
          "name": "selector",
          "type": "bytes4"
        }
      ],
      "name": "supportMethod",
      "outputs": [
        {
          "internalType": "bool",
          "name": "",
          "type": "bool"
        }
      ],
      "stateMutability": "pure",
      "type": "function"
    },
    {
      "inputs": [
        {
          "internalType": "bytes4",
          "name": "interfaceId",
          "type": "bytes4"
        }
      ],
      "name": "supportsInterface",
      "outputs": [
        {
          "internalType": "bool",
          "name": "",
          "type": "bool"
        }
      ],
      "stateMutability": "view",
      "type": "function"
    },
    {
      "inputs": [
        {
          "internalType": "address",
          "name": "newOwner",
          "type": "address"
        }
      ],
      "name": "transferOwnership",
      "outputs": [],
      "stateMutability": "nonpayable",
      "type": "function"
    }
  ],
  "transactionHash": "0x7745ed1d9d3b06fb39fd0611ad186cac901c7fda38e4c660f8ffc9f97bf19d6f",
  "args": [
    "0x0d0D5Ff3cFeF8B7B2b1cAC6B6C27Fd0846c09361",
    "0x381c031bAA5995D0Cc52386508050Ac947780815",
    "0x6966b0E55883d49BFB24539356a2f8A673E02039",
    "0x28B02B97a850872C4D33C3E024fab6499ad96564",
    "0x009DBFEe9E155766AF434ED1652CA3769B05E76f",
    50000
  ],
  "numDeployments": 1,
  "solcInputHash": "0cbf7cfbe136b839052e6e1e71a1c86a",
  "bytecode": "0x6080346200025357601f62001c1f38819003918201601f191683019291906001600160401b0384118385101762000258578160c09284926040968752833981010312620002535762000051816200026e565b9162000060602083016200026e565b916200006e8282016200026e565b6200007c606083016200026e565b9060a06200008d608085016200026e565b9301516001600160801b038116919082900362000253576001600160a01b038781169690949087156200023b57600080546001600160a01b03198082168b178355919a9199889493929185167f8be0079c531659141344cd1fd0a4f28419497f9722a3daafe3b4186f6b6457e08d80a3620001089062000283565b50620001143362000304565b50620001209062000304565b501680156200022a579084918760035416176003551680156200021957808660065416176006558451907f24ff87f37fffcf8010bd99a5170997e7ba0cb142148ad07cecfc1444f55bf9248880a281156200020a5750600880546001600160801b0319168217905583519081527f1c71b0b8c071240d5960f42aa433d532b00a347608de270d2200adece7cc09a490602090a116918215620001f95790827f7a0fea380d7a6cd83f0f8ccad3c349cad10d42f760f63fd2492d5d407471a49c926007541617600755519280a26118579081620003a88239f35b815163867915ab60e01b8152600490fd5b632b2acf8b60e01b8152600490fd5b845163867915ab60e01b8152600490fd5b855163867915ab60e01b8152600490fd5b8651631e4fbdf760e01b815260006004820152602490fd5b600080fd5b634e487b7160e01b600052604160045260246000fd5b51906001600160a01b03821682036200025357565b6001600160a01b031660008181527fa6eef7e35abe7026729641147f7915573c7e97b47efa546f5f6e3230263bcb49602052604081205490919060ff16620003005781805260016020526040822081835260205260408220600160ff19825416179055339160008051602062001bff8339815191528180a4600190565b5090565b6001600160a01b031660008181527f31c1e66639f421f1853aeefe8ad6b62a3b96f3287efe23106923cd924aa025c260205260408120549091907f97667070c54ef182b0f5858b034beac1b6f3089aa2d3188bb1e8929f4fa9b9299060ff16620003a25780835260016020526040832082845260205260408320600160ff1982541617905560008051602062001bff833981519152339380a4600190565b50509056fe6080604052600436101561001257600080fd5b60003560e01c806301ffc9a7146102075780630c6a04371461020257806321f93b1e146101fd578063248a9ca3146101f85780632f2ff15d146101f35780633152d807146101ee57806336568abe146101e957806337528ffa146101e45780633e42d4a4146101df5780634214d2e5146101da57806356d5d475146101d55780636d4c9cd6146101d0578063715018a6146101cb5780637b103999146101c65780638da5cb5b146101c157806391d14854146101bc578063a1da9dae146101b7578063a217fddf146101b2578063a91ee0dc146101ad578063b00899cf146101a8578063b3d63288146101a3578063c0d786551461019e578063d5438eae14610199578063d547741f14610194578063e289adcd1461018f578063f28b2daa1461018a578063f2fde38b14610185578063f3c61d6b14610180578063f5b541a61461017b578063f68016b7146101765763f887ea401461017157600080fd5b611072565b61104b565b611010565b610fa3565b610f17565b610eee565b610db4565b610d72565b610d49565b610cdc565b610cb5565b610c89565b610c1c565b610c00565b610b7c565b610b26565b610afd565b610ad4565b610a76565b610a3f565b610843565b6106f5565b6105c1565b610532565b6104d4565b610455565b610413565b6103d3565b610394565b6102ac565b610234565b602090600319011261022f576004356001600160e01b03198116810361022f5790565b600080fd5b3461022f5760206001600160e01b031961024d3661020c565b16637965db0b60e01b811490811561026b575b506040519015158152f35b6301ffc9a760e01b14905038610260565b9181601f8401121561022f578235916001600160401b03831161022f576020808501948460051b01011161022f57565b3461022f57604036600319011261022f576001600160401b0360043581811161022f576102dd90369060040161027c565b909160243590811161022f576102f790369060040161027c565b90506103016112c9565b81036103565760005b81811061031357005b8061035061032d6001936000526004602052604060002090565b548260051b86013581600052600560205280604060002055600052604060002055565b0161030a565b60405162461bcd60e51b815260206004820152601660248201527524b73b30b634b21030b93930bcb9903632b733ba341760511b6044820152606490fd5b3461022f57604036600319011261022f576103ad6112c9565b6103d160243560043581600052600560205280604060002055600052604060002055565b005b3461022f57602036600319011261022f5760043560005260016020526020600160406000200154604051908152f35b6001600160a01b0381160361022f57565b3461022f57604036600319011261022f576103d160243560043561043682610402565b806000526001602052610450600160406000200154611345565b611366565b3461022f57602036600319011261022f5760043561047281610402565b61047a611400565b6001600160a01b031680156104c257600780546001600160a01b031916821790557f7a0fea380d7a6cd83f0f8ccad3c349cad10d42f760f63fd2492d5d407471a49c600080a2005b60405163867915ab60e01b8152600490fd5b3461022f57604036600319011261022f576024356104f181610402565b336001600160a01b0382160361050d576103d19060043561142c565b60405163334bd91960e11b8152600490fd5b6004359063ffffffff8216820361022f57565b3461022f57602036600319011261022f5761054b61051f565b6002546001600160a01b031633036105a9576003805463ffffffff60a01b191660a083901b63ffffffff60a01b1617905563ffffffff167f47333240c37caed3a1253ddbea098806bb1baf7280274b495d478f95b28dd06d600080a2005b604051633d5e603f60e01b8152336004820152602490fd5b3461022f5760206356d5d47560e01b6001600160e01b03196105e23661020c565b1614604051908152f35b634e487b7160e01b600052604160045260246000fd5b6001600160401b03811161061557604052565b6105ec565b608081019081106001600160401b0382111761061557604052565b90601f801991011681019081106001600160401b0382111761061557604052565b604051906106638261061a565b565b6040519060a082018281106001600160401b0382111761061557604052565b60405190606082018281106001600160401b0382111761061557604052565b6001600160401b03811161061557601f01601f191660200190565b9291926106ca826106a3565b916106d86040519384610635565b82948184528183011161022f578281602093846000960137010152565b3461022f57604036600319011261022f5761070e61051f565b6024356001600160401b03811161022f573660238201121561022f576107b79161074460209236906024816004013591016106be565b5063ffffffff809116600052600482526040600020541661077b61076f60075460018060a01b031690565b6001600160a01b031690565b60085460405163a692979360e01b815263ffffffff9390931660048401526001600160801b031660248301529092839190829081906044820190565b03915afa8015610811576107de916000916107e2575b506040519081529081906020820190565b0390f35b610804915060203d60201161080a575b6107fc8183610635565b81019061109b565b386107cd565b503d6107f2565b6110aa565b9181601f8401121561022f578235916001600160401b03831161022f576020838186019501011161022f57565b3461022f57606036600319011261022f5761085c61051f565b6044356001600160401b03811161022f5761087e61090b913690600401610816565b906108a061089961076f61076f60065460018060a01b031690565b33146110b6565b60206108bd63ffffffff8096166000526005602052604060002090565b546002546108d3906001600160a01b031661076f565b6003549660405180978194829363bd3eb98f60e01b84528b60a01c16600484016020909392919363ffffffff60408201951681520152565b03915afa9182156108115761093361093a9361093f95600091610a20575b506024351461110d565b36916106be565b611695565b90815161094b81611159565b61095481611159565b6109c55750600354602090610971906001600160a01b031661076f565b91015190803b1561022f5760405163797266f560e11b81529160009183918290849082906109a29060048301611216565b03925af18015610811576109b257005b806109bf6103d192610602565b80610a6b565b600182516109d281611159565b6109db81611159565b146109e257005b60409190910151906001600160a01b0316803b1561022f576040516328f2f2c960e21b81529160009183918290849082906109a290600483016111c1565b610a39915060203d60201161080a576107fc8183610635565b38610929565b3461022f57602036600319011261022f5760043560005260046020526020604060002054604051908152f35b600091031261022f57565b3461022f57600080600319360112610ad157610a90611400565b80546001600160a01b03198116825581906001600160a01b03167f8be0079c531659141344cd1fd0a4f28419497f9722a3daafe3b4186f6b6457e08280a380f35b80fd5b3461022f57600036600319011261022f576003546040516001600160a01b039091168152602090f35b3461022f57600036600319011261022f576000546040516001600160a01b039091168152602090f35b3461022f57604036600319011261022f57602060ff610b70602435610b4a81610402565b6004356000526001845260406000209060018060a01b0316600052602052604060002090565b54166040519015158152f35b3461022f57602036600319011261022f576004356001600160801b03811680910361022f57610ba9611400565b8015610bee576020817f1c71b0b8c071240d5960f42aa433d532b00a347608de270d2200adece7cc09a4926001600160801b03196008541617600855604051908152a1005b604051632b2acf8b60e01b8152600490fd5b3461022f57600036600319011261022f57602060405160008152f35b3461022f57602036600319011261022f57600435610c3981610402565b610c416112c9565b6001600160a01b031680156104c257600380546001600160a01b031916821790557f278c70ced5f3e0e5eeb385b5ff9cb735748ba00a625147e66065ed48fc1562cd600080a2005b3461022f57602036600319011261022f5760043560005260056020526020604060002054604051908152f35b3461022f57600036600319011261022f57602063ffffffff60035460a01c16604051908152f35b3461022f57602036600319011261022f57600435610cf981610402565b610d016112c9565b6001600160a01b031680156104c257600280546001600160a01b031916821790557f6de4326a8b9054d72d9dbab97d27bc4edffadee7d966f5af9cc4eafdaf8e5455600080a2005b3461022f57600036600319011261022f576006546040516001600160a01b039091168152602090f35b3461022f57604036600319011261022f576103d1602435600435610d9582610402565b806000526001602052610daf600160406000200154611345565b61142c565b604036600319011261022f576004356024356001600160401b03811161022f57610de2903690600401610816565b90610e04610dfa846000526004602052604060002090565b5463ffffffff1690565b600254909190610e1c906001600160a01b031661076f565b91610e3060035463ffffffff9060a01c1690565b60405163bd3eb98f60e01b815263ffffffff9190911660048201526024810195909552602094928590849060449082905afa8015610811578593600091610ed1575b50600654610e88906001600160a01b031661076f565b91610ea96040519687958694859463122bba3560e21b86526004860161127a565b039134905af1801561081157610ebb57005b816103d192903d1061080a576107fc8183610635565b610ee89150843d861161080a576107fc8183610635565b38610e72565b3461022f57600036600319011261022f576007546040516001600160a01b039091168152602090f35b3461022f57602036600319011261022f57600435610f3481610402565b610f3c611400565b6001600160a01b039081168015610f8a57600080546001600160a01b03198116831782559092167f8be0079c531659141344cd1fd0a4f28419497f9722a3daafe3b4186f6b6457e08380a380f35b604051631e4fbdf760e01b815260006004820152602490fd5b3461022f57602036600319011261022f57600435610fc081610402565b610fc8611400565b6001600160a01b031680156104c257600680546001600160a01b031916821790557f24ff87f37fffcf8010bd99a5170997e7ba0cb142148ad07cecfc1444f55bf924600080a2005b3461022f57600036600319011261022f5760206040517f97667070c54ef182b0f5858b034beac1b6f3089aa2d3188bb1e8929f4fa9b9298152f35b3461022f57600036600319011261022f5760206001600160801b0360085416604051908152f35b3461022f57600036600319011261022f576002546040516001600160a01b039091168152602090f35b9081602091031261022f575190565b6040513d6000823e3d90fd5b156110bd57565b60405162461bcd60e51b815260206004820152602260248201527f436861696e52756d626c653a2063616c6c6572206973206e6f74206d61696c626044820152610def60f31b6064820152608490fd5b1561111457565b60405162461bcd60e51b815260206004820152601f60248201527f436861696e52756d626c653a2073656e646572206973206e6f742070656572006044820152606490fd5b6002111561116357565b634e487b7160e01b600052602160045260246000fd5b60005b83811061118c5750506000910152565b818101518382015260200161117c565b906020916111b581518092818552858086019101611179565b601f01601f1916010190565b906112139160208152815160208201526001600160401b03602083015116604082015260606111fe604084015160808385015260a084019061119c565b920151906080601f198285030191015261119c565b90565b9061121391602081528151602082015260018060a01b0360208301511660408201526001600160401b0360408301511660608201526080611265606084015160a08385015260c084019061119c565b9201519060a0601f198285030191015261119c565b92849263ffffffff60c0969316855260208501526080604085015281608085015260a0840137600060a08284010152601f8019910116810190606060a082840301910152600060a08201520190565b3360009081527f31c1e66639f421f1853aeefe8ad6b62a3b96f3287efe23106923cd924aa025c2602052604090207f97667070c54ef182b0f5858b034beac1b6f3089aa2d3188bb1e8929f4fa9b9299060ff905b5416156113275750565b6044906040519063e2517d3f60e01b82523360048301526024820152fd5b6000818152600160209081526040808320338452909152902060ff9061131d565b600090808252600160205260ff61139284604085209060018060a01b0316600052602052604060002090565b54166113fa578082526001602090815260408084206001600160a01b038616600090815292529020805460ff1916600117905533926001600160a01b0316917f2f8788117e7eff1d82e926ec794901d17c78024a50270940304540a733656f0d9080a4600190565b50905090565b6000546001600160a01b0316330361141457565b60405163118cdaa760e01b8152336004820152602490fd5b600090808252600160205260ff61145884604085209060018060a01b0316600052602052604060002090565b5416156113fa578082526001602090815260408084206001600160a01b038616600090815292529020805460ff1916905533926001600160a01b0316917ff6391f5c32d9c69d2a47ea670b442974b53935d1edc7fd64eb21e047a839171b9080a4600190565b60408051606092916001600160401b039184810183811182821017610615578252809460009384835283519060a0820190828210908211176106155784528481528460208201528484820152818082015281608082015260208301528251936115268561061a565b80855260208501528083850152808401520152565b519060ff8216820361022f57565b51906001600160401b038216820361022f57565b81601f8201121561022f578051611573816106a3565b926115816040519485610635565b8184526020828401011161022f576112139160208085019101611179565b91909160a08184031261022f576115b58161153b565b926020820151926115c860408401611549565b926060810151926001600160401b039384811161022f57816115eb91840161155d565b93608083015190811161022f57611213920161155d565b60405190602082018281106001600160401b038211176106155760405260008252565b9160c08383031261022f576116398361153b565b92602081015192604082015161164e81610402565b9261165b60608401611549565b926080810151926001600160401b039384811161022f578161167e91840161155d565b9360a083015190811161022f57611213920161155d565b61169d6114be565b5060ff6001820151166001811460001461174f57506116fe6116cb826020806116ee95518301019101611625565b95939691929094506116db610665565b9687526001600160a01b03166020870152565b6001600160401b03166040850152565b60608301526080820152611710610656565b6000815260006020820152611723611602565b6040820152611730611602565b606082015261173d610684565b91600083526020830152604082015290565b6002036117e55761176c8160208061178c9451830101910161159f565b9350919390611779610656565b9485526001600160401b03166020850152565b6040830152606082015261179e610665565b906000825260006020830152600060408301526117b9611602565b60608301526117c6611602565b60808301526117d3610684565b60018152916020830152604082015290565b60405162461bcd60e51b8152602060048201526014602482015273556e6b6e6f776e206d657373616765207479706560601b6044820152606490fdfea2646970667358221220db72755981afd0010daf808113dcd5d5a69ea09ab9bd83cf5174ad28028527b064736f6c634300081800332f8788117e7eff1d82e926ec794901d17c78024a50270940304540a733656f0d",
  "devdoc": {
    "errors": {
      "AccessControlBadConfirmation()": [
        {
          "details": "The caller of a function is not the expected one. NOTE: Don't confuse with {AccessControlUnauthorizedAccount}."
        }
      ],
      "AccessControlUnauthorizedAccount(address,bytes32)": [
        {
          "details": "The `account` is missing a role."
        }
      ],
      "OwnableInvalidOwner(address)": [
        {
          "details": "The owner is not a valid owner account. (eg. `address(0)`)"
        }
      ],
      "OwnableUnauthorizedAccount(address)": [
        {
          "details": "The caller account is not authorized to perform an operation."
        }
      ]
    },
    "events": {
      "RoleAdminChanged(bytes32,bytes32,bytes32)": {
        "details": "Emitted when `newAdminRole` is set as ``role``'s admin role, replacing `previousAdminRole` `DEFAULT_ADMIN_ROLE` is the starting admin for all roles, despite {RoleAdminChanged} not being emitted signaling this."
      },
      "RoleGranted(bytes32,address,address)": {
        "details": "Emitted when `account` is granted `role`. `sender` is the account that originated the contract call, an admin role bearer except when using {AccessControl-_setupRole}."
      },
      "RoleRevoked(bytes32,address,address)": {
        "details": "Emitted when `account` is revoked `role`. `sender` is the account that originated the contract call:   - if using `revokeRole`, it is the admin role bearer   - if using `renounceRole`, it is the role bearer (i.e. `account`)"
      }
    },
    "kind": "dev",
    "methods": {
      "getRoleAdmin(bytes32)": {
        "details": "Returns the admin role that controls `role`. See {grantRole} and {revokeRole}. To change a role's admin, use {_setRoleAdmin}."
      },
      "grantRole(bytes32,address)": {
        "details": "Grants `role` to `account`. If `account` had not been already granted `role`, emits a {RoleGranted} event. Requirements: - the caller must have ``role``'s admin role. May emit a {RoleGranted} event."
      },
      "hasRole(bytes32,address)": {
        "details": "Returns `true` if `account` has been granted `role`."
      },
      "owner()": {
        "details": "Returns the address of the current owner."
      },
      "renounceOwnership()": {
        "details": "Leaves the contract without owner. It will not be possible to call `onlyOwner` functions. Can only be called by the current owner. NOTE: Renouncing ownership will leave the contract without an owner, thereby disabling any functionality that is only available to the owner."
      },
      "renounceRole(bytes32,address)": {
        "details": "Revokes `role` from the calling account. Roles are often managed via {grantRole} and {revokeRole}: this function's purpose is to provide a mechanism for accounts to lose their privileges if they are compromised (such as when a trusted device is misplaced). If the calling account had been revoked `role`, emits a {RoleRevoked} event. Requirements: - the caller must be `callerConfirmation`. May emit a {RoleRevoked} event."
      },
      "revokeRole(bytes32,address)": {
        "details": "Revokes `role` from `account`. If `account` had been granted `role`, emits a {RoleRevoked} event. Requirements: - the caller must have ``role``'s admin role. May emit a {RoleRevoked} event."
      },
      "supportsInterface(bytes4)": {
        "details": "See {IERC165-supportsInterface}."
      },
      "transferOwnership(address)": {
        "details": "Transfers ownership of the contract to a new account (`newOwner`). Can only be called by the current owner."
      }
    },
    "version": 1
  },
  "userdoc": {
    "kind": "user",
    "methods": {},
    "version": 1
  },
  "storageLayout": {
    "storage": [
      {
        "astId": 5279,
        "contract": "contracts/connectors/HyperlaneConnector.sol:HyperlaneConnector",
        "label": "_owner",
        "offset": 0,
        "slot": "0",
        "type": "t_address"
      },
      {
        "astId": 4918,
        "contract": "contracts/connectors/HyperlaneConnector.sol:HyperlaneConnector",
        "label": "_roles",
        "offset": 0,
        "slot": "1",
        "type": "t_mapping(t_bytes32,t_struct(RoleData)4913_storage)"
      },
      {
        "astId": 12454,
        "contract": "contracts/connectors/HyperlaneConnector.sol:HyperlaneConnector",
        "label": "router",
        "offset": 0,
        "slot": "2",
        "type": "t_contract(SingleRouter)12434"
      },
      {
        "astId": 12457,
        "contract": "contracts/connectors/HyperlaneConnector.sol:HyperlaneConnector",
        "label": "registry",
        "offset": 0,
        "slot": "3",
        "type": "t_contract(ISingleIdentifierRegistry)13683"
      },
      {
        "astId": 12459,
        "contract": "contracts/connectors/HyperlaneConnector.sol:HyperlaneConnector",
        "label": "connectorId",
        "offset": 20,
        "slot": "3",
        "type": "t_uint32"
      },
      {
        "astId": 12463,
        "contract": "contracts/connectors/HyperlaneConnector.sol:HyperlaneConnector",
        "label": "customChainIds",
        "offset": 0,
        "slot": "4",
        "type": "t_mapping(t_uint256,t_uint256)"
      },
      {
        "astId": 12467,
        "contract": "contracts/connectors/HyperlaneConnector.sol:HyperlaneConnector",
        "label": "nativeChainIds",
        "offset": 0,
        "slot": "5",
        "type": "t_mapping(t_uint256,t_uint256)"
      },
      {
        "astId": 12732,
        "contract": "contracts/connectors/HyperlaneConnector.sol:HyperlaneConnector",
        "label": "mailbox",
        "offset": 0,
        "slot": "6",
        "type": "t_contract(IMailbox)1118"
      },
      {
        "astId": 12735,
        "contract": "contracts/connectors/HyperlaneConnector.sol:HyperlaneConnector",
        "label": "igp",
        "offset": 0,
        "slot": "7",
        "type": "t_contract(InterchainGasPaymaster)487"
      },
      {
        "astId": 12737,
        "contract": "contracts/connectors/HyperlaneConnector.sol:HyperlaneConnector",
        "label": "gasLimit",
        "offset": 0,
        "slot": "8",
        "type": "t_uint128"
      }
    ],
    "types": {
      "t_address": {
        "encoding": "inplace",
        "label": "address",
        "numberOfBytes": "20"
      },
      "t_bool": {
        "encoding": "inplace",
        "label": "bool",
        "numberOfBytes": "1"
      },
      "t_bytes32": {
        "encoding": "inplace",
        "label": "bytes32",
        "numberOfBytes": "32"
      },
      "t_contract(IMailbox)1118": {
        "encoding": "inplace",
        "label": "contract IMailbox",
        "numberOfBytes": "20"
      },
      "t_contract(ISingleIdentifierRegistry)13683": {
        "encoding": "inplace",
        "label": "contract ISingleIdentifierRegistry",
        "numberOfBytes": "20"
      },
      "t_contract(InterchainGasPaymaster)487": {
        "encoding": "inplace",
        "label": "contract InterchainGasPaymaster",
        "numberOfBytes": "20"
      },
      "t_contract(SingleRouter)12434": {
        "encoding": "inplace",
        "label": "contract SingleRouter",
        "numberOfBytes": "20"
      },
      "t_mapping(t_address,t_bool)": {
        "encoding": "mapping",
        "key": "t_address",
        "label": "mapping(address => bool)",
        "numberOfBytes": "32",
        "value": "t_bool"
      },
      "t_mapping(t_bytes32,t_struct(RoleData)4913_storage)": {
        "encoding": "mapping",
        "key": "t_bytes32",
        "label": "mapping(bytes32 => struct AccessControl.RoleData)",
        "numberOfBytes": "32",
        "value": "t_struct(RoleData)4913_storage"
      },
      "t_mapping(t_uint256,t_uint256)": {
        "encoding": "mapping",
        "key": "t_uint256",
        "label": "mapping(uint256 => uint256)",
        "numberOfBytes": "32",
        "value": "t_uint256"
      },
      "t_struct(RoleData)4913_storage": {
        "encoding": "inplace",
        "label": "struct AccessControl.RoleData",
        "members": [
          {
            "astId": 4910,
            "contract": "contracts/connectors/HyperlaneConnector.sol:HyperlaneConnector",
            "label": "hasRole",
            "offset": 0,
            "slot": "0",
            "type": "t_mapping(t_address,t_bool)"
          },
          {
            "astId": 4912,
            "contract": "contracts/connectors/HyperlaneConnector.sol:HyperlaneConnector",
            "label": "adminRole",
            "offset": 0,
            "slot": "1",
            "type": "t_bytes32"
          }
        ],
        "numberOfBytes": "64"
      },
      "t_uint128": {
        "encoding": "inplace",
        "label": "uint128",
        "numberOfBytes": "16"
      },
      "t_uint256": {
        "encoding": "inplace",
        "label": "uint256",
        "numberOfBytes": "32"
      },
      "t_uint32": {
        "encoding": "inplace",
        "label": "uint32",
        "numberOfBytes": "4"
      }
    }
  }
}