{
  "address": "0x81f06f4b143a6eAD0e246DA04420F9d6d1fBEF59",
  "abi": [
    {
      "inputs": [
        {
          "internalType": "address",
          "name": "_endpoint",
          "type": "address"
        },
        {
          "internalType": "address",
          "name": "_admin",
          "type": "address"
        },
        {
          "internalType": "address",
          "name": "_operator",
          "type": "address"
        },
        {
          "internalType": "address",
          "name": "_registry",
          "type": "address"
        },
        {
          "internalType": "uint128",
          "name": "_gasLimit",
          "type": "uint128"
        }
      ],
      "stateMutability": "nonpayable",
      "type": "constructor"
    },
    {
      "inputs": [],
      "name": "AccessControlBadConfirmation",
      "type": "error"
    },
    {
      "inputs": [
        {
          "internalType": "address",
          "name": "account",
          "type": "address"
        },
        {
          "internalType": "bytes32",
          "name": "neededRole",
          "type": "bytes32"
        }
      ],
      "name": "AccessControlUnauthorizedAccount",
      "type": "error"
    },
    {
      "inputs": [
        {
          "internalType": "address",
          "name": "target",
          "type": "address"
        }
      ],
      "name": "AddressEmptyCode",
      "type": "error"
    },
    {
      "inputs": [
        {
          "internalType": "address",
          "name": "account",
          "type": "address"
        }
      ],
      "name": "AddressInsufficientBalance",
      "type": "error"
    },
    {
      "inputs": [],
      "name": "AddressIsZero",
      "type": "error"
    },
    {
      "inputs": [],
      "name": "FailedInnerCall",
      "type": "error"
    },
    {
      "inputs": [],
      "name": "GasLimitInvalid",
      "type": "error"
    },
    {
      "inputs": [],
      "name": "InvalidDelegate",
      "type": "error"
    },
    {
      "inputs": [],
      "name": "InvalidEndpointCall",
      "type": "error"
    },
    {
      "inputs": [
        {
          "internalType": "uint16",
          "name": "optionType",
          "type": "uint16"
        }
      ],
      "name": "InvalidOptionType",
      "type": "error"
    },
    {
      "inputs": [],
      "name": "LzTokenUnavailable",
      "type": "error"
    },
    {
      "inputs": [
        {
          "internalType": "uint32",
          "name": "eid",
          "type": "uint32"
        }
      ],
      "name": "NoPeer",
      "type": "error"
    },
    {
      "inputs": [
        {
          "internalType": "uint256",
          "name": "msgValue",
          "type": "uint256"
        }
      ],
      "name": "NotEnoughNative",
      "type": "error"
    },
    {
      "inputs": [
        {
          "internalType": "address",
          "name": "addr",
          "type": "address"
        }
      ],
      "name": "OnlyEndpoint",
      "type": "error"
    },
    {
      "inputs": [
        {
          "internalType": "uint32",
          "name": "eid",
          "type": "uint32"
        },
        {
          "internalType": "bytes32",
          "name": "sender",
          "type": "bytes32"
        }
      ],
      "name": "OnlyPeer",
      "type": "error"
    },
    {
      "inputs": [
        {
          "internalType": "address",
          "name": "owner",
          "type": "address"
        }
      ],
      "name": "OwnableInvalidOwner",
      "type": "error"
    },
    {
      "inputs": [
        {
          "internalType": "address",
          "name": "account",
          "type": "address"
        }
      ],
      "name": "OwnableUnauthorizedAccount",
      "type": "error"
    },
    {
      "inputs": [
        {
          "internalType": "uint8",
          "name": "bits",
          "type": "uint8"
        },
        {
          "internalType": "uint256",
          "name": "value",
          "type": "uint256"
        }
      ],
      "name": "SafeCastOverflowedUintDowncast",
      "type": "error"
    },
    {
      "inputs": [
        {
          "internalType": "address",
          "name": "token",
          "type": "address"
        }
      ],
      "name": "SafeERC20FailedOperation",
      "type": "error"
    },
    {
      "inputs": [
        {
          "internalType": "uint32",
          "name": "eid",
          "type": "uint32"
        }
      ],
      "name": "SenderIsNotPeer",
      "type": "error"
    },
    {
      "inputs": [
        {
          "internalType": "address",
          "name": "sender",
          "type": "address"
        }
      ],
      "name": "SenderIsNotRouter",
      "type": "error"
    },
    {
      "anonymous": false,
      "inputs": [
        {
          "indexed": true,
          "internalType": "address",
          "name": "previousOwner",
          "type": "address"
        },
        {
          "indexed": true,
          "internalType": "address",
          "name": "newOwner",
          "type": "address"
        }
      ],
      "name": "OwnershipTransferred",
      "type": "event"
    },
    {
      "anonymous": false,
      "inputs": [
        {
          "indexed": false,
          "internalType": "uint32",
          "name": "eid",
          "type": "uint32"
        },
        {
          "indexed": false,
          "internalType": "bytes32",
          "name": "peer",
          "type": "bytes32"
        }
      ],
      "name": "PeerSet",
      "type": "event"
    },
    {
      "anonymous": false,
      "inputs": [
        {
          "indexed": true,
          "internalType": "bytes32",
          "name": "role",
          "type": "bytes32"
        },
        {
          "indexed": true,
          "internalType": "bytes32",
          "name": "previousAdminRole",
          "type": "bytes32"
        },
        {
          "indexed": true,
          "internalType": "bytes32",
          "name": "newAdminRole",
          "type": "bytes32"
        }
      ],
      "name": "RoleAdminChanged",
      "type": "event"
    },
    {
      "anonymous": false,
      "inputs": [
        {
          "indexed": true,
          "internalType": "bytes32",
          "name": "role",
          "type": "bytes32"
        },
        {
          "indexed": true,
          "internalType": "address",
          "name": "account",
          "type": "address"
        },
        {
          "indexed": true,
          "internalType": "address",
          "name": "sender",
          "type": "address"
        }
      ],
      "name": "RoleGranted",
      "type": "event"
    },
    {
      "anonymous": false,
      "inputs": [
        {
          "indexed": true,
          "internalType": "bytes32",
          "name": "role",
          "type": "bytes32"
        },
        {
          "indexed": true,
          "internalType": "address",
          "name": "account",
          "type": "address"
        },
        {
          "indexed": true,
          "internalType": "address",
          "name": "sender",
          "type": "address"
        }
      ],
      "name": "RoleRevoked",
      "type": "event"
    },
    {
      "anonymous": false,
      "inputs": [
        {
          "indexed": true,
          "internalType": "address",
          "name": "chainId",
          "type": "address"
        }
      ],
      "name": "SetChainIds",
      "type": "event"
    },
    {
      "anonymous": false,
      "inputs": [
        {
          "indexed": true,
          "internalType": "uint32",
          "name": "connectorId",
          "type": "uint32"
        }
      ],
      "name": "SetConnectorId",
      "type": "event"
    },
    {
      "anonymous": false,
      "inputs": [
        {
          "indexed": false,
          "internalType": "uint128",
          "name": "gasLimit",
          "type": "uint128"
        }
      ],
      "name": "SetGasLimit",
      "type": "event"
    },
    {
      "anonymous": false,
      "inputs": [
        {
          "indexed": true,
          "internalType": "address",
          "name": "registry",
          "type": "address"
        }
      ],
      "name": "SetRegistry",
      "type": "event"
    },
    {
      "anonymous": false,
      "inputs": [
        {
          "indexed": true,
          "internalType": "address",
          "name": "router",
          "type": "address"
        }
      ],
      "name": "SetRouter",
      "type": "event"
    },
    {
      "inputs": [],
      "name": "DEFAULT_ADMIN_ROLE",
      "outputs": [
        {
          "internalType": "bytes32",
          "name": "",
          "type": "bytes32"
        }
      ],
      "stateMutability": "view",
      "type": "function"
    },
    {
      "inputs": [],
      "name": "OPERATOR_ROLE",
      "outputs": [
        {
          "internalType": "bytes32",
          "name": "",
          "type": "bytes32"
        }
      ],
      "stateMutability": "view",
      "type": "function"
    },
    {
      "inputs": [
        {
          "components": [
            {
              "internalType": "uint32",
              "name": "srcEid",
              "type": "uint32"
            },
            {
              "internalType": "bytes32",
              "name": "sender",
              "type": "bytes32"
            },
            {
              "internalType": "uint64",
              "name": "nonce",
              "type": "uint64"
            }
          ],
          "internalType": "struct Origin",
          "name": "origin",
          "type": "tuple"
        }
      ],
      "name": "allowInitializePath",
      "outputs": [
        {
          "internalType": "bool",
          "name": "",
          "type": "bool"
        }
      ],
      "stateMutability": "view",
      "type": "function"
    },
    {
      "inputs": [],
      "name": "connectorId",
      "outputs": [
        {
          "internalType": "uint32",
          "name": "",
          "type": "uint32"
        }
      ],
      "stateMutability": "view",
      "type": "function"
    },
    {
      "inputs": [
        {
          "internalType": "uint256",
          "name": "nativeChainId",
          "type": "uint256"
        }
      ],
      "name": "customChainIds",
      "outputs": [
        {
          "internalType": "uint256",
          "name": "customChainId",
          "type": "uint256"
        }
      ],
      "stateMutability": "view",
      "type": "function"
    },
    {
      "inputs": [],
      "name": "endpoint",
      "outputs": [
        {
          "internalType": "contract ILayerZeroEndpointV2",
          "name": "",
          "type": "address"
        }
      ],
      "stateMutability": "view",
      "type": "function"
    },
    {
      "inputs": [],
      "name": "gasLimit",
      "outputs": [
        {
          "internalType": "uint128",
          "name": "",
          "type": "uint128"
        }
      ],
      "stateMutability": "view",
      "type": "function"
    },
    {
      "inputs": [
        {
          "internalType": "bytes32",
          "name": "role",
          "type": "bytes32"
        }
      ],
      "name": "getRoleAdmin",
      "outputs": [
        {
          "internalType": "bytes32",
          "name": "",
          "type": "bytes32"
        }
      ],
      "stateMutability": "view",
      "type": "function"
    },
    {
      "inputs": [
        {
          "internalType": "bytes32",
          "name": "role",
          "type": "bytes32"
        },
        {
          "internalType": "address",
          "name": "account",
          "type": "address"
        }
      ],
      "name": "grantRole",
      "outputs": [],
      "stateMutability": "nonpayable",
      "type": "function"
    },
    {
      "inputs": [
        {
          "internalType": "bytes32",
          "name": "role",
          "type": "bytes32"
        },
        {
          "internalType": "address",
          "name": "account",
          "type": "address"
        }
      ],
      "name": "hasRole",
      "outputs": [
        {
          "internalType": "bool",
          "name": "",
          "type": "bool"
        }
      ],
      "stateMutability": "view",
      "type": "function"
    },
    {
      "inputs": [
        {
          "components": [
            {
              "internalType": "uint32",
              "name": "srcEid",
              "type": "uint32"
            },
            {
              "internalType": "bytes32",
              "name": "sender",
              "type": "bytes32"
            },
            {
              "internalType": "uint64",
              "name": "nonce",
              "type": "uint64"
            }
          ],
          "internalType": "struct Origin",
          "name": "",
          "type": "tuple"
        },
        {
          "internalType": "bytes",
          "name": "",
          "type": "bytes"
        },
        {
          "internalType": "address",
          "name": "_sender",
          "type": "address"
        }
      ],
      "name": "isComposeMsgSender",
      "outputs": [
        {
          "internalType": "bool",
          "name": "",
          "type": "bool"
        }
      ],
      "stateMutability": "view",
      "type": "function"
    },
    {
      "inputs": [
        {
          "components": [
            {
              "internalType": "uint32",
              "name": "srcEid",
              "type": "uint32"
            },
            {
              "internalType": "bytes32",
              "name": "sender",
              "type": "bytes32"
            },
            {
              "internalType": "uint64",
              "name": "nonce",
              "type": "uint64"
            }
          ],
          "internalType": "struct Origin",
          "name": "_origin",
          "type": "tuple"
        },
        {
          "internalType": "bytes32",
          "name": "_guid",
          "type": "bytes32"
        },
        {
          "internalType": "bytes",
          "name": "_message",
          "type": "bytes"
        },
        {
          "internalType": "address",
          "name": "_executor",
          "type": "address"
        },
        {
          "internalType": "bytes",
          "name": "_extraData",
          "type": "bytes"
        }
      ],
      "name": "lzReceive",
      "outputs": [],
      "stateMutability": "payable",
      "type": "function"
    },
    {
      "inputs": [
        {
          "internalType": "uint256",
          "name": "customChainId",
          "type": "uint256"
        }
      ],
      "name": "nativeChainIds",
      "outputs": [
        {
          "internalType": "uint256",
          "name": "nativeChainId",
          "type": "uint256"
        }
      ],
      "stateMutability": "view",
      "type": "function"
    },
    {
      "inputs": [
        {
          "internalType": "uint32",
          "name": "",
          "type": "uint32"
        },
        {
          "internalType": "bytes32",
          "name": "",
          "type": "bytes32"
        }
      ],
      "name": "nextNonce",
      "outputs": [
        {
          "internalType": "uint64",
          "name": "nonce",
          "type": "uint64"
        }
      ],
      "stateMutability": "view",
      "type": "function"
    },
    {
      "inputs": [],
      "name": "oAppVersion",
      "outputs": [
        {
          "internalType": "uint64",
          "name": "senderVersion",
          "type": "uint64"
        },
        {
          "internalType": "uint64",
          "name": "receiverVersion",
          "type": "uint64"
        }
      ],
      "stateMutability": "pure",
      "type": "function"
    },
    {
      "inputs": [],
      "name": "owner",
      "outputs": [
        {
          "internalType": "address",
          "name": "",
          "type": "address"
        }
      ],
      "stateMutability": "view",
      "type": "function"
    },
    {
      "inputs": [
        {
          "internalType": "uint32",
          "name": "eid",
          "type": "uint32"
        }
      ],
      "name": "peers",
      "outputs": [
        {
          "internalType": "bytes32",
          "name": "peer",
          "type": "bytes32"
        }
      ],
      "stateMutability": "view",
      "type": "function"
    },
    {
      "inputs": [
        {
          "internalType": "uint256",
          "name": "_registryDst",
          "type": "uint256"
        },
        {
          "internalType": "bytes",
          "name": "_payload",
          "type": "bytes"
        }
      ],
      "name": "quote",
      "outputs": [
        {
          "internalType": "uint256",
          "name": "",
          "type": "uint256"
        }
      ],
      "stateMutability": "view",
      "type": "function"
    },
    {
      "inputs": [],
      "name": "registry",
      "outputs": [
        {
          "internalType": "contract ISingleIdentifierRegistry",
          "name": "",
          "type": "address"
        }
      ],
      "stateMutability": "view",
      "type": "function"
    },
    {
      "inputs": [],
      "name": "renounceOwnership",
      "outputs": [],
      "stateMutability": "nonpayable",
      "type": "function"
    },
    {
      "inputs": [
        {
          "internalType": "bytes32",
          "name": "role",
          "type": "bytes32"
        },
        {
          "internalType": "address",
          "name": "callerConfirmation",
          "type": "address"
        }
      ],
      "name": "renounceRole",
      "outputs": [],
      "stateMutability": "nonpayable",
      "type": "function"
    },
    {
      "inputs": [
        {
          "internalType": "bytes32",
          "name": "role",
          "type": "bytes32"
        },
        {
          "internalType": "address",
          "name": "account",
          "type": "address"
        }
      ],
      "name": "revokeRole",
      "outputs": [],
      "stateMutability": "nonpayable",
      "type": "function"
    },
    {
      "inputs": [],
      "name": "router",
      "outputs": [
        {
          "internalType": "contract SingleRouter",
          "name": "",
          "type": "address"
        }
      ],
      "stateMutability": "view",
      "type": "function"
    },
    {
      "inputs": [
        {
          "internalType": "uint256",
          "name": "_registryDst",
          "type": "uint256"
        },
        {
          "internalType": "bytes",
          "name": "_payload",
          "type": "bytes"
        }
      ],
      "name": "sendMessage",
      "outputs": [],
      "stateMutability": "payable",
      "type": "function"
    },
    {
      "inputs": [
        {
          "internalType": "uint256",
          "name": "_nativeChainId",
          "type": "uint256"
        },
        {
          "internalType": "uint256",
          "name": "_customChainId",
          "type": "uint256"
        }
      ],
      "name": "setChainId",
      "outputs": [],
      "stateMutability": "nonpayable",
      "type": "function"
    },
    {
      "inputs": [
        {
          "internalType": "uint256[]",
          "name": "_nativeChainIds",
          "type": "uint256[]"
        },
        {
          "internalType": "uint256[]",
          "name": "_customChainIds",
          "type": "uint256[]"
        }
      ],
      "name": "setChainIds",
      "outputs": [],
      "stateMutability": "nonpayable",
      "type": "function"
    },
    {
      "inputs": [
        {
          "internalType": "uint32",
          "name": "_connectorId",
          "type": "uint32"
        }
      ],
      "name": "setConnectorId",
      "outputs": [],
      "stateMutability": "nonpayable",
      "type": "function"
    },
    {
      "inputs": [
        {
          "internalType": "address",
          "name": "_delegate",
          "type": "address"
        }
      ],
      "name": "setDelegate",
      "outputs": [],
      "stateMutability": "nonpayable",
      "type": "function"
    },
    {
      "inputs": [
        {
          "internalType": "uint128",
          "name": "_gasLimit",
          "type": "uint128"
        }
      ],
      "name": "setGasLimit",
      "outputs": [],
      "stateMutability": "nonpayable",
      "type": "function"
    },
    {
      "inputs": [
        {
          "internalType": "uint32",
          "name": "_eid",
          "type": "uint32"
        },
        {
          "internalType": "bytes32",
          "name": "_peer",
          "type": "bytes32"
        }
      ],
      "name": "setPeer",
      "outputs": [],
      "stateMutability": "nonpayable",
      "type": "function"
    },
    {
      "inputs": [
        {
          "internalType": "address",
          "name": "_registry",
          "type": "address"
        }
      ],
      "name": "setRegistry",
      "outputs": [],
      "stateMutability": "nonpayable",
      "type": "function"
    },
    {
      "inputs": [
        {
          "internalType": "address",
          "name": "_router",
          "type": "address"
        }
      ],
      "name": "setRouter",
      "outputs": [],
      "stateMutability": "nonpayable",
      "type": "function"
    },
    {
      "inputs": [
        {
          "internalType": "bytes4",
          "name": "selector",
          "type": "bytes4"
        }
      ],
      "name": "supportMethod",
      "outputs": [
        {
          "internalType": "bool",
          "name": "",
          "type": "bool"
        }
      ],
      "stateMutability": "pure",
      "type": "function"
    },
    {
      "inputs": [
        {
          "internalType": "bytes4",
          "name": "interfaceId",
          "type": "bytes4"
        }
      ],
      "name": "supportsInterface",
      "outputs": [
        {
          "internalType": "bool",
          "name": "",
          "type": "bool"
        }
      ],
      "stateMutability": "view",
      "type": "function"
    },
    {
      "inputs": [
        {
          "internalType": "address",
          "name": "newOwner",
          "type": "address"
        }
      ],
      "name": "transferOwnership",
      "outputs": [],
      "stateMutability": "nonpayable",
      "type": "function"
    }
  ],
  "transactionHash": "0x069b021a10a686ef876ebbcb970bbbe29e397fd4844109f8299b3b30182593cd",
  "args": [
    "0x6EDCE65403992e310A62460808c4b910D972f10f",
    "0x0d0D5Ff3cFeF8B7B2b1cAC6B6C27Fd0846c09361",
    "0x381c031bAA5995D0Cc52386508050Ac947780815",
    "0x009DBFEe9E155766AF434ED1652CA3769B05E76f",
    50000
  ],
  "numDeployments": 1,
  "solcInputHash": "0cbf7cfbe136b839052e6e1e71a1c86a",
  "bytecode": "0x60a0346200028557601f6200240e38819003918201601f1916830192916001600160401b0391828511848610176200028a578160a0928592604097885283398101031262000285576200005282620002a0565b6200006060208401620002a0565b6200006d858501620002a0565b9360806200007e60608301620002a0565b9101516001600160801b03811695908690036200028557620000b890620000a584620002b5565b50620000b13362000335565b5062000335565b506001600160a01b039081169182156200027457600280546001600160a01b0319908116909417905581169283156200025c5783600554938416176005558382600094167f8be0079c531659141344cd1fd0a4f28419497f9722a3daafe3b4186f6b6457e08580a3169283608052833b15620002585785519263ca5eb5e160e01b84526004840152818360248183885af180156200024e5762000227575b50505015620001ee578015620001dd57600780546001600160801b0319168217905581519081527f1c71b0b8c071240d5960f42aa433d532b00a347608de270d2200adece7cc09a490602090a1516120169081620003d882396080518181816104810152818161086a01528181610b2c01528181610f220152818161112f0152611e050152f35b8151632b2acf8b60e01b8152600490fd5b815162461bcd60e51b81526020600482015260126024820152715a65726f206164647265737320636865636b60701b6044820152606490fd5b82116200023a5750835238808062000156565b634e487b7160e01b81526041600452602490fd5b86513d84823e3d90fd5b5080fd5b8651631e4fbdf760e01b815260006004820152602490fd5b865163867915ab60e01b8152600490fd5b600080fd5b634e487b7160e01b600052604160045260246000fd5b51906001600160a01b03821682036200028557565b6001600160a01b031660008181527fad3228b676f7d3cd4284a5443f17f1962b36e491b30a40b2405849e597ba5fb5602052604081205490919060ff166200033157818052816020526040822081835260205260408220600160ff198254161790553391600080516020620023ee8339815191528180a4600190565b5090565b6001600160a01b031660008181527fee57cd81e84075558e8fcc182a1f4393f91fc97f963a136e66b7f949a62f319f60205260408120549091907f97667070c54ef182b0f5858b034beac1b6f3089aa2d3188bb1e8929f4fa9b9299060ff16620003d257808352826020526040832082845260205260408320600160ff19825416179055600080516020620023ee833981519152339380a4600190565b50509056fe6080604052600436101561001257600080fd5b60003560e01c806301ffc9a7146102475780630c6a04371461024257806313137d651461023d57806317442b701461023857806321f93b1e14610233578063248a9ca31461022e5780632f2ff15d146102295780633400288b1461022457806336568abe1461021f57806337528ffa1461021a5780633e42d4a4146102155780635e280f11146102105780636d4c9cd61461020b578063715018a61461020657806377d2b771146102015780637b103999146101fc5780637d25a05e146101f757806382413eac146101f25780638da5cb5b146101ed57806391d14854146101e8578063a1da9dae146101e3578063a217fddf146101de578063a91ee0dc146101d9578063b00899cf146101d4578063b3d63288146101cf578063bb0b6a53146101ca578063c0d78655146101c5578063ca5eb5e1146101c0578063d547741f146101bb578063e289adcd146101b6578063f2fde38b146101b1578063f5b541a6146101ac578063f68016b7146101a7578063f887ea40146101a25763ff7bd03d1461019d57600080fd5b6112de565b6112b5565b61128e565b611253565b6111c1565b610fcc565b610f8a565b610ef1565b610e84565b610e49565b610e22565b610df6565b610d77565b610d5b565b610cd7565b610c81565b610c58565b610bfa565b610bd3565b610baa565b610a53565b6108c5565b610899565b610854565b610829565b610796565b61074b565b6106c4565b610674565b610645565b610608565b6105e6565b610423565b6102ec565b610274565b602090600319011261026f576004356001600160e01b03198116810361026f5790565b600080fd5b3461026f5760206001600160e01b031961028d3661024c565b16637965db0b60e01b81149081156102ab575b506040519015158152f35b6301ffc9a760e01b149050386102a0565b9181601f8401121561026f578235916001600160401b03831161026f576020808501948460051b01011161026f57565b3461026f57604036600319011261026f576001600160401b0360043581811161026f5761031d9036906004016102bc565b909160243590811161026f576103379036906004016102bc565b905061034161134c565b81036103965760005b81811061035357005b8061039061036d6001936000526003602052604060002090565b548260051b86013581600052600460205280604060002055600052604060002055565b0161034a565b60405162461bcd60e51b815260206004820152601660248201527524b73b30b634b21030b93930bcb9903632b733ba341760511b6044820152606490fd5b606090600319011261026f57600490565b9181601f8401121561026f578235916001600160401b03831161026f576020838186019501011161026f57565b6001600160a01b0381160361026f57565b60e036600319011261026f57610438366103d4565b6001600160401b0360843581811161026f576104589036906004016103e5565b9161046460a435610412565b60c43590811161026f5761047c9036906004016103e5565b5050337f00000000000000000000000000000000000000000000000000000000000000006001600160a01b0316036105c3578260206104d66104c061052f96611324565b63ffffffff166000526004602052604060002090565b546001546104f4906001600160a01b03165b6001600160a01b031690565b60025460a01c63ffffffff1660405180988194829363bd3eb98f60e01b8452600484016020909392919363ffffffff60408201951681520152565b03915afa9384156105be5760009461058d575b50602081013580940361055b576105598383611505565b005b6105658491611324565b60405163309afaf360e21b815263ffffffff9190911660048201526024810191909152604490fd5b6105b091945060203d6020116105b7575b6105a881836109a5565b810190611331565b9238610542565b503d61059e565b611340565b6040516391ac5e4f60e01b8152336004820152602490fd5b600091031261026f57565b3461026f57600036600319011261026f57604080516001815260026020820152f35b3461026f57604036600319011261026f5761062161134c565b61055960243560043581600052600460205280604060002055600052604060002055565b3461026f57602036600319011261026f5760043560005260006020526020600160406000200154604051908152f35b3461026f57604036600319011261026f5761055960243560043561069782610412565b8060005260006020526106b16001604060002001546113c8565b611622565b63ffffffff81160361026f57565b3461026f57604036600319011261026f577f238399d427b947898edb290f5ff0f9109849b1c3ba196a42e35f00c50a54b98b600435610702816106b6565b6024359061070e6116b3565b63ffffffff8116600052600660205281604060002055610746604051928392836020909392919363ffffffff60408201951681520152565b0390a1005b3461026f57604036600319011261026f5760243561076881610412565b336001600160a01b0382160361078457610559906004356116df565b60405163334bd91960e11b8152600490fd5b3461026f57602036600319011261026f576004356107b3816106b6565b6001546001600160a01b03163303610811576002805463ffffffff60a01b191660a083901b63ffffffff60a01b1617905563ffffffff167f47333240c37caed3a1253ddbea098806bb1baf7280274b495d478f95b28dd06d600080a2005b604051633d5e603f60e01b8152336004820152602490fd5b3461026f5760206313137d6560e01b6001600160e01b031961084a3661024c565b1614604051908152f35b3461026f57600036600319011261026f576040517f00000000000000000000000000000000000000000000000000000000000000006001600160a01b03168152602090f35b3461026f57602036600319011261026f5760043560005260036020526020604060002054604051908152f35b3461026f57600080600319360112610923576108df6116b3565b600580546001600160a01b0319811690915581906001600160a01b03167f8be0079c531659141344cd1fd0a4f28419497f9722a3daafe3b4186f6b6457e08280a380f35b80fd5b634e487b7160e01b600052604160045260246000fd5b6001600160401b03811161094f57604052565b610926565b604081019081106001600160401b0382111761094f57604052565b606081019081106001600160401b0382111761094f57604052565b60a081019081106001600160401b0382111761094f57604052565b90601f801991011681019081106001600160401b0382111761094f57604052565b604051906109d38261098a565b565b60405190608082018281106001600160401b0382111761094f57604052565b604051906109d38261096f565b6001600160401b03811161094f57601f01601f191660200190565b929192610a2882610a01565b91610a3660405193846109a5565b82948184528183011161026f578281602093846000960137010152565b3461026f5760408060031936011261026f57602435906001600160401b03821161026f573660238301121561026f5780610a9a610b28933690602481600401359101610a1c565b600435600052600360205263ffffffff82600020541690610ace610abc611768565b6001600160801b036007541690611782565b90610ad761184e565b50610ae183611d94565b610af8610aec6109c6565b63ffffffff9095168552565b602084015283830152606082015260006080820152815180948192631bb8518b60e31b83523090600484016118a3565b03817f00000000000000000000000000000000000000000000000000000000000000006001600160a01b03165afa80156105be57610b7992600091610b7d575b505190519081529081906020820190565b0390f35b610b9d9150823d8411610ba3575b610b9581836109a5565b81019061188f565b38610b68565b503d610b8b565b3461026f57600036600319011261026f576002546040516001600160a01b039091168152602090f35b3461026f57604036600319011261026f57610bef6004356106b6565b602060405160008152f35b3461026f5760a036600319011261026f57610c14366103d4565b506064356001600160401b03811161026f57610c349036906004016103e5565b50506020608435610c4481610412565b6040516001600160a01b0390911630148152f35b3461026f57600036600319011261026f576005546040516001600160a01b039091168152602090f35b3461026f57604036600319011261026f57602060ff610ccb602435610ca581610412565b6004356000526000845260406000209060018060a01b0316600052602052604060002090565b54166040519015158152f35b3461026f57602036600319011261026f576004356001600160801b03811680910361026f57610d046116b3565b8015610d49576020817f1c71b0b8c071240d5960f42aa433d532b00a347608de270d2200adece7cc09a4926001600160801b03196007541617600755604051908152a1005b604051632b2acf8b60e01b8152600490fd5b3461026f57600036600319011261026f57602060405160008152f35b3461026f57602036600319011261026f57600435610d9481610412565b610d9c61134c565b6001600160a01b03168015610de457600280546001600160a01b031916821790557f278c70ced5f3e0e5eeb385b5ff9cb735748ba00a625147e66065ed48fc1562cd600080a2005b60405163867915ab60e01b8152600490fd5b3461026f57602036600319011261026f5760043560005260046020526020604060002054604051908152f35b3461026f57600036600319011261026f57602063ffffffff60025460a01c16604051908152f35b3461026f57602036600319011261026f5763ffffffff600435610e6b816106b6565b1660005260066020526020604060002054604051908152f35b3461026f57602036600319011261026f57600435610ea181610412565b610ea961134c565b6001600160a01b03168015610de457600180546001600160a01b031916821790557f6de4326a8b9054d72d9dbab97d27bc4edffadee7d966f5af9cc4eafdaf8e5455600080a2005b3461026f576000602036600319011261092357600435610f1081610412565b610f186116b3565b6001600160a01b037f0000000000000000000000000000000000000000000000000000000000000000811691839190833b15610f865760249083604051958694859363ca5eb5e160e01b85521660048401525af180156105be57610f7a575080f35b610f839061093c565b80f35b8280fd5b3461026f57604036600319011261026f57610559602435600435610fad82610412565b806000526000602052610fc76001604060002001546113c8565b6116df565b60408060031936011261026f576024356001600160401b03811161026f57610ff89036906004016103e5565b611003610abc611768565b926000936004358552602091600383526110c363ffffffff8288205416936110546110448451986110338a610954565b348a52838a01988b8a523691610a1c565b9761104d611911565b5051611dcc565b938651806111b2575b5081611073876000526004602052604060002090565b54600154611089906001600160a01b03166104e8565b60025460a01c63ffffffff16875180978194829363bd3eb98f60e01b8452600484016020909392919363ffffffff60408201951681520152565b03915afa9788156105be5761112b98608098611110958c92611193575b50511515936110fc6110f06109c6565b63ffffffff909a168a52565b880152848701526060860152151585850152565b5180809581946302637a4560e41b83523390600484016118a3565b03917f00000000000000000000000000000000000000000000000000000000000000006001600160a01b03165af180156105be57611167575080f35b6111889060803d60801161118c575b61118081836109a5565b81019061194d565b5080f35b503d611176565b6111ab919250853d87116105b7576105a881836109a5565b90386110e0565b6111bb90611dee565b3861105d565b3461026f57602036600319011261026f576004356111de81610412565b6111e66116b3565b6001600160a01b0390811690811561123a57600554826bffffffffffffffffffffffff60a01b821617600555167f8be0079c531659141344cd1fd0a4f28419497f9722a3daafe3b4186f6b6457e0600080a3005b604051631e4fbdf760e01b815260006004820152602490fd5b3461026f57600036600319011261026f5760206040517f97667070c54ef182b0f5858b034beac1b6f3089aa2d3188bb1e8929f4fa9b9298152f35b3461026f57600036600319011261026f5760206001600160801b0360075416604051908152f35b3461026f57600036600319011261026f576001546040516001600160a01b039091168152602090f35b3461026f57606036600319011261026f5760206112fa366103d4565b63ffffffff813561130a816106b6565b166000526006825260406000205482604051920135148152f35b3561132e816106b6565b90565b9081602091031261026f575190565b6040513d6000823e3d90fd5b3360009081527fee57cd81e84075558e8fcc182a1f4393f91fc97f963a136e66b7f949a62f319f602052604090207f97667070c54ef182b0f5858b034beac1b6f3089aa2d3188bb1e8929f4fa9b9299060ff905b5416156113aa5750565b6044906040519063e2517d3f60e01b82523360048301526024820152fd5b600081815260208181526040808320338452909152902060ff906113a0565b600211156113f157565b634e487b7160e01b600052602160045260246000fd5b60005b83811061141a5750506000910152565b818101518382015260200161140a565b9060209161144381518092818552858086019101611407565b601f01601f1916010190565b9061132e9160208152815160208201526001600160401b036020830151166040820152606061148c604084015160808385015260a084019061142a565b920151906080601f198285030191015261142a565b9061132e91602081528151602082015260018060a01b0360208301511660408201526001600160401b03604083015116606082015260806114f0606084015160a08385015260c084019061142a565b9201519060a0601f198285030191015261142a565b61151490611519923691610a1c565b611b51565b8051611524816113e7565b61152d816113e7565b61159f57600254602090611549906001600160a01b03166104e8565b91015190803b1561026f5760405163797266f560e11b815291600091839182908490829061157a90600483016114a1565b03925af180156105be5761158c575b50565b806115996109d39261093c565b806105db565b600181516115ac816113e7565b6115b5816113e7565b146115bd5750565b6002546040906115d5906001600160a01b03166104e8565b91015190803b1561026f576040516328f2f2c960e21b8152916000918391829084908290611606906004830161144f565b03925af180156105be571561158957806115996109d39261093c565b6000818152602081815260408083206001600160a01b038616845290915281205490919060ff166116ad57808252602082815260408084206001600160a01b038616600090815292529020805460ff1916600117905533926001600160a01b0316917f2f8788117e7eff1d82e926ec794901d17c78024a50270940304540a733656f0d9080a4600190565b50905090565b6005546001600160a01b031633036116c757565b60405163118cdaa760e01b8152336004820152602490fd5b6000818152602081815260408083206001600160a01b038616845290915281205490919060ff16156116ad57808252602082815260408084206001600160a01b038616600090815292529020805460ff1916905533926001600160a01b0316917ff6391f5c32d9c69d2a47ea670b442974b53935d1edc7fd64eb21e047a839171b9080a4600190565b604051600360f01b60208201526002815261132e81610954565b9061ffff9160038361179383611cf3565b160361182c57604051916001600160801b03199060801b166020830152601082526117bd82610954565b6003836117c983611cf3565b160361182c57815183811161180d578316600101928311611808576117fa61132e9260405194859360208501611d3f565b03601f1981018352826109a5565b611cdd565b604490604051906306dfcc6560e41b8252601060048301526024820152fd5b82611838602492611cf3565b604051633a51740d60e01b815291166004820152fd5b6040519061185b82610954565b60006020838281520152565b919082604091031261026f5760405161187f81610954565b6020808294805184520151910152565b9060408282031261026f5761132e91611867565b906020909392936040835263ffffffff815116604084015281810151606084015260806118f76118e1604084015160a08488015260e087019061142a565b6060840151868203603f190160a088015261142a565b910151151560c08401526001600160a01b03909416910152565b6040519061191e8261096f565b816000815260006020820152604061193461184e565b910152565b51906001600160401b038216820361026f57565b9060808282031261026f5761198590604080519361196a8561096f565b8051855261197a60208201611939565b602086015201611867565b604082015290565b604090815161199b8161096f565b8092600091828152815160a08101936001600160401b03948281108682111761094f57845280825280602083015280848301526060918280820152826080820152602084015283519460808601908682109082111761094f57845280855260208501528083850152808401520152565b519060ff8216820361026f57565b81601f8201121561026f578051611a2f81610a01565b92611a3d60405194856109a5565b8184526020828401011161026f5761132e9160208085019101611407565b91909160a08184031261026f57611a7181611a0b565b92602082015192611a8460408401611939565b926060810151926001600160401b039384811161026f5781611aa7918401611a19565b93608083015190811161026f5761132e9201611a19565b60405190602082018281106001600160401b0382111761094f5760405260008252565b9160c08383031261026f57611af583611a0b565b926020810151926040820151611b0a81610412565b92611b1760608401611939565b926080810151926001600160401b039384811161026f5781611b3a918401611a19565b9360a083015190811161026f5761132e9201611a19565b611b5961198d565b5060ff60018201511660018114600014611c0b5750611bba611b8782602080611baa95518301019101611ae1565b9593969192909450611b976109c6565b9687526001600160a01b03166020870152565b6001600160401b03166040850152565b60608301526080820152611bcc6109d5565b6000815260006020820152611bdf611abe565b6040820152611bec611abe565b6060820152611bf96109f4565b91600083526020830152604082015290565b600203611ca157611c2881602080611c4894518301019101611a5b565b9350919390611c356109d5565b9485526001600160401b03166020850152565b60408301526060820152611c5a6109c6565b90600082526000602083015260006040830152611c75611abe565b6060830152611c82611abe565b6080830152611c8f6109f4565b60018152916020830152604082015290565b60405162461bcd60e51b8152602060048201526014602482015273556e6b6e6f776e206d657373616765207479706560601b6044820152606490fd5b634e487b7160e01b600052601160045260246000fd5b6002815110611d03576002015190565b60405162461bcd60e51b8152602060048201526014602482015273746f55696e7431365f6f75744f66426f756e647360601b6044820152606490fd5b602090611d56600495949382815194859201611407565b600160f81b910181815260f09290921b6001600160f01b03191660018301526003820152815191611d8f90839085840190602001611407565b010190565b63ffffffff16806000526006602052604060002054908115611db4575090565b6024906040519063f6ff4fb760e01b82526004820152fd5b803403611dd65790565b6040516304fb820960e51b8152346004820152602490fd5b60405163393f876560e21b81526001600160a01b037f00000000000000000000000000000000000000000000000000000000000000008116926020929091908381600481885afa9081156105be57600091611f2f575b5016928315611f1d5760008091611eb99360405190868201926323b872dd60e01b84523360248401526044830152606482015260648152611e848161098a565b519082875af13d15611f15573d90611e9b82610a01565b91611ea960405193846109a5565b82523d60008584013e5b84611f7d565b908151918215159182611ef5575b50509050611ed25750565b604051635274afe760e01b81526001600160a01b03919091166004820152602490fd5b611f09925080611f0d948301019101611f65565b1590565b803880611ec7565b606090611eb3565b6040516329b99a9560e11b8152600490fd5b90508381813d8311611f5e575b611f4681836109a5565b8101031261026f5751611f5881610412565b38611e44565b503d611f3c565b9081602091031261026f5751801515810361026f5790565b90611fa45750805115611f9257805190602001fd5b604051630a12f52160e11b8152600490fd5b81511580611fd7575b611fb5575090565b604051639996b31560e01b81526001600160a01b039091166004820152602490fd5b50803b15611fad56fea264697066735822122076b64c03af406066db127db501e333ad49db51d2cbd9c3b9bb0d1cbe7e5b2d3664736f6c634300081800332f8788117e7eff1d82e926ec794901d17c78024a50270940304540a733656f0d",
  "devdoc": {
    "errors": {
      "AccessControlBadConfirmation()": [
        {
          "details": "The caller of a function is not the expected one. NOTE: Don't confuse with {AccessControlUnauthorizedAccount}."
        }
      ],
      "AccessControlUnauthorizedAccount(address,bytes32)": [
        {
          "details": "The `account` is missing a role."
        }
      ],
      "AddressEmptyCode(address)": [
        {
          "details": "There's no code at `target` (it is not a contract)."
        }
      ],
      "AddressInsufficientBalance(address)": [
        {
          "details": "The ETH balance of the account is not enough to perform the operation."
        }
      ],
      "FailedInnerCall()": [
        {
          "details": "A call to an address target failed. The target may have reverted."
        }
      ],
      "OwnableInvalidOwner(address)": [
        {
          "details": "The owner is not a valid owner account. (eg. `address(0)`)"
        }
      ],
      "OwnableUnauthorizedAccount(address)": [
        {
          "details": "The caller account is not authorized to perform an operation."
        }
      ],
      "SafeCastOverflowedUintDowncast(uint8,uint256)": [
        {
          "details": "Value doesn't fit in an uint of `bits` size."
        }
      ],
      "SafeERC20FailedOperation(address)": [
        {
          "details": "An operation with an ERC20 token failed."
        }
      ]
    },
    "events": {
      "RoleAdminChanged(bytes32,bytes32,bytes32)": {
        "details": "Emitted when `newAdminRole` is set as ``role``'s admin role, replacing `previousAdminRole` `DEFAULT_ADMIN_ROLE` is the starting admin for all roles, despite {RoleAdminChanged} not being emitted signaling this."
      },
      "RoleGranted(bytes32,address,address)": {
        "details": "Emitted when `account` is granted `role`. `sender` is the account that originated the contract call, an admin role bearer except when using {AccessControl-_setupRole}."
      },
      "RoleRevoked(bytes32,address,address)": {
        "details": "Emitted when `account` is revoked `role`. `sender` is the account that originated the contract call:   - if using `revokeRole`, it is the admin role bearer   - if using `renounceRole`, it is the role bearer (i.e. `account`)"
      }
    },
    "kind": "dev",
    "methods": {
      "allowInitializePath((uint32,bytes32,uint64))": {
        "details": "This indicates to the endpoint that the OApp has enabled msgs for this particular path to be received.This defaults to assuming if a peer has been set, its initialized. Can be overridden by the OApp if there is other logic to determine this.",
        "params": {
          "origin": "The origin information containing the source endpoint and sender address."
        },
        "returns": {
          "_0": "Whether the path has been initialized."
        }
      },
      "getRoleAdmin(bytes32)": {
        "details": "Returns the admin role that controls `role`. See {grantRole} and {revokeRole}. To change a role's admin, use {_setRoleAdmin}."
      },
      "grantRole(bytes32,address)": {
        "details": "Grants `role` to `account`. If `account` had not been already granted `role`, emits a {RoleGranted} event. Requirements: - the caller must have ``role``'s admin role. May emit a {RoleGranted} event."
      },
      "hasRole(bytes32,address)": {
        "details": "Returns `true` if `account` has been granted `role`."
      },
      "isComposeMsgSender((uint32,bytes32,uint64),bytes,address)": {
        "details": "_origin The origin information containing the source endpoint and sender address.  - srcEid: The source chain endpoint ID.  - sender: The sender address on the src chain.  - nonce: The nonce of the message._message The lzReceive payload.Applications can optionally choose to implement separate composeMsg senders that are NOT the bridging layer.The default sender IS the OAppReceiver implementer.",
        "params": {
          "_sender": "The sender address."
        },
        "returns": {
          "_0": "isSender Is a valid sender."
        }
      },
      "lzReceive((uint32,bytes32,uint64),bytes32,bytes,address,bytes)": {
        "details": "Entry point for receiving messages or packets from the endpoint.Entry point for receiving msg/packet from the LayerZero endpoint.",
        "params": {
          "_executor": "The address of the executor for the received message.",
          "_extraData": "Additional arbitrary data provided by the corresponding executor.",
          "_guid": "The unique identifier for the received LayerZero message.",
          "_message": "The payload of the received message.",
          "_origin": "The origin information containing the source endpoint and sender address.  - srcEid: The source chain endpoint ID.  - sender: The sender address on the src chain.  - nonce: The nonce of the message."
        }
      },
      "nextNonce(uint32,bytes32)": {
        "details": "_srcEid The source endpoint ID._sender The sender address.The path nonce starts from 1. If 0 is returned it means that there is NO nonce ordered enforcement.Is required by the off-chain executor to determine the OApp expects msg execution is ordered.This is also enforced by the OApp.By default this is NOT enabled. ie. nextNonce is hardcoded to return 0.",
        "returns": {
          "nonce": "The next nonce."
        }
      },
      "oAppVersion()": {
        "returns": {
          "receiverVersion": "The version of the OAppReceiver.sol implementation.",
          "senderVersion": "The version of the OAppSender.sol implementation."
        }
      },
      "owner()": {
        "details": "Returns the address of the current owner."
      },
      "renounceOwnership()": {
        "details": "Leaves the contract without owner. It will not be possible to call `onlyOwner` functions. Can only be called by the current owner. NOTE: Renouncing ownership will leave the contract without an owner, thereby disabling any functionality that is only available to the owner."
      },
      "renounceRole(bytes32,address)": {
        "details": "Revokes `role` from the calling account. Roles are often managed via {grantRole} and {revokeRole}: this function's purpose is to provide a mechanism for accounts to lose their privileges if they are compromised (such as when a trusted device is misplaced). If the calling account had been revoked `role`, emits a {RoleRevoked} event. Requirements: - the caller must be `callerConfirmation`. May emit a {RoleRevoked} event."
      },
      "revokeRole(bytes32,address)": {
        "details": "Revokes `role` from `account`. If `account` had been granted `role`, emits a {RoleRevoked} event. Requirements: - the caller must have ``role``'s admin role. May emit a {RoleRevoked} event."
      },
      "setDelegate(address)": {
        "details": "Only the owner/admin of the OApp can call this function.Provides the ability for a delegate to set configs, on behalf of the OApp, directly on the Endpoint contract.",
        "params": {
          "_delegate": "The address of the delegate to be set."
        }
      },
      "setPeer(uint32,bytes32)": {
        "details": "Only the owner/admin of the OApp can call this function.Indicates that the peer is trusted to send LayerZero messages to this OApp.Set this to bytes32(0) to remove the peer address.Peer is a bytes32 to accommodate non-evm chains.",
        "params": {
          "_eid": "The endpoint ID.",
          "_peer": "The address of the peer to be associated with the corresponding endpoint."
        }
      },
      "supportsInterface(bytes4)": {
        "details": "See {IERC165-supportsInterface}."
      },
      "transferOwnership(address)": {
        "details": "Transfers ownership of the contract to a new account (`newOwner`). Can only be called by the current owner."
      }
    },
    "version": 1
  },
  "userdoc": {
    "kind": "user",
    "methods": {
      "allowInitializePath((uint32,bytes32,uint64))": {
        "notice": "Checks if the path initialization is allowed based on the provided origin."
      },
      "endpoint()": {
        "notice": "Retrieves the LayerZero endpoint associated with the OApp."
      },
      "isComposeMsgSender((uint32,bytes32,uint64),bytes,address)": {
        "notice": "Indicates whether an address is an approved composeMsg sender to the Endpoint."
      },
      "nextNonce(uint32,bytes32)": {
        "notice": "Retrieves the next nonce for a given source endpoint and sender address."
      },
      "oAppVersion()": {
        "notice": "Retrieves the OApp version information."
      },
      "peers(uint32)": {
        "notice": "Retrieves the peer (OApp) associated with a corresponding endpoint."
      },
      "setDelegate(address)": {
        "notice": "Sets the delegate address for the OApp."
      },
      "setPeer(uint32,bytes32)": {
        "notice": "Sets the peer address (OApp instance) for a corresponding endpoint."
      }
    },
    "version": 1
  },
  "storageLayout": {
    "storage": [
      {
        "astId": 4918,
        "contract": "contracts/connectors/LayerZeroConnector.sol:LayerZeroConnector",
        "label": "_roles",
        "offset": 0,
        "slot": "0",
        "type": "t_mapping(t_bytes32,t_struct(RoleData)4913_storage)"
      },
      {
        "astId": 12454,
        "contract": "contracts/connectors/LayerZeroConnector.sol:LayerZeroConnector",
        "label": "router",
        "offset": 0,
        "slot": "1",
        "type": "t_contract(SingleRouter)12434"
      },
      {
        "astId": 12457,
        "contract": "contracts/connectors/LayerZeroConnector.sol:LayerZeroConnector",
        "label": "registry",
        "offset": 0,
        "slot": "2",
        "type": "t_contract(ISingleIdentifierRegistry)13683"
      },
      {
        "astId": 12459,
        "contract": "contracts/connectors/LayerZeroConnector.sol:LayerZeroConnector",
        "label": "connectorId",
        "offset": 20,
        "slot": "2",
        "type": "t_uint32"
      },
      {
        "astId": 12463,
        "contract": "contracts/connectors/LayerZeroConnector.sol:LayerZeroConnector",
        "label": "customChainIds",
        "offset": 0,
        "slot": "3",
        "type": "t_mapping(t_uint256,t_uint256)"
      },
      {
        "astId": 12467,
        "contract": "contracts/connectors/LayerZeroConnector.sol:LayerZeroConnector",
        "label": "nativeChainIds",
        "offset": 0,
        "slot": "4",
        "type": "t_mapping(t_uint256,t_uint256)"
      },
      {
        "astId": 5279,
        "contract": "contracts/connectors/LayerZeroConnector.sol:LayerZeroConnector",
        "label": "_owner",
        "offset": 0,
        "slot": "5",
        "type": "t_address"
      },
      {
        "astId": 2014,
        "contract": "contracts/connectors/LayerZeroConnector.sol:LayerZeroConnector",
        "label": "peers",
        "offset": 0,
        "slot": "6",
        "type": "t_mapping(t_uint32,t_bytes32)"
      },
      {
        "astId": 13091,
        "contract": "contracts/connectors/LayerZeroConnector.sol:LayerZeroConnector",
        "label": "gasLimit",
        "offset": 0,
        "slot": "7",
        "type": "t_uint128"
      }
    ],
    "types": {
      "t_address": {
        "encoding": "inplace",
        "label": "address",
        "numberOfBytes": "20"
      },
      "t_bool": {
        "encoding": "inplace",
        "label": "bool",
        "numberOfBytes": "1"
      },
      "t_bytes32": {
        "encoding": "inplace",
        "label": "bytes32",
        "numberOfBytes": "32"
      },
      "t_contract(ISingleIdentifierRegistry)13683": {
        "encoding": "inplace",
        "label": "contract ISingleIdentifierRegistry",
        "numberOfBytes": "20"
      },
      "t_contract(SingleRouter)12434": {
        "encoding": "inplace",
        "label": "contract SingleRouter",
        "numberOfBytes": "20"
      },
      "t_mapping(t_address,t_bool)": {
        "encoding": "mapping",
        "key": "t_address",
        "label": "mapping(address => bool)",
        "numberOfBytes": "32",
        "value": "t_bool"
      },
      "t_mapping(t_bytes32,t_struct(RoleData)4913_storage)": {
        "encoding": "mapping",
        "key": "t_bytes32",
        "label": "mapping(bytes32 => struct AccessControl.RoleData)",
        "numberOfBytes": "32",
        "value": "t_struct(RoleData)4913_storage"
      },
      "t_mapping(t_uint256,t_uint256)": {
        "encoding": "mapping",
        "key": "t_uint256",
        "label": "mapping(uint256 => uint256)",
        "numberOfBytes": "32",
        "value": "t_uint256"
      },
      "t_mapping(t_uint32,t_bytes32)": {
        "encoding": "mapping",
        "key": "t_uint32",
        "label": "mapping(uint32 => bytes32)",
        "numberOfBytes": "32",
        "value": "t_bytes32"
      },
      "t_struct(RoleData)4913_storage": {
        "encoding": "inplace",
        "label": "struct AccessControl.RoleData",
        "members": [
          {
            "astId": 4910,
            "contract": "contracts/connectors/LayerZeroConnector.sol:LayerZeroConnector",
            "label": "hasRole",
            "offset": 0,
            "slot": "0",
            "type": "t_mapping(t_address,t_bool)"
          },
          {
            "astId": 4912,
            "contract": "contracts/connectors/LayerZeroConnector.sol:LayerZeroConnector",
            "label": "adminRole",
            "offset": 0,
            "slot": "1",
            "type": "t_bytes32"
          }
        ],
        "numberOfBytes": "64"
      },
      "t_uint128": {
        "encoding": "inplace",
        "label": "uint128",
        "numberOfBytes": "16"
      },
      "t_uint256": {
        "encoding": "inplace",
        "label": "uint256",
        "numberOfBytes": "32"
      },
      "t_uint32": {
        "encoding": "inplace",
        "label": "uint32",
        "numberOfBytes": "4"
      }
    }
  }
}