{
  "address": "0xc57a177A15Eba09A451Ebd5715e2EC10BEd141F4",
  "abi": [
    {
      "inputs": [
        {
          "internalType": "address",
          "name": "_admin",
          "type": "address"
        },
        {
          "internalType": "address",
          "name": "_operator",
          "type": "address"
        },
        {
          "internalType": "address",
          "name": "_registry",
          "type": "address"
        }
      ],
      "stateMutability": "nonpayable",
      "type": "constructor"
    },
    {
      "inputs": [],
      "name": "AccessControlBadConfirmation",
      "type": "error"
    },
    {
      "inputs": [
        {
          "internalType": "address",
          "name": "account",
          "type": "address"
        },
        {
          "internalType": "bytes32",
          "name": "neededRole",
          "type": "bytes32"
        }
      ],
      "name": "AccessControlUnauthorizedAccount",
      "type": "error"
    },
    {
      "inputs": [],
      "name": "AddressIsZero",
      "type": "error"
    },
    {
      "inputs": [
        {
          "internalType": "uint32",
          "name": "eid",
          "type": "uint32"
        },
        {
          "internalType": "address",
          "name": "sender",
          "type": "address"
        }
      ],
      "name": "SenderIsNotPeer",
      "type": "error"
    },
    {
      "inputs": [
        {
          "internalType": "address",
          "name": "sender",
          "type": "address"
        }
      ],
      "name": "SenderIsNotRouter",
      "type": "error"
    },
    {
      "inputs": [
        {
          "internalType": "address",
          "name": "sender",
          "type": "address"
        }
      ],
      "name": "SenderIsNotSingleId",
      "type": "error"
    },
    {
      "anonymous": false,
      "inputs": [
        {
          "indexed": true,
          "internalType": "bytes32",
          "name": "role",
          "type": "bytes32"
        },
        {
          "indexed": true,
          "internalType": "bytes32",
          "name": "previousAdminRole",
          "type": "bytes32"
        },
        {
          "indexed": true,
          "internalType": "bytes32",
          "name": "newAdminRole",
          "type": "bytes32"
        }
      ],
      "name": "RoleAdminChanged",
      "type": "event"
    },
    {
      "anonymous": false,
      "inputs": [
        {
          "indexed": true,
          "internalType": "bytes32",
          "name": "role",
          "type": "bytes32"
        },
        {
          "indexed": true,
          "internalType": "address",
          "name": "account",
          "type": "address"
        },
        {
          "indexed": true,
          "internalType": "address",
          "name": "sender",
          "type": "address"
        }
      ],
      "name": "RoleGranted",
      "type": "event"
    },
    {
      "anonymous": false,
      "inputs": [
        {
          "indexed": true,
          "internalType": "bytes32",
          "name": "role",
          "type": "bytes32"
        },
        {
          "indexed": true,
          "internalType": "address",
          "name": "account",
          "type": "address"
        },
        {
          "indexed": true,
          "internalType": "address",
          "name": "sender",
          "type": "address"
        }
      ],
      "name": "RoleRevoked",
      "type": "event"
    },
    {
      "anonymous": false,
      "inputs": [
        {
          "indexed": true,
          "internalType": "uint256",
          "name": "nativeChainId",
          "type": "uint256"
        },
        {
          "indexed": true,
          "internalType": "uint256",
          "name": "customChainId",
          "type": "uint256"
        }
      ],
      "name": "SetChainIds",
      "type": "event"
    },
    {
      "anonymous": false,
      "inputs": [
        {
          "indexed": true,
          "internalType": "uint32",
          "name": "connectorId",
          "type": "uint32"
        }
      ],
      "name": "SetConnectorId",
      "type": "event"
    },
    {
      "anonymous": false,
      "inputs": [
        {
          "indexed": true,
          "internalType": "address",
          "name": "registry",
          "type": "address"
        }
      ],
      "name": "SetRegistry",
      "type": "event"
    },
    {
      "anonymous": false,
      "inputs": [
        {
          "indexed": true,
          "internalType": "address",
          "name": "router",
          "type": "address"
        }
      ],
      "name": "SetRouter",
      "type": "event"
    },
    {
      "anonymous": false,
      "inputs": [
        {
          "indexed": true,
          "internalType": "address",
          "name": "singleId",
          "type": "address"
        }
      ],
      "name": "SetSingleId",
      "type": "event"
    },
    {
      "anonymous": false,
      "inputs": [
        {
          "indexed": true,
          "internalType": "address",
          "name": "registry",
          "type": "address"
        }
      ],
      "name": "UpdateRegistry",
      "type": "event"
    },
    {
      "inputs": [],
      "name": "DEFAULT_ADMIN_ROLE",
      "outputs": [
        {
          "internalType": "bytes32",
          "name": "",
          "type": "bytes32"
        }
      ],
      "stateMutability": "view",
      "type": "function"
    },
    {
      "inputs": [],
      "name": "OPERATOR_ROLE",
      "outputs": [
        {
          "internalType": "bytes32",
          "name": "",
          "type": "bytes32"
        }
      ],
      "stateMutability": "view",
      "type": "function"
    },
    {
      "inputs": [],
      "name": "connectorId",
      "outputs": [
        {
          "internalType": "uint32",
          "name": "",
          "type": "uint32"
        }
      ],
      "stateMutability": "view",
      "type": "function"
    },
    {
      "inputs": [
        {
          "internalType": "uint256",
          "name": "nativeChainId",
          "type": "uint256"
        }
      ],
      "name": "customChainIds",
      "outputs": [
        {
          "internalType": "uint256",
          "name": "customChainId",
          "type": "uint256"
        }
      ],
      "stateMutability": "view",
      "type": "function"
    },
    {
      "inputs": [
        {
          "internalType": "bytes32",
          "name": "role",
          "type": "bytes32"
        }
      ],
      "name": "getRoleAdmin",
      "outputs": [
        {
          "internalType": "bytes32",
          "name": "",
          "type": "bytes32"
        }
      ],
      "stateMutability": "view",
      "type": "function"
    },
    {
      "inputs": [
        {
          "internalType": "bytes32",
          "name": "role",
          "type": "bytes32"
        },
        {
          "internalType": "address",
          "name": "account",
          "type": "address"
        }
      ],
      "name": "grantRole",
      "outputs": [],
      "stateMutability": "nonpayable",
      "type": "function"
    },
    {
      "inputs": [
        {
          "internalType": "bytes32",
          "name": "role",
          "type": "bytes32"
        },
        {
          "internalType": "address",
          "name": "account",
          "type": "address"
        }
      ],
      "name": "hasRole",
      "outputs": [
        {
          "internalType": "bool",
          "name": "",
          "type": "bool"
        }
      ],
      "stateMutability": "view",
      "type": "function"
    },
    {
      "inputs": [
        {
          "internalType": "uint256",
          "name": "customChainId",
          "type": "uint256"
        }
      ],
      "name": "nativeChainIds",
      "outputs": [
        {
          "internalType": "uint256",
          "name": "nativeChainId",
          "type": "uint256"
        }
      ],
      "stateMutability": "view",
      "type": "function"
    },
    {
      "inputs": [
        {
          "internalType": "uint256",
          "name": "",
          "type": "uint256"
        },
        {
          "internalType": "bytes",
          "name": "",
          "type": "bytes"
        }
      ],
      "name": "quote",
      "outputs": [
        {
          "internalType": "uint256",
          "name": "",
          "type": "uint256"
        }
      ],
      "stateMutability": "view",
      "type": "function"
    },
    {
      "inputs": [],
      "name": "registry",
      "outputs": [
        {
          "internalType": "contract ISingleIdentifierRegistry",
          "name": "",
          "type": "address"
        }
      ],
      "stateMutability": "view",
      "type": "function"
    },
    {
      "inputs": [
        {
          "internalType": "bytes32",
          "name": "role",
          "type": "bytes32"
        },
        {
          "internalType": "address",
          "name": "callerConfirmation",
          "type": "address"
        }
      ],
      "name": "renounceRole",
      "outputs": [],
      "stateMutability": "nonpayable",
      "type": "function"
    },
    {
      "inputs": [
        {
          "internalType": "bytes32",
          "name": "role",
          "type": "bytes32"
        },
        {
          "internalType": "address",
          "name": "account",
          "type": "address"
        }
      ],
      "name": "revokeRole",
      "outputs": [],
      "stateMutability": "nonpayable",
      "type": "function"
    },
    {
      "inputs": [],
      "name": "router",
      "outputs": [
        {
          "internalType": "contract SingleRouter",
          "name": "",
          "type": "address"
        }
      ],
      "stateMutability": "view",
      "type": "function"
    },
    {
      "inputs": [
        {
          "internalType": "uint256",
          "name": "",
          "type": "uint256"
        },
        {
          "internalType": "bytes",
          "name": "_payload",
          "type": "bytes"
        }
      ],
      "name": "sendMessage",
      "outputs": [],
      "stateMutability": "payable",
      "type": "function"
    },
    {
      "inputs": [
        {
          "internalType": "uint256",
          "name": "_nativeChainId",
          "type": "uint256"
        },
        {
          "internalType": "uint256",
          "name": "_customChainId",
          "type": "uint256"
        }
      ],
      "name": "setChainId",
      "outputs": [],
      "stateMutability": "nonpayable",
      "type": "function"
    },
    {
      "inputs": [
        {
          "internalType": "uint256[]",
          "name": "_nativeChainIds",
          "type": "uint256[]"
        },
        {
          "internalType": "uint256[]",
          "name": "_customChainIds",
          "type": "uint256[]"
        }
      ],
      "name": "setChainIds",
      "outputs": [],
      "stateMutability": "nonpayable",
      "type": "function"
    },
    {
      "inputs": [
        {
          "internalType": "uint32",
          "name": "_connectorId",
          "type": "uint32"
        }
      ],
      "name": "setConnectorId",
      "outputs": [],
      "stateMutability": "nonpayable",
      "type": "function"
    },
    {
      "inputs": [
        {
          "internalType": "address",
          "name": "_registry",
          "type": "address"
        }
      ],
      "name": "setRegistry",
      "outputs": [],
      "stateMutability": "nonpayable",
      "type": "function"
    },
    {
      "inputs": [
        {
          "internalType": "address",
          "name": "_router",
          "type": "address"
        }
      ],
      "name": "setRouter",
      "outputs": [],
      "stateMutability": "nonpayable",
      "type": "function"
    },
    {
      "inputs": [
        {
          "internalType": "address",
          "name": "_singleId",
          "type": "address"
        }
      ],
      "name": "setSingleId",
      "outputs": [],
      "stateMutability": "nonpayable",
      "type": "function"
    },
    {
      "inputs": [],
      "name": "singleId",
      "outputs": [
        {
          "internalType": "contract SingleIdentifierID",
          "name": "",
          "type": "address"
        }
      ],
      "stateMutability": "view",
      "type": "function"
    },
    {
      "inputs": [
        {
          "internalType": "bytes4",
          "name": "",
          "type": "bytes4"
        }
      ],
      "name": "supportMethod",
      "outputs": [
        {
          "internalType": "bool",
          "name": "",
          "type": "bool"
        }
      ],
      "stateMutability": "pure",
      "type": "function"
    },
    {
      "inputs": [
        {
          "internalType": "bytes4",
          "name": "interfaceId",
          "type": "bytes4"
        }
      ],
      "name": "supportsInterface",
      "outputs": [
        {
          "internalType": "bool",
          "name": "",
          "type": "bool"
        }
      ],
      "stateMutability": "view",
      "type": "function"
    }
  ],
  "transactionHash": "0x0a875bcb5c9c9f304e7cdd5110d53fe616bc2c691bfa6dcc87e0cd4271ba03d8",
  "args": [
    "0x0d0D5Ff3cFeF8B7B2b1cAC6B6C27Fd0846c09361",
    "0x381c031bAA5995D0Cc52386508050Ac947780815",
    "0x449c8eB96594c9f75b26b14C429045DfB1d41473"
  ],
  "numDeployments": 1,
  "solcInputHash": "ed2252f80b10e936ef23184019e93e2d",
  "bytecode": "0x608034620000f757601f620012b238819003918201601f19168301916001600160401b03831184841017620000fc57808492606094604052833981010312620000f7576200008c620000518262000112565b91620000796200007260406200006a6020850162000112565b930162000112565b9362000127565b506200008533620001a7565b50620001a7565b506001600160a01b03168015620000e557600380546001600160a01b03191682179055604051907f278c70ced5f3e0e5eeb385b5ff9cb735748ba00a625147e66065ed48fc1562cd600080a261104890816200024a8239f35b60405163867915ab60e01b8152600490fd5b600080fd5b634e487b7160e01b600052604160045260246000fd5b51906001600160a01b0382168203620000f757565b6001600160a01b031660008181527fad3228b676f7d3cd4284a5443f17f1962b36e491b30a40b2405849e597ba5fb5602052604081205490919060ff16620001a357818052816020526040822081835260205260408220600160ff198254161790553391600080516020620012928339815191528180a4600190565b5090565b6001600160a01b031660008181527fee57cd81e84075558e8fcc182a1f4393f91fc97f963a136e66b7f949a62f319f60205260408120549091907f97667070c54ef182b0f5858b034beac1b6f3089aa2d3188bb1e8929f4fa9b9299060ff166200024457808352826020526040832082845260205260408320600160ff1982541617905560008051602062001292833981519152339380a4600190565b50509056fe608060408181526004918236101561001657600080fd5b600092833560e01c91826301ffc9a7146108c2575081630c6a0437146107f057816321f93b1e146107c5578163248a9ca31461079b5781632f2ff15d1461077157816336568abe1461072b57816337528ffa1461068d5781633e42d4a41461065f5781636d4c9cd61461063857816377d2b7711461061c5781637b103999146105f35781638078a4ca146105855781638e97632f1461055c57816391d1485414610516578163a217fddf146104fb578163a91ee0dc1461048d578163b00899cf14610465578163b3d632881461043d578163c0d78655146103c2578163d547741f14610383578163e289adcd1461018757508063f5b541a61461014d5763f887ea401461012257600080fd5b3461014957816003193601126101495760015490516001600160a01b039091168152602090f35b5080fd5b5034610149578160031936011261014957602090517f97667070c54ef182b0f5858b034beac1b6f3089aa2d3188bb1e8929f4fa9b9298152f35b838361019236610a47565b6002546001600160a01b039392508316330361036d576101b190610d5f565b918251600281101561035a579084959115600014610281576020816003541694015193803b1561027d57602086809461024c87519889968795869463797266f560e11b86528501528151602485015260208201511660448401526001600160401b03898201511660648401526080610238606083015160a0608487015260c4860190610cd3565b9101518382036023190160a4850152610cd3565b03925af1908115610274575061026157505080f35b61026a90610976565b6102715780f35b80fd5b513d84823e3d90fd5b8580fd5b90935082919251600281101561034757906001869392146102a5575b505050505080f35b600354918401519116803b156103435760208361031a968651978895869485936328f2f2c960e21b8552840152805160248401526001600160401b03602082015116604484015260606103068a8301516080606487015260a4860190610cd3565b910151838203602319016084850152610cd3565b03925af19081156102745750610334575b8082818061029d565b61033d90610976565b8161032b565b8280fd5b634e487b7160e01b865260218552602486fd5b634e487b7160e01b855260218652602485fd5b81516367616c9560e11b81523381870152602490fd5b919050346103435780600319360112610343576103be91356103b960016103a861094a565b938387528660205286200154610b54565b610c3b565b5080f35b905034610343576020366003190112610343576103dd610960565b6103e5610ada565b6001600160a01b0316918215610430575050600180546001600160a01b031916821790557f6de4326a8b9054d72d9dbab97d27bc4edffadee7d966f5af9cc4eafdaf8e54558280a280f35b5163867915ab60e01b8152fd5b50503461014957816003193601126101495760209063ffffffff60035460a01c169051908152f35b9050346103435760203660031901126103435760209282913581526005845220549051908152f35b905034610343576020366003190112610343576104a8610960565b6104b0610ada565b6001600160a01b0316918215610430575050600380546001600160a01b031916821790557f278c70ced5f3e0e5eeb385b5ff9cb735748ba00a625147e66065ed48fc1562cd8280a280f35b50503461014957816003193601126101495751908152602090f35b9050346103435781600319360112610343578160209360ff9261053761094a565b903582528186528282206001600160a01b039091168252855220549151911615158152f35b50503461014957816003193601126101495760025490516001600160a01b039091168152602090f35b905034610343576020366003190112610343576105a0610960565b6105a8610ada565b6001600160a01b0316918215610430575050600280546001600160a01b031916821790557f52e6d2e71f8c0e051b2e43ce23ed13768759cac6bc5f6ae587d3888be98288358280a280f35b50503461014957816003193601126101495760035490516001600160a01b039091168152602090f35b505034610149579060209161063036610a47565b505051908152f35b90503461034357602036600319011261034357602092818392358252845220549051908152f35b90503461034357602036600319011261034357356001600160e01b0319811603610149576020905160018152f35b9050346103435760203660031901126103435780359063ffffffff821692838303610727576001546001600160a01b031633036107105750506003805463ffffffff60a01b191660a09290921b63ffffffff60a01b169190911790557f47333240c37caed3a1253ddbea098806bb1baf7280274b495d478f95b28dd06d8280a280f35b602492505190633d5e603f60e01b82523390820152fd5b8480fd5b83833461014957806003193601126101495761074561094a565b90336001600160a01b0383160361076257506103be919235610c3b565b5163334bd91960e11b81528390fd5b919050346103435780600319360112610343576103be913561079660016103a861094a565b610bbd565b90503461034357602036600319011261034357816020936001923581528085522001549051908152f35b9190503461034357366003190112610149576107ed906107e3610ada565b6024359035610b7a565b80f35b919050346103435780600319360112610343576001600160401b03918035838111610727576108229036908301610915565b909360243590811161027d5761083b9036908401610915565b929093610846610ada565b838303610886575050845b81811061085c578580f35b8061088061086d6001938589610ab4565b35610879838789610ab4565b3590610b7a565b01610851565b906020606492519162461bcd60e51b8352820152601660248201527524b73b30b634b21030b93930bcb9903632b733ba341760511b6044820152fd5b849134610343576020366003190112610343573563ffffffff60e01b81168091036103435760209250637965db0b60e01b8114908115610904575b5015158152f35b6301ffc9a760e01b149050836108fd565b9181601f84011215610945578235916001600160401b038311610945576020808501948460051b01011161094557565b600080fd5b602435906001600160a01b038216820361094557565b600435906001600160a01b038216820361094557565b6001600160401b03811161098957604052565b634e487b7160e01b600052604160045260246000fd5b606081019081106001600160401b0382111761098957604052565b60a081019081106001600160401b0382111761098957604052565b608081019081106001600160401b0382111761098957604052565b602081019081106001600160401b0382111761098957604052565b90601f801991011681019081106001600160401b0382111761098957604052565b6001600160401b03811161098957601f01601f191660200190565b90604060031983011261094557600435916024356001600160401b038111610945578160238201121561094557806004013590610a8382610a2c565b92610a916040519485610a0b565b828452602483830101116109455781600092602460209301838601378301015290565b9190811015610ac45760051b0190565b634e487b7160e01b600052603260045260246000fd5b3360009081527fee57cd81e84075558e8fcc182a1f4393f91fc97f963a136e66b7f949a62f319f60205260409020547f97667070c54ef182b0f5858b034beac1b6f3089aa2d3188bb1e8929f4fa9b9299060ff1615610b365750565b6044906040519063e2517d3f60e01b82523360048301526024820152fd5b80600052600060205260406000203360005260205260ff6040600020541615610b365750565b7fcf862c2ab9207085c570abb732a01b9fc3dea1732596d0d04982ccbc8f3e455b60008381526005602052826040822055828152600460205283604082205580a3565b9060009180835282602052604083209160018060a01b03169182845260205260ff60408420541615600014610c3657808352826020526040832082845260205260408320600160ff198254161790557f2f8788117e7eff1d82e926ec794901d17c78024a50270940304540a733656f0d339380a4600190565b505090565b9060009180835282602052604083209160018060a01b03169182845260205260ff604084205416600014610c365780835282602052604083208284526020526040832060ff1981541690557ff6391f5c32d9c69d2a47ea670b442974b53935d1edc7fd64eb21e047a839171b339380a4600190565b60005b838110610cc35750506000910152565b8181015183820152602001610cb3565b90602091610cec81518092818552858086019101610cb0565b601f01601f1916010190565b519060ff8216820361094557565b51906001600160401b038216820361094557565b81601f82011215610945578051610d3081610a2c565b92610d3e6040519485610a0b565b8184526020828401011161094557610d5c9160208085019101610cb0565b90565b6040805190610d6d8261099f565b6000928383526020825193610d81856109ba565b8585528582860152858486015260609485808201528560808201528282015283805191610dad836109d5565b878352878484015286828401528680840152015281518183818101928101031261027d5760ff610ddc82610cf8565b1660018103610eeb5750825183019060c084848401930312610ee757610e0190610cf8565b50828401518584015190936001600160a01b038216929091839003610ee357610e2c60808301610d06565b60a0830151916001600160401b0392838111610edf578187610e5092870101610d1a565b9360c081015190848211610edb57610e6b9291018701610d1a565b93875196610e78886109ba565b8752858701521685850152858401526080830152825193610e98856109d5565b85855285828601528351610eab816109f0565b86815284860152835190610ebe826109f0565b868252850152825194610ed08661099f565b855284015282015290565b8b80fd5b8a80fd5b8780fd5b8680fd5b919592949291600203610fd757845185019060a08688840193031261034357610f1390610cf8565b508385015194610f24848201610d06565b916080820151906001600160401b039182811161027d57818a610f4992860101610d1a565b9260a081015190838211610ee757610f649291018a01610d1a565b92865197610f71896109d5565b885216878701528486015282850152825191610f8c836109ba565b81835281868401528184840152835190610fa5826109f0565b828252830152825190610fb7826109f0565b81526080820152815193610fca8561099f565b6001855284015282015290565b835162461bcd60e51b8152600481018790526014602482015273556e6b6e6f776e206d657373616765207479706560601b6044820152606490fdfea2646970667358221220ba699efd41cc30505fbb0f941219f3eab510d795cd7daa0cc656925ea58431a964736f6c634300081800332f8788117e7eff1d82e926ec794901d17c78024a50270940304540a733656f0d",
  "devdoc": {
    "errors": {
      "AccessControlBadConfirmation()": [
        {
          "details": "The caller of a function is not the expected one. NOTE: Don't confuse with {AccessControlUnauthorizedAccount}."
        }
      ],
      "AccessControlUnauthorizedAccount(address,bytes32)": [
        {
          "details": "The `account` is missing a role."
        }
      ]
    },
    "events": {
      "RoleAdminChanged(bytes32,bytes32,bytes32)": {
        "details": "Emitted when `newAdminRole` is set as ``role``'s admin role, replacing `previousAdminRole` `DEFAULT_ADMIN_ROLE` is the starting admin for all roles, despite {RoleAdminChanged} not being emitted signaling this."
      },
      "RoleGranted(bytes32,address,address)": {
        "details": "Emitted when `account` is granted `role`. `sender` is the account that originated the contract call, an admin role bearer except when using {AccessControl-_setupRole}."
      },
      "RoleRevoked(bytes32,address,address)": {
        "details": "Emitted when `account` is revoked `role`. `sender` is the account that originated the contract call:   - if using `revokeRole`, it is the admin role bearer   - if using `renounceRole`, it is the role bearer (i.e. `account`)"
      }
    },
    "kind": "dev",
    "methods": {
      "getRoleAdmin(bytes32)": {
        "details": "Returns the admin role that controls `role`. See {grantRole} and {revokeRole}. To change a role's admin, use {_setRoleAdmin}."
      },
      "grantRole(bytes32,address)": {
        "details": "Grants `role` to `account`. If `account` had not been already granted `role`, emits a {RoleGranted} event. Requirements: - the caller must have ``role``'s admin role. May emit a {RoleGranted} event."
      },
      "hasRole(bytes32,address)": {
        "details": "Returns `true` if `account` has been granted `role`."
      },
      "renounceRole(bytes32,address)": {
        "details": "Revokes `role` from the calling account. Roles are often managed via {grantRole} and {revokeRole}: this function's purpose is to provide a mechanism for accounts to lose their privileges if they are compromised (such as when a trusted device is misplaced). If the calling account had been revoked `role`, emits a {RoleRevoked} event. Requirements: - the caller must be `callerConfirmation`. May emit a {RoleRevoked} event."
      },
      "revokeRole(bytes32,address)": {
        "details": "Revokes `role` from `account`. If `account` had been granted `role`, emits a {RoleRevoked} event. Requirements: - the caller must have ``role``'s admin role. May emit a {RoleRevoked} event."
      },
      "supportsInterface(bytes4)": {
        "details": "See {IERC165-supportsInterface}."
      }
    },
    "version": 1
  },
  "userdoc": {
    "kind": "user",
    "methods": {},
    "version": 1
  },
  "storageLayout": {
    "storage": [
      {
        "astId": 7859,
        "contract": "contracts/connectors/SameChainConnector.sol:SameChainConnector",
        "label": "_roles",
        "offset": 0,
        "slot": "0",
        "type": "t_mapping(t_bytes32,t_struct(RoleData)7854_storage)"
      },
      {
        "astId": 15581,
        "contract": "contracts/connectors/SameChainConnector.sol:SameChainConnector",
        "label": "router",
        "offset": 0,
        "slot": "1",
        "type": "t_contract(SingleRouter)15559"
      },
      {
        "astId": 15584,
        "contract": "contracts/connectors/SameChainConnector.sol:SameChainConnector",
        "label": "singleId",
        "offset": 0,
        "slot": "2",
        "type": "t_contract(SingleIdentifierID)14400"
      },
      {
        "astId": 15587,
        "contract": "contracts/connectors/SameChainConnector.sol:SameChainConnector",
        "label": "registry",
        "offset": 0,
        "slot": "3",
        "type": "t_contract(ISingleIdentifierRegistry)16886"
      },
      {
        "astId": 15589,
        "contract": "contracts/connectors/SameChainConnector.sol:SameChainConnector",
        "label": "connectorId",
        "offset": 20,
        "slot": "3",
        "type": "t_uint32"
      },
      {
        "astId": 15593,
        "contract": "contracts/connectors/SameChainConnector.sol:SameChainConnector",
        "label": "customChainIds",
        "offset": 0,
        "slot": "4",
        "type": "t_mapping(t_uint256,t_uint256)"
      },
      {
        "astId": 15597,
        "contract": "contracts/connectors/SameChainConnector.sol:SameChainConnector",
        "label": "nativeChainIds",
        "offset": 0,
        "slot": "5",
        "type": "t_mapping(t_uint256,t_uint256)"
      }
    ],
    "types": {
      "t_address": {
        "encoding": "inplace",
        "label": "address",
        "numberOfBytes": "20"
      },
      "t_bool": {
        "encoding": "inplace",
        "label": "bool",
        "numberOfBytes": "1"
      },
      "t_bytes32": {
        "encoding": "inplace",
        "label": "bytes32",
        "numberOfBytes": "32"
      },
      "t_contract(ISingleIdentifierRegistry)16886": {
        "encoding": "inplace",
        "label": "contract ISingleIdentifierRegistry",
        "numberOfBytes": "20"
      },
      "t_contract(SingleIdentifierID)14400": {
        "encoding": "inplace",
        "label": "contract SingleIdentifierID",
        "numberOfBytes": "20"
      },
      "t_contract(SingleRouter)15559": {
        "encoding": "inplace",
        "label": "contract SingleRouter",
        "numberOfBytes": "20"
      },
      "t_mapping(t_address,t_bool)": {
        "encoding": "mapping",
        "key": "t_address",
        "label": "mapping(address => bool)",
        "numberOfBytes": "32",
        "value": "t_bool"
      },
      "t_mapping(t_bytes32,t_struct(RoleData)7854_storage)": {
        "encoding": "mapping",
        "key": "t_bytes32",
        "label": "mapping(bytes32 => struct AccessControl.RoleData)",
        "numberOfBytes": "32",
        "value": "t_struct(RoleData)7854_storage"
      },
      "t_mapping(t_uint256,t_uint256)": {
        "encoding": "mapping",
        "key": "t_uint256",
        "label": "mapping(uint256 => uint256)",
        "numberOfBytes": "32",
        "value": "t_uint256"
      },
      "t_struct(RoleData)7854_storage": {
        "encoding": "inplace",
        "label": "struct AccessControl.RoleData",
        "members": [
          {
            "astId": 7851,
            "contract": "contracts/connectors/SameChainConnector.sol:SameChainConnector",
            "label": "hasRole",
            "offset": 0,
            "slot": "0",
            "type": "t_mapping(t_address,t_bool)"
          },
          {
            "astId": 7853,
            "contract": "contracts/connectors/SameChainConnector.sol:SameChainConnector",
            "label": "adminRole",
            "offset": 0,
            "slot": "1",
            "type": "t_bytes32"
          }
        ],
        "numberOfBytes": "64"
      },
      "t_uint256": {
        "encoding": "inplace",
        "label": "uint256",
        "numberOfBytes": "32"
      },
      "t_uint32": {
        "encoding": "inplace",
        "label": "uint32",
        "numberOfBytes": "4"
      }
    }
  }
}