{
  "address": "0x7c9AE25F52DfE6E31F004DB2907c9D70CD8535BE",
  "abi": [
    {
      "inputs": [],
      "name": "AddressIsZero",
      "type": "error"
    },
    {
      "inputs": [],
      "name": "ChainIdInvalid",
      "type": "error"
    },
    {
      "inputs": [],
      "name": "DataIsEmpty",
      "type": "error"
    },
    {
      "inputs": [],
      "name": "ECDSAInvalidSignature",
      "type": "error"
    },
    {
      "inputs": [
        {
          "internalType": "uint256",
          "name": "length",
          "type": "uint256"
        }
      ],
      "name": "ECDSAInvalidSignatureLength",
      "type": "error"
    },
    {
      "inputs": [
        {
          "internalType": "bytes32",
          "name": "s",
          "type": "bytes32"
        }
      ],
      "name": "ECDSAInvalidSignatureS",
      "type": "error"
    },
    {
      "inputs": [],
      "name": "EmitterAlreadyExists",
      "type": "error"
    },
    {
      "inputs": [],
      "name": "EmitterNotExists",
      "type": "error"
    },
    {
      "inputs": [],
      "name": "ExpirationDateInvalid",
      "type": "error"
    },
    {
      "inputs": [],
      "name": "ProtocolIdInvalid",
      "type": "error"
    },
    {
      "inputs": [],
      "name": "SIDNotValid",
      "type": "error"
    },
    {
      "inputs": [],
      "name": "SchemaIdInvalid",
      "type": "error"
    },
    {
      "inputs": [],
      "name": "SenderNotEmitter",
      "type": "error"
    },
    {
      "inputs": [],
      "name": "SignatureInvalid",
      "type": "error"
    },
    {
      "inputs": [],
      "name": "WrongFeeAmount",
      "type": "error"
    },
    {
      "anonymous": false,
      "inputs": [
        {
          "indexed": false,
          "internalType": "address",
          "name": "previousAdmin",
          "type": "address"
        },
        {
          "indexed": false,
          "internalType": "address",
          "name": "newAdmin",
          "type": "address"
        }
      ],
      "name": "AdminChanged",
      "type": "event"
    },
    {
      "anonymous": false,
      "inputs": [
        {
          "indexed": true,
          "internalType": "address",
          "name": "beacon",
          "type": "address"
        }
      ],
      "name": "BeaconUpgraded",
      "type": "event"
    },
    {
      "anonymous": false,
      "inputs": [],
      "name": "EIP712DomainChanged",
      "type": "event"
    },
    {
      "anonymous": false,
      "inputs": [
        {
          "indexed": true,
          "internalType": "bytes32",
          "name": "emitterId",
          "type": "bytes32"
        },
        {
          "indexed": true,
          "internalType": "address",
          "name": "emitterAddress",
          "type": "address"
        },
        {
          "indexed": false,
          "internalType": "uint256",
          "name": "registryChainId",
          "type": "uint256"
        }
      ],
      "name": "EmitterRegistered",
      "type": "event"
    },
    {
      "anonymous": false,
      "inputs": [
        {
          "indexed": false,
          "internalType": "uint8",
          "name": "version",
          "type": "uint8"
        }
      ],
      "name": "Initialized",
      "type": "event"
    },
    {
      "anonymous": false,
      "inputs": [
        {
          "indexed": true,
          "internalType": "bytes32",
          "name": "role",
          "type": "bytes32"
        },
        {
          "indexed": true,
          "internalType": "bytes32",
          "name": "previousAdminRole",
          "type": "bytes32"
        },
        {
          "indexed": true,
          "internalType": "bytes32",
          "name": "newAdminRole",
          "type": "bytes32"
        }
      ],
      "name": "RoleAdminChanged",
      "type": "event"
    },
    {
      "anonymous": false,
      "inputs": [
        {
          "indexed": true,
          "internalType": "bytes32",
          "name": "role",
          "type": "bytes32"
        },
        {
          "indexed": true,
          "internalType": "address",
          "name": "account",
          "type": "address"
        },
        {
          "indexed": true,
          "internalType": "address",
          "name": "sender",
          "type": "address"
        }
      ],
      "name": "RoleGranted",
      "type": "event"
    },
    {
      "anonymous": false,
      "inputs": [
        {
          "indexed": true,
          "internalType": "bytes32",
          "name": "role",
          "type": "bytes32"
        },
        {
          "indexed": true,
          "internalType": "address",
          "name": "account",
          "type": "address"
        },
        {
          "indexed": true,
          "internalType": "address",
          "name": "sender",
          "type": "address"
        }
      ],
      "name": "RoleRevoked",
      "type": "event"
    },
    {
      "anonymous": false,
      "inputs": [
        {
          "indexed": true,
          "internalType": "bytes32",
          "name": "schemaId",
          "type": "bytes32"
        },
        {
          "indexed": true,
          "internalType": "uint32",
          "name": "protocolId",
          "type": "uint32"
        },
        {
          "indexed": true,
          "internalType": "address",
          "name": "user",
          "type": "address"
        },
        {
          "indexed": false,
          "internalType": "uint256",
          "name": "registryDst",
          "type": "uint256"
        }
      ],
      "name": "SentRegisterSIDMessage",
      "type": "event"
    },
    {
      "anonymous": false,
      "inputs": [
        {
          "indexed": true,
          "internalType": "bytes32",
          "name": "id",
          "type": "bytes32"
        },
        {
          "indexed": true,
          "internalType": "uint32",
          "name": "protocolId",
          "type": "uint32"
        },
        {
          "indexed": true,
          "internalType": "address",
          "name": "user",
          "type": "address"
        },
        {
          "indexed": false,
          "internalType": "uint256",
          "name": "registryDst",
          "type": "uint256"
        }
      ],
      "name": "SentUpdateSIDMessage",
      "type": "event"
    },
    {
      "anonymous": false,
      "inputs": [
        {
          "indexed": false,
          "internalType": "uint256",
          "name": "fee",
          "type": "uint256"
        }
      ],
      "name": "SetProtocolFee",
      "type": "event"
    },
    {
      "anonymous": false,
      "inputs": [
        {
          "indexed": true,
          "internalType": "address",
          "name": "newRouter",
          "type": "address"
        }
      ],
      "name": "SetRouter",
      "type": "event"
    },
    {
      "anonymous": false,
      "inputs": [
        {
          "indexed": true,
          "internalType": "bytes32",
          "name": "emitterId",
          "type": "bytes32"
        },
        {
          "indexed": true,
          "internalType": "address",
          "name": "newEmitter",
          "type": "address"
        }
      ],
      "name": "UpdateEmitter",
      "type": "event"
    },
    {
      "anonymous": false,
      "inputs": [
        {
          "indexed": true,
          "internalType": "address",
          "name": "implementation",
          "type": "address"
        }
      ],
      "name": "Upgraded",
      "type": "event"
    },
    {
      "anonymous": false,
      "inputs": [
        {
          "indexed": true,
          "internalType": "address",
          "name": "receiver",
          "type": "address"
        },
        {
          "indexed": false,
          "internalType": "uint256",
          "name": "amount",
          "type": "uint256"
        }
      ],
      "name": "Withdrawal",
      "type": "event"
    },
    {
      "inputs": [],
      "name": "DEFAULT_ADMIN_ROLE",
      "outputs": [
        {
          "internalType": "bytes32",
          "name": "",
          "type": "bytes32"
        }
      ],
      "stateMutability": "view",
      "type": "function"
    },
    {
      "inputs": [],
      "name": "NAME",
      "outputs": [
        {
          "internalType": "string",
          "name": "",
          "type": "string"
        }
      ],
      "stateMutability": "view",
      "type": "function"
    },
    {
      "inputs": [],
      "name": "OPERATOR_ROLE",
      "outputs": [
        {
          "internalType": "bytes32",
          "name": "",
          "type": "bytes32"
        }
      ],
      "stateMutability": "view",
      "type": "function"
    },
    {
      "inputs": [],
      "name": "VERSION",
      "outputs": [
        {
          "internalType": "string",
          "name": "",
          "type": "string"
        }
      ],
      "stateMutability": "view",
      "type": "function"
    },
    {
      "inputs": [],
      "name": "eip712Domain",
      "outputs": [
        {
          "internalType": "bytes1",
          "name": "fields",
          "type": "bytes1"
        },
        {
          "internalType": "string",
          "name": "name",
          "type": "string"
        },
        {
          "internalType": "string",
          "name": "version",
          "type": "string"
        },
        {
          "internalType": "uint256",
          "name": "chainId",
          "type": "uint256"
        },
        {
          "internalType": "address",
          "name": "verifyingContract",
          "type": "address"
        },
        {
          "internalType": "bytes32",
          "name": "salt",
          "type": "bytes32"
        },
        {
          "internalType": "uint256[]",
          "name": "extensions",
          "type": "uint256[]"
        }
      ],
      "stateMutability": "view",
      "type": "function"
    },
    {
      "inputs": [
        {
          "internalType": "bytes32",
          "name": "emitterId",
          "type": "bytes32"
        }
      ],
      "name": "emitters",
      "outputs": [
        {
          "internalType": "bytes32",
          "name": "emitterId",
          "type": "bytes32"
        },
        {
          "internalType": "bytes32",
          "name": "schemaId",
          "type": "bytes32"
        },
        {
          "internalType": "uint64",
          "name": "expirationDate",
          "type": "uint64"
        },
        {
          "internalType": "uint256",
          "name": "fee",
          "type": "uint256"
        },
        {
          "internalType": "uint256",
          "name": "registryChainId",
          "type": "uint256"
        },
        {
          "internalType": "address",
          "name": "owner",
          "type": "address"
        }
      ],
      "stateMutability": "view",
      "type": "function"
    },
    {
      "inputs": [
        {
          "internalType": "bytes32",
          "name": "emitterId",
          "type": "bytes32"
        }
      ],
      "name": "emittersBalances",
      "outputs": [
        {
          "internalType": "uint256",
          "name": "balance",
          "type": "uint256"
        }
      ],
      "stateMutability": "view",
      "type": "function"
    },
    {
      "inputs": [
        {
          "internalType": "bytes32",
          "name": "role",
          "type": "bytes32"
        }
      ],
      "name": "getRoleAdmin",
      "outputs": [
        {
          "internalType": "bytes32",
          "name": "",
          "type": "bytes32"
        }
      ],
      "stateMutability": "view",
      "type": "function"
    },
    {
      "inputs": [
        {
          "internalType": "bytes32",
          "name": "role",
          "type": "bytes32"
        },
        {
          "internalType": "address",
          "name": "account",
          "type": "address"
        }
      ],
      "name": "grantRole",
      "outputs": [],
      "stateMutability": "nonpayable",
      "type": "function"
    },
    {
      "inputs": [
        {
          "internalType": "bytes32",
          "name": "role",
          "type": "bytes32"
        },
        {
          "internalType": "address",
          "name": "account",
          "type": "address"
        }
      ],
      "name": "hasRole",
      "outputs": [
        {
          "internalType": "bool",
          "name": "",
          "type": "bool"
        }
      ],
      "stateMutability": "view",
      "type": "function"
    },
    {
      "inputs": [
        {
          "internalType": "uint256",
          "name": "_protocolFee",
          "type": "uint256"
        },
        {
          "internalType": "address",
          "name": "_admin",
          "type": "address"
        },
        {
          "internalType": "address",
          "name": "_operator",
          "type": "address"
        },
        {
          "internalType": "address",
          "name": "_router",
          "type": "address"
        }
      ],
      "name": "initialize",
      "outputs": [],
      "stateMutability": "nonpayable",
      "type": "function"
    },
    {
      "inputs": [],
      "name": "protocolBalance",
      "outputs": [
        {
          "internalType": "uint256",
          "name": "",
          "type": "uint256"
        }
      ],
      "stateMutability": "view",
      "type": "function"
    },
    {
      "inputs": [],
      "name": "protocolFee",
      "outputs": [
        {
          "internalType": "uint256",
          "name": "",
          "type": "uint256"
        }
      ],
      "stateMutability": "view",
      "type": "function"
    },
    {
      "inputs": [],
      "name": "proxiableUUID",
      "outputs": [
        {
          "internalType": "bytes32",
          "name": "",
          "type": "bytes32"
        }
      ],
      "stateMutability": "view",
      "type": "function"
    },
    {
      "inputs": [
        {
          "internalType": "bytes32",
          "name": "_schemaId",
          "type": "bytes32"
        },
        {
          "internalType": "uint256",
          "name": "_registryChainId",
          "type": "uint256"
        },
        {
          "internalType": "address",
          "name": "_emitterAddress",
          "type": "address"
        },
        {
          "internalType": "uint64",
          "name": "_expirationDate",
          "type": "uint64"
        },
        {
          "internalType": "uint256",
          "name": "_fee",
          "type": "uint256"
        },
        {
          "internalType": "bytes",
          "name": "_signature",
          "type": "bytes"
        }
      ],
      "name": "registerEmitter",
      "outputs": [
        {
          "internalType": "bytes32",
          "name": "",
          "type": "bytes32"
        }
      ],
      "stateMutability": "nonpayable",
      "type": "function"
    },
    {
      "inputs": [
        {
          "internalType": "bytes32",
          "name": "_emitterId",
          "type": "bytes32"
        },
        {
          "internalType": "uint32",
          "name": "_connectorId",
          "type": "uint32"
        },
        {
          "internalType": "bytes",
          "name": "_data",
          "type": "bytes"
        },
        {
          "internalType": "bytes",
          "name": "_signature",
          "type": "bytes"
        },
        {
          "internalType": "string",
          "name": "_metadata",
          "type": "string"
        }
      ],
      "name": "registerSID",
      "outputs": [],
      "stateMutability": "payable",
      "type": "function"
    },
    {
      "inputs": [
        {
          "internalType": "bytes32",
          "name": "_schemaId",
          "type": "bytes32"
        },
        {
          "internalType": "uint32",
          "name": "_connectorId",
          "type": "uint32"
        },
        {
          "internalType": "uint64",
          "name": "_expirationDate",
          "type": "uint64"
        },
        {
          "internalType": "uint256",
          "name": "_fee",
          "type": "uint256"
        },
        {
          "internalType": "uint256",
          "name": "_registryChainId",
          "type": "uint256"
        },
        {
          "internalType": "address",
          "name": "_emitterAddress",
          "type": "address"
        },
        {
          "internalType": "bytes",
          "name": "_data",
          "type": "bytes"
        },
        {
          "internalType": "string",
          "name": "_metadata",
          "type": "string"
        },
        {
          "internalType": "bytes",
          "name": "_signature",
          "type": "bytes"
        },
        {
          "internalType": "bytes",
          "name": "_registerEmitterSignature",
          "type": "bytes"
        }
      ],
      "name": "registerSIDWithEmitter",
      "outputs": [],
      "stateMutability": "payable",
      "type": "function"
    },
    {
      "inputs": [
        {
          "internalType": "bytes32",
          "name": "role",
          "type": "bytes32"
        },
        {
          "internalType": "address",
          "name": "account",
          "type": "address"
        }
      ],
      "name": "renounceRole",
      "outputs": [],
      "stateMutability": "nonpayable",
      "type": "function"
    },
    {
      "inputs": [
        {
          "internalType": "bytes32",
          "name": "role",
          "type": "bytes32"
        },
        {
          "internalType": "address",
          "name": "account",
          "type": "address"
        }
      ],
      "name": "revokeRole",
      "outputs": [],
      "stateMutability": "nonpayable",
      "type": "function"
    },
    {
      "inputs": [],
      "name": "router",
      "outputs": [
        {
          "internalType": "contract SingleRouter",
          "name": "",
          "type": "address"
        }
      ],
      "stateMutability": "view",
      "type": "function"
    },
    {
      "inputs": [
        {
          "internalType": "uint256",
          "name": "_fee",
          "type": "uint256"
        }
      ],
      "name": "setProtocolFee",
      "outputs": [],
      "stateMutability": "nonpayable",
      "type": "function"
    },
    {
      "inputs": [
        {
          "internalType": "address",
          "name": "_router",
          "type": "address"
        }
      ],
      "name": "setRouter",
      "outputs": [],
      "stateMutability": "nonpayable",
      "type": "function"
    },
    {
      "inputs": [
        {
          "internalType": "bytes4",
          "name": "interfaceId",
          "type": "bytes4"
        }
      ],
      "name": "supportsInterface",
      "outputs": [
        {
          "internalType": "bool",
          "name": "",
          "type": "bool"
        }
      ],
      "stateMutability": "view",
      "type": "function"
    },
    {
      "inputs": [
        {
          "internalType": "bytes32",
          "name": "_emitterId",
          "type": "bytes32"
        },
        {
          "internalType": "address",
          "name": "_newEmitter",
          "type": "address"
        }
      ],
      "name": "updateEmitter",
      "outputs": [],
      "stateMutability": "nonpayable",
      "type": "function"
    },
    {
      "inputs": [
        {
          "internalType": "bytes32",
          "name": "_emitterId",
          "type": "bytes32"
        },
        {
          "internalType": "uint256",
          "name": "_fee",
          "type": "uint256"
        }
      ],
      "name": "updateFee",
      "outputs": [],
      "stateMutability": "nonpayable",
      "type": "function"
    },
    {
      "inputs": [
        {
          "internalType": "bytes32",
          "name": "_emitterId",
          "type": "bytes32"
        },
        {
          "internalType": "uint32",
          "name": "_connectorId",
          "type": "uint32"
        },
        {
          "internalType": "bytes32",
          "name": "_sidId",
          "type": "bytes32"
        },
        {
          "internalType": "uint64",
          "name": "_expirationDate",
          "type": "uint64"
        },
        {
          "internalType": "bytes",
          "name": "_data",
          "type": "bytes"
        },
        {
          "internalType": "string",
          "name": "_metadata",
          "type": "string"
        },
        {
          "internalType": "bytes",
          "name": "_signature",
          "type": "bytes"
        }
      ],
      "name": "updateSID",
      "outputs": [],
      "stateMutability": "payable",
      "type": "function"
    },
    {
      "inputs": [
        {
          "internalType": "address",
          "name": "newImplementation",
          "type": "address"
        }
      ],
      "name": "upgradeTo",
      "outputs": [],
      "stateMutability": "nonpayable",
      "type": "function"
    },
    {
      "inputs": [
        {
          "internalType": "address",
          "name": "newImplementation",
          "type": "address"
        },
        {
          "internalType": "bytes",
          "name": "data",
          "type": "bytes"
        }
      ],
      "name": "upgradeToAndCall",
      "outputs": [],
      "stateMutability": "payable",
      "type": "function"
    },
    {
      "inputs": [
        {
          "internalType": "bytes32",
          "name": "_emitterId",
          "type": "bytes32"
        },
        {
          "internalType": "address payable",
          "name": "_receiver",
          "type": "address"
        }
      ],
      "name": "withdraw",
      "outputs": [],
      "stateMutability": "nonpayable",
      "type": "function"
    },
    {
      "inputs": [
        {
          "internalType": "address payable",
          "name": "_receiver",
          "type": "address"
        }
      ],
      "name": "withdraw",
      "outputs": [],
      "stateMutability": "nonpayable",
      "type": "function"
    }
  ],
  "numDeployments": 1,
  "solcInputHash": "ed2252f80b10e936ef23184019e93e2d",
  "bytecode": "0x60a080604052346100315730608052613237908161003782396080518181816113c80152818161170a015261198a0152f35b600080fdfe608080604052600436101561001357600080fd5b600090813560e01c90816301ffc9a714611e03575080631b258d5014611d07578063248a9ca314611cda5780632f2ff15d14611c295780633427b33f14611bbb57806336568abe14611b285780633659cfe6146119655780634f1ef286146116cc57806351cff8d91461147957806352d1902d146113b557806361adccb11461124f57806361e98db81461123057806368a72b2a14611087578063754d1d5414610b15578063787dce3d14610ac557806384b0196e146109b757806391d148541461096e57806398ac5f1b146104b4578063a0ede6a914610400578063a217fddf146103e4578063a3f4df7e146103c8578063b0e21e8a146103a9578063c0d786551461034d578063cbac3e49146102d8578063d547741f14610295578063eca1cacf1461026a578063f3e2620714610206578063f5b541a6146101cb578063f887ea40146101a15763ffa1ad741461016b57600080fd5b3461019e578060031936011261019e5761019a6101866120b7565b604051918291602083526020830190612059565b0390f35b80fd5b503461019e578060031936011261019e57610131546040516001600160a01b039091168152602090f35b503461019e578060031936011261019e5760206040517f97667070c54ef182b0f5858b034beac1b6f3089aa2d3188bb1e8929f4fa9b9298152f35b503461019e5760c036600319011261019e57610220611e89565b90610229612020565b9060a435906001600160401b03821161019e57602061026285856102503660048801611ff3565b92909160843591602435600435612257565b604051908152f35b503461019e57602036600319011261019e576040602091600435815261013383522054604051908152f35b503461019e57604036600319011261019e576102d56004356102b5611e58565b9080845260656020526102d060016040862001543390612c99565b612505565b80f35b503461019e57602036600319011261019e57604060c0916004358152610132602052208054906001810154906001600160401b03600282015416600382015490600483015492600560018060a01b039101541693604051958652602086015260408501526060840152608083015260a0820152f35b503461019e57602036600319011261019e57610367611e73565b61037033612ad9565b610379816128c7565b6001600160a01b03167f6de4326a8b9054d72d9dbab97d27bc4edffadee7d966f5af9cc4eafdaf8e54558280a280f35b503461019e578060031936011261019e57602061012f54604051908152f35b503461019e578060031936011261019e5761019a61018661207e565b503461019e578060031936011261019e57602090604051908152f35b503461019e57604036600319011261019e5760043561041d611e58565b9061042733612ad9565b80835261013291826020526040842054156104a2576001600160a01b0316918215610490578184526020526040832060050180546001600160a01b031916831790557f667925a9bdae8446a1b9442b13ed4c01f57a9b33ed84c5f58992a6d5be8c2f868380a380f35b60405163867915ab60e01b8152600490fd5b60405163b6df4bdb60e01b8152600490fd5b5060e036600319011261019e576004356104cc611fe0565b906104d5612020565b6084356001600160401b03811161096a576104f4903690600401611ff3565b60a4356001600160401b03811161096657610513903690600401611ff3565b939060c4356001600160401b03811161096257610534903690600401611fc2565b95808952610132908160205260408a2054156104a257426001600160401b0385161061095057841561093e5787511561092c576044351561091a5789526020526040882095610584368587611f8b565b80519060200120604051602081019088858337808981018d6020820152038082526020016105b29082611f4f565b5190206040519060208201927f3e7a516fe2d41e22e28fe9cb74cd05e64b2325fb408b583b94d2c278ea87d459845260443560408401526001600160401b0387166060840152608083015260a082015260a0815261060f81611e9f565b51902061061b9061257b565b9061062591612e40565b61062e91612e7c565b61063790612ad9565b855493600387015496600401549661012f90815461065590826125de565b3410610908576106be968b5261013360205260408b20555461067b6101309182546125de565b905561013154604051634918d76b60e01b815263ffffffff8a166004820152602481018990529560209187916001600160a01b0390911690829081906044820190565b03915afa9485156108fd5789956108cc575b50604051938460808101106001600160401b036080870111176108b85761076c6001600160401b03610737879561072861078b98968f9b9a96608061077f98016040526044358a528560208b01991689523691611f8b565b9a604088019b8c523691611f8b565b94856060820152519351169751604051988994600260208701526040860152606085015260a0608085015260c0840190612059565b601f1993848483030160a0850152612059565b03908101855284611f4f565b604080516377d2b77160e01b815260048101869052602481019190915292906001600160a01b0316602084806107c46044820186612059565b0381845afa9384156108ad578394610879575b50803b156108755761080d9160405194858094819363e289adcd60e01b8352896004840152604060248401526044830190612059565b03925af1801561086a57610857575b5060405190815263ffffffff339216907f67a4c03bf8579f3c9861215d59876074cd52df280ba316d73f0eecc7aacbe160602060443592a480f35b61086390939193611ed0565b913861081c565b6040513d86823e3d90fd5b8280fd5b9093506020813d6020116108a5575b8161089560209383611f4f565b81010312610875575192386107d7565b3d9150610888565b6040513d85823e3d90fd5b634e487b7160e01b8a52604160045260248afd5b6108ef91955060203d6020116108f6575b6108e78183611f4f565b810190612601565b93386106d0565b503d6108dd565b6040513d8b823e3d90fd5b604051636bae82db60e11b8152600490fd5b6040516313b96ac560e31b8152600490fd5b6040516337e8456b60e01b8152600490fd5b6040516391ea306f60e01b8152600490fd5b604051633b1e6c5f60e11b8152600490fd5b8880fd5b8680fd5b8480fd5b503461019e57604036600319011261019e5760ff604060209261098f611e58565b6004358252606585528282206001600160a01b03909116825284522054604051911615158152f35b503461019e578060031936011261019e576097541580610abb575b15610a7e57610a21906109e3612986565b906109ec612a3a565b90604051916109fa83611ee3565b818352610a2f602091604051968796600f60f81b885260e0602089015260e0880190612059565b908682036040880152612059565b904660608601523060808601528260a086015284820360c0860152602080855193848152019401925b828110610a6757505050500390f35b835185528695509381019392810192600101610a58565b60405162461bcd60e51b81526020600482015260156024820152741152540dcc4c8e88155b9a5b9a5d1a585b1a5e9959605a1b6044820152606490fd5b50609854156109d2565b503461019e57602036600319011261019e577fdc0410a296e1e33943a772020d333d5f99319d7fcad932a484c53889f7aaa2b16020600435610b0633612ad9565b8061012f55604051908152a180f35b503461019e57608036600319011261019e57610b2f611e58565b610b37611e89565b606435916001600160a01b0390818416840361096a5784549360ff8560081c16159485809661107a575b8015611063575b156110075760ff198116600117875585610ff6575b5082821615610490578284161561049057610b9e9060043561012f556128c7565b60ff855460081c16610baf816128ec565b610bb761207e565b610bd1610bc26120b7565b92610bcc816128ec565b6128ec565b8051906001600160401b038211610fe2578190610bef60995461294c565b601f8111610f6d575b50602090601f8311600114610ef7578992610eec575b50508160011b916000199060031b1c1916176099555b8051906001600160401b038211610ed8578190610c42609a5461294c565b601f8111610e6a575b50602090601f8311600114610de7578892610ddc575b50508160011b916000199060031b1c191617609a555b8460975584609855610c8f60ff865460081c166128ec565b848052606560205260408520828216865260205260ff60408620541615610d8a575b507f97667070c54ef182b0f5858b034beac1b6f3089aa2d3188bb1e8929f4fa9b92990818552606560205260408520818416865260205260ff60408620541615610d37575b505050610d005780f35b61ff001981541681557f7f26b83ff96e1f2b6a682f133852f6798a09c465da95921460cefb3847402498602060405160018152a180f35b818552606560205260408520818416865260205260408520600160ff19825416179055339216907f2f8788117e7eff1d82e926ec794901d17c78024a50270940304540a733656f0d8580a4388080610cf6565b848052606560205260408520828216865260205260408520600160ff1982541617905581339116857f2f8788117e7eff1d82e926ec794901d17c78024a50270940304540a733656f0d8180a438610cb1565b015190503880610c61565b609a89527f44da158ba27f9252712a74ff6a55c5d531f69609f1f6e7f17c4443a8e2089be49250601f198416895b818110610e525750908460019594939210610e39575b505050811b01609a55610c77565b015160001960f88460031b161c19169055388080610e2b565b92936020600181928786015181550195019301610e15565b909150609a88527f44da158ba27f9252712a74ff6a55c5d531f69609f1f6e7f17c4443a8e2089be4601f840160051c81019160208510610ece575b90601f859493920160051c01905b818110610ec05750610c4b565b898155849350600101610eb3565b9091508190610ea5565b634e487b7160e01b87526041600452602487fd5b015190503880610c0e565b9250609989526000805160206131e28339815191529089935b601f1984168510610f52576001945083601f19811610610f39575b505050811b01609955610c24565b015160001960f88460031b161c19169055388080610f2b565b81810151835560209485019460019093019290910190610f10565b90915060998952601f830160051c6000805160206131e2833981519152019060208410610fcc575b90601f8493920160051c6000805160206131e283398151915201905b818110610fbe5750610bf8565b8a8155849350600101610fb1565b6000805160206131e28339815191529150610f95565b634e487b7160e01b88526041600452602488fd5b61ffff191661010117865538610b7d565b60405162461bcd60e51b815260206004820152602e60248201527f496e697469616c697a61626c653a20636f6e747261637420697320616c72656160448201526d191e481a5b9a5d1a585b1a5e995960921b6064820152608490fd5b50303b158015610b685750600160ff821614610b68565b50600160ff821610610b61565b5061014036600319011261019e5761109d611fe0565b6001600160401b0360443516604435036112285760a4356001600160a01b03811690036112285760c4356001600160401b038111610875576110e3903690600401611ff3565b9060e4356001600160401b03811161096a57611103903690600401611ff3565b9290916001600160401b03610104351161122c57856111283661010435600401611ff3565b91906001600160401b0361012435116112285784926111ea6111f0926111e28a6111cc6111da8c6111f9996111b4602061118e8f61118661116f3661012435600401611ff3565b9e909c60643560443560a435608435600435612257565b9f3691611f8b565b818151910120966040519381859284840197883782019083820152038084520182611f4f565b5190206040519283916020830195336004358861220d565b03601f198101835282611f4f565b51902061257b565b923691611f8b565b90612e40565b90929192612e7c565b6001600160a01b0390811660a4359091160361092c576102d59560443591608435916064359160043590612620565b5080fd5b8580fd5b503461019e578060031936011261019e57602061013054604051908152f35b5060a036600319011261019e57600435611267611fe0565b6001600160401b039060443582811161096a57611288903690600401611ff3565b90606435848111610966576112a1903690600401611ff3565b9590608435868111610962576112bb903690600401611ff3565b969095838a52610132986020938a855260408c2054156104a257871561093e57811561092c578b9a868c5285528960408c20958a60018801549d828b8d369061130392611f8b565b818151910120946040519281849284840196873782019083820152038083520161132d9082611f4f565b519020908d60405192839283019433611346938761220d565b03601f19810182526113589082611f4f565b5190206113649061257b565b60058601546001600160a01b03908116939092611382913691611f8b565b61138b91612e40565b61139491612e7c565b160361092c576102d598600384015492600260048601549501541694612620565b503461019e578060031936011261019e577f00000000000000000000000000000000000000000000000000000000000000006001600160a01b0316300361140e5760206040516000805160206131c28339815191528152f35b60405162461bcd60e51b815260206004820152603860248201527f555550535570677261646561626c653a206d757374206e6f742062652063616c60448201527f6c6564207468726f7567682064656c656761746563616c6c00000000000000006064820152608490fd5b503461019e5760208060031936011261122857611494611e73565b8280526065825260408320338452825260ff6040842054161561150e576001600160a01b0316908115610490577f7fcf532c15f0a6db0bd6d0e038bea71d30d808c7d98cb3bf7268a95bf5081b65906101308481549161150382808080878b5af16114fd6120d8565b50612108565b55604051908152a280f35b5061151833612f28565b91806040519061152782611f34565b604282528382019260603685378251156116b85760308453825190600191600110156116b85790607860218501536041915b81831161164a57505050611607576115d3936115e29260489260405196879376020b1b1b2b9b9a1b7b73a3937b61d1030b1b1b7bab73a1604d1b888601526115aa815180928a603789019101612036565b8401917001034b99036b4b9b9b4b733903937b6329607d1b603784015251809386840190612036565b01036028810185520183611f4f565b61160360405192839262461bcd60e51b845260048401526024830190612059565b0390fd5b6064836040519062461bcd60e51b825280600483015260248201527f537472696e67733a20686578206c656e67746820696e73756666696369656e746044820152fd5b909192600f811660108110156116a4576f181899199a1a9b1b9c1cb0b131b232b360811b901a61167a8587612f01565b5360041c92801561169057600019019190611559565b634e487b7160e01b82526011600452602482fd5b634e487b7160e01b83526032600452602483fd5b634e487b7160e01b81526032600452602490fd5b50604036600319011261019e576116e1611e73565b6024356001600160401b03811161087557611700903690600401611fc2565b6001600160a01b037f0000000000000000000000000000000000000000000000000000000000000000811692919061173a3085141561214b565b6117576000805160206131c28339815191529482865416146121ac565b61176033612ad9565b7f4910fdfa16fed3260ed0e7147f7cc6da11a60208b5b9406d12a635614ffd91435460ff16156117965750506102d59150612db0565b82919216604051936352d1902d60e01b85526020948581600481865afa879181611932575b5061181c5760405162461bcd60e51b815260048101879052602e60248201527f45524331393637557067726164653a206e657720696d706c656d656e7461746960448201526d6f6e206973206e6f74205555505360901b6064820152608490fd5b949394036118db5761182d82612db0565b7fbc7cd75a20ee27fd9adebab32041f755214dbc6bffa90cc0225b39da2e5c2d3b8580a2838351158015906118d3575b611869575b5050505080f35b806118c9946040519461187b86611efe565b602786527f416464726573733a206c6f772d6c6576656c2064656c65676174652063616c6c81870152660819985a5b195960ca1b604087015281519101845af46118c36120d8565b91613128565b5038808083611862565b50600161185d565b60405162461bcd60e51b815260048101849052602960248201527f45524331393637557067726164653a20756e737570706f727465642070726f786044820152681a58589b195555525160ba1b6064820152608490fd5b9091508681813d831161195e575b61194a8183611f4f565b8101031261195a575190386117bb565b8780fd5b503d611940565b503461019e5760208060031936011261122857611980611e73565b6001600160a01b037f000000000000000000000000000000000000000000000000000000000000000081166119b73082141561214b565b6119d46000805160206131c28339815191529183835416146121ac565b6119dd33612ad9565b604051916119ea83611ee3565b8583527f4910fdfa16fed3260ed0e7147f7cc6da11a60208b5b9406d12a635614ffd91435460ff1615611a24575050506102d59150612db0565b83929316906040516352d1902d60e01b81528581600481865afa879181611af9575b50611aa75760405162461bcd60e51b815260048101879052602e60248201527f45524331393637557067726164653a206e657720696d706c656d656e7461746960448201526d6f6e206973206e6f74205555505360901b6064820152608490fd5b949394036118db57611ab882612db0565b7fbc7cd75a20ee27fd9adebab32041f755214dbc6bffa90cc0225b39da2e5c2d3b8580a283835115801590611af257611869575050505080f35b508061185d565b9091508681813d8311611b21575b611b118183611f4f565b8101031261195a57519038611a46565b503d611b07565b503461019e57604036600319011261019e57611b42611e58565b336001600160a01b03821603611b5e576102d590600435612505565b60405162461bcd60e51b815260206004820152602f60248201527f416363657373436f6e74726f6c3a2063616e206f6e6c792072656e6f756e636560448201526e103937b632b9903337b91039b2b63360891b6064820152608490fd5b503461019e57604036600319011261019e5760043580825261013290816020526040832054156104a257808352602082905260408320600501546001600160a01b03163303611c17578252602052602435600360408320015580f35b604051632d7e4ee760e21b8152600490fd5b503461019e57604036600319011261019e57600435611c46611e58565b8183526065602052611c6060016040852001543390612c99565b8183526065602052604083209060018060a01b03169081845260205260ff60408420541615611c8d578280f35b81835260656020526040832081845260205260408320600160ff1982541617905533917f2f8788117e7eff1d82e926ec794901d17c78024a50270940304540a733656f0d8480a438808280f35b503461019e57602036600319011261019e5760016040602092600435815260658452200154604051908152f35b503461019e57604036600319011261019e57600435611d24611e58565b908083526101326020908082526040852054156104a2576001600160a01b039384169384156104905760a09184875283526040862090600560405192611d6984611e9f565b805484526001810154868501526001600160401b036002820154166040850152600381015460608501526004810154608085015201541691829101523303611c1757817f7fcf532c15f0a6db0bd6d0e038bea71d30d808c7d98cb3bf7268a95bf5081b65928552610133808352604086205491611def87808080878b5af16114fd6120d8565b86528252846040812055604051908152a280f35b9050346112285760203660031901126112285760043563ffffffff60e01b81168091036108755760209250637965db0b60e01b8114908115611e47575b5015158152f35b6301ffc9a760e01b14905038611e40565b602435906001600160a01b0382168203611e6e57565b600080fd5b600435906001600160a01b0382168203611e6e57565b604435906001600160a01b0382168203611e6e57565b60c081019081106001600160401b03821117611eba57604052565b634e487b7160e01b600052604160045260246000fd5b6001600160401b038111611eba57604052565b602081019081106001600160401b03821117611eba57604052565b606081019081106001600160401b03821117611eba57604052565b604081019081106001600160401b03821117611eba57604052565b608081019081106001600160401b03821117611eba57604052565b90601f801991011681019081106001600160401b03821117611eba57604052565b6001600160401b038111611eba57601f01601f191660200190565b929192611f9782611f70565b91611fa56040519384611f4f565b829481845281830111611e6e578281602093846000960137010152565b9080601f83011215611e6e57816020611fdd93359101611f8b565b90565b6024359063ffffffff82168203611e6e57565b9181601f84011215611e6e578235916001600160401b038311611e6e5760208381860195010111611e6e57565b606435906001600160401b0382168203611e6e57565b60005b8381106120495750506000910152565b8181015183820152602001612039565b9060209161207281518092818552858086019101612036565b601f01601f1916010190565b6040519061208b82611f19565b601e82527f5275627973636f72655f53696e676c655f4964656e7469666965725f496400006020830152565b604051906120c482611f19565b6005825264302e302e3160d81b6020830152565b3d15612103573d906120e982611f70565b916120f76040519384611f4f565b82523d6000602084013e565b606090565b1561210f57565b60405162461bcd60e51b81526020600482015260146024820152732330b4b632b2103a379039b2b7321022ba3432b960611b6044820152606490fd5b1561215257565b60405162461bcd60e51b815260206004820152602c60248201527f46756e6374696f6e206d7573742062652063616c6c6564207468726f7567682060448201526b19195b1959d85d1958d85b1b60a21b6064820152608490fd5b156121b357565b60405162461bcd60e51b815260206004820152602c60248201527f46756e6374696f6e206d7573742062652063616c6c6564207468726f7567682060448201526b6163746976652070726f787960a01b6064820152608490fd5b9094939260809260a08301967f3099343916b7010ba6d9380d3a62b19ae833bcc0f9214c67d2f40a9c3221f4348452602084015260018060a01b0316604083015260608201520152565b9592939190949580156124f357426001600160401b03861611156109505785156124e1576001600160a01b0382161561049057831561092c576040516020810190828252876040820152604081526122ae81611efe565b51902096876000526101326020526040600020546124cf57604051937f4ca32b9a8081768eaf659394675352d8db0fa6a79fc24bc3caa33e9bc161b9b9602086015282604086015260018060a01b03841660608601528760808601528060a08601526001600160401b03871660c086015260c085528460e08101106001600160401b0360e087011117611eba57889661241361240e6111f07f1e25e2f1371ab2b801f4d9d7359bd854406ce605572b1b994ba7b32c5da121f7996111ea6005976111e28c60e060209e016040528d815191012061238961207e565b8e81519101206123976120b7565b8f81519101206040519060208201927f8b73c3c69bb8fe3d512ecc4cf759cc79239f7b179b0ffacaa9a75d522b39400f84526040830152606082015260006080820152600060a082015260a081526123ee81611e9f565b5190206042916040519161190160f01b8352600283015260228201522090565b612ad9565b6040519161242083611e9f565b8883528683019485526001600160401b0360408401921682526060830190815260808301918a835260a084019560018060a01b03881687528a60005261013289526040600020945185555160018501556001600160401b03600285019151166001600160401b0319825416179055516003830155516004820155019060018060a01b039051166bffffffffffffffffffffffff60a01b82541617905560405194855260018060a01b031693a390565b6040516399ed5a0360e01b8152600490fd5b604051636fd794c760e01b8152600490fd5b60405163335ece0360e01b8152600490fd5b906000918083526065602052604083209160018060a01b03169182845260205260ff60408420541661253657505050565b8083526065602052604083208284526020526040832060ff1981541690557ff6391f5c32d9c69d2a47ea670b442974b53935d1edc7fd64eb21e047a839171b339380a4565b611fdd906125876130b7565b61258f613102565b6040519060208201927f8b73c3c69bb8fe3d512ecc4cf759cc79239f7b179b0ffacaa9a75d522b39400f8452604083015260608201524660808201523060a082015260a081526123ee81611e9f565b919082018092116125eb57565b634e487b7160e01b600052601160045260246000fd5b90816020910312611e6e57516001600160a01b0381168103611e6e5790565b9397919896929495909661012f966126398854886125de565b3410610908578a946126ab9460009788526020996101338b526040998a8a2055546126686101309182546125de565b9055610131548951634918d76b60e01b815263ffffffff9098166004890152602488018d90526001600160a01b0397968b918891908a1690829081906044820190565b03915afa9586156128bd57889661289e575b508851946001600160401b039260a087018481118882101761288a57958795858f9b8f978f9760019f9e61275e98849f9e986127269461277d9f9c8e612717956127719f83528d528c019b338d5201981688523691611f8b565b9560608c019687523691611f8b565b98896080820152519451169151169151928d519c8d978801528d8701526060860152608085015260c060a085015260e0840190612059565b601f1993848483030160c0850152612059565b03908101865285611f4f565b168351926377d2b77160e01b84528760048501528460248501528584806127a76044820185612059565b0381855afa938415612880578394612851575b50813b156108755782916127f091865195868094819363e289adcd60e01b83528d60048401528a60248401526044830190612059565b03925af19081156128465750907f99846cbfae302af9a36c958b82461e643139f9aff8e6d0e5ee931d7065553737939291612837575b505193845263ffffffff33951693a4565b61284090611ed0565b38612826565b8351903d90823e3d90fd5b9093508581813d8311612879575b6128698183611f4f565b81010312610875575192386127ba565b503d61285f565b85513d85823e3d90fd5b634e487b7160e01b8b52604160045260248bfd5b6128b69196508a3d8c116108f6576108e78183611f4f565b94386126bd565b89513d8a823e3d90fd5b6001600160a01b031680156104905761013180546001600160a01b0319169091179055565b156128f357565b60405162461bcd60e51b815260206004820152602b60248201527f496e697469616c697a61626c653a20636f6e7472616374206973206e6f74206960448201526a6e697469616c697a696e6760a81b6064820152608490fd5b90600182811c9216801561297c575b602083101461296657565b634e487b7160e01b600052602260045260246000fd5b91607f169161295b565b604051906000826099549161299a8361294c565b80835292602090600190818116908115612a1657506001146129c7575b50506129c592500383611f4f565b565b91509260996000526000805160206131e2833981519152936000925b8284106129fe57506129c594505050810160200138806129b7565b855488850183015294850194879450928101926129e3565b915050602092506129c594915060ff191682840152151560051b82010138806129b7565b60405190600082609a5491612a4e8361294c565b80835292602090600190818116908115612a165750600114612a785750506129c592500383611f4f565b915092609a6000527f44da158ba27f9252712a74ff6a55c5d531f69609f1f6e7f17c4443a8e2089be4936000925b828410612ac157506129c594505050810160200138806129b7565b85548885018301529485019487945092810192612aa6565b6001600160a01b031660008181527fbdd154b7c599a43e8b8410b62e84571cd69a79e95c9fc5b630a687cb7c97edf96020908152604080832054909391927f97667070c54ef182b0f5858b034beac1b6f3089aa2d3188bb1e8929f4fa9b92992909160ff1615612b4a575050505050565b612b5390612f28565b91845190612b6082611f34565b604282528482019260603685378251156116b85760308453825190600191600110156116b85790607860218501536041915b818311612c5357505050612c11576048611603938693612bf593612be6985198899376020b1b1b2b9b9a1b7b73a3937b61d1030b1b1b7bab73a1604d1b8a8601526115aa815180928c603789019101612036565b01036028810187520185611f4f565b5192839262461bcd60e51b845260048401526024830190612059565b60648486519062461bcd60e51b825280600483015260248201527f537472696e67733a20686578206c656e67746820696e73756666696369656e746044820152fd5b909192600f811660108110156116a4576f181899199a1a9b1b9c1cb0b131b232b360811b901a612c838587612f01565b5360041c92801561169057600019019190612b92565b600090808252602091606583526040938482209060018060a01b031690818352845260ff858320541615612cce575050505050565b612cd790612f28565b91845190612ce482611f34565b604282528482019260603685378251156116b85760308453825190600191600110156116b85790607860218501536041915b818311612d6a57505050612c11576048611603938693612bf593612be6985198899376020b1b1b2b9b9a1b7b73a3937b61d1030b1b1b7bab73a1604d1b8a8601526115aa815180928c603789019101612036565b909192600f811660108110156116a4576f181899199a1a9b1b9c1cb0b131b232b360811b901a612d9a8587612f01565b5360041c92801561169057600019019190612d16565b803b15612de5576000805160206131c283398151915280546001600160a01b0319166001600160a01b03909216919091179055565b60405162461bcd60e51b815260206004820152602d60248201527f455243313936373a206e657720696d706c656d656e746174696f6e206973206e60448201526c1bdd08184818dbdb9d1c9858dd609a1b6064820152608490fd5b8151919060418303612e7157612e6a92506020820151906060604084015193015160001a90613027565b9192909190565b505060009160029190565b6004811015612eeb5780612e8e575050565b60018103612ea85760405163f645eedf60e01b8152600490fd5b60028103612ec95760405163fce698f760e01b815260048101839052602490fd5b600314612ed35750565b602490604051906335e2f38360e21b82526004820152fd5b634e487b7160e01b600052602160045260246000fd5b908151811015612f12570160200190565b634e487b7160e01b600052603260045260246000fd5b60405190612f3582611efe565b602a8252602082016040368237825115612f125760309053815160019060011015612f1257607860218401536029905b808211612fb9575050612f755790565b606460405162461bcd60e51b815260206004820152602060248201527f537472696e67733a20686578206c656e67746820696e73756666696369656e746044820152fd5b9091600f81166010811015613012576f181899199a1a9b1b9c1cb0b131b232b360811b901a612fe88486612f01565b5360041c918015612ffd576000190190612f65565b60246000634e487b7160e01b81526011600452fd5b60246000634e487b7160e01b81526032600452fd5b91907f7fffffffffffffffffffffffffffffff5d576e7357a4501ddfe92f46681b20a084116130ab57926020929160ff608095604051948552168484015260408301526060820152600092839182805260015afa1561309f5780516001600160a01b0381161561309657918190565b50809160019190565b604051903d90823e3d90fd5b50505060009160039190565b6130bf612986565b80519081156130cf576020012090565b505060975480156130dd5790565b507fc5d2460186f7233c927e7db2dcc703c0e500b653ca82273b7bfad8045d85a47090565b61310a612a3a565b805190811561311a576020012090565b505060985480156130dd5790565b9192901561318a575081511561313c575090565b3b156131455790565b60405162461bcd60e51b815260206004820152601d60248201527f416464726573733a2063616c6c20746f206e6f6e2d636f6e74726163740000006044820152606490fd5b82519091501561319d5750805190602001fd5b60405162461bcd60e51b81526020600482015290819061160390602483019061205956fe360894a13ba1a3210667c828492db98dca3e2076cc3735a920a3ca505d382bbc72a152ddfb8e864297c917af52ea6c1c68aead0fee1a62673fcc7e0c94979d00a2646970667358221220e29560fd6ee55c4a19ff5358a0d4a8dd0ba09993b32ed2ab18a51363a60d35db64736f6c63430008180033",
  "devdoc": {
    "errors": {
      "ECDSAInvalidSignature()": [
        {
          "details": "The signature derives the `address(0)`."
        }
      ],
      "ECDSAInvalidSignatureLength(uint256)": [
        {
          "details": "The signature has an invalid length."
        }
      ],
      "ECDSAInvalidSignatureS(bytes32)": [
        {
          "details": "The signature has an S value that is in the upper half order."
        }
      ]
    },
    "events": {
      "AdminChanged(address,address)": {
        "details": "Emitted when the admin account has changed."
      },
      "BeaconUpgraded(address)": {
        "details": "Emitted when the beacon is changed."
      },
      "EIP712DomainChanged()": {
        "details": "MAY be emitted to signal that the domain could have changed."
      },
      "Initialized(uint8)": {
        "details": "Triggered when the contract has been initialized or reinitialized."
      },
      "RoleAdminChanged(bytes32,bytes32,bytes32)": {
        "details": "Emitted when `newAdminRole` is set as ``role``'s admin role, replacing `previousAdminRole` `DEFAULT_ADMIN_ROLE` is the starting admin for all roles, despite {RoleAdminChanged} not being emitted signaling this. _Available since v3.1._"
      },
      "RoleGranted(bytes32,address,address)": {
        "details": "Emitted when `account` is granted `role`. `sender` is the account that originated the contract call, an admin role bearer except when using {AccessControl-_setupRole}."
      },
      "RoleRevoked(bytes32,address,address)": {
        "details": "Emitted when `account` is revoked `role`. `sender` is the account that originated the contract call:   - if using `revokeRole`, it is the admin role bearer   - if using `renounceRole`, it is the role bearer (i.e. `account`)"
      },
      "Upgraded(address)": {
        "details": "Emitted when the implementation is upgraded."
      }
    },
    "kind": "dev",
    "methods": {
      "eip712Domain()": {
        "details": "See {EIP-5267}. _Available since v4.9._"
      },
      "getRoleAdmin(bytes32)": {
        "details": "Returns the admin role that controls `role`. See {grantRole} and {revokeRole}. To change a role's admin, use {_setRoleAdmin}."
      },
      "grantRole(bytes32,address)": {
        "details": "Grants `role` to `account`. If `account` had not been already granted `role`, emits a {RoleGranted} event. Requirements: - the caller must have ``role``'s admin role. May emit a {RoleGranted} event."
      },
      "hasRole(bytes32,address)": {
        "details": "Returns `true` if `account` has been granted `role`."
      },
      "proxiableUUID()": {
        "details": "Implementation of the ERC1822 {proxiableUUID} function. This returns the storage slot used by the implementation. It is used to validate the implementation's compatibility when performing an upgrade. IMPORTANT: A proxy pointing at a proxiable contract should not be considered proxiable itself, because this risks bricking a proxy that upgrades to it, by delegating to itself until out of gas. Thus it is critical that this function revert if invoked through a proxy. This is guaranteed by the `notDelegated` modifier."
      },
      "renounceRole(bytes32,address)": {
        "details": "Revokes `role` from the calling account. Roles are often managed via {grantRole} and {revokeRole}: this function's purpose is to provide a mechanism for accounts to lose their privileges if they are compromised (such as when a trusted device is misplaced). If the calling account had been revoked `role`, emits a {RoleRevoked} event. Requirements: - the caller must be `account`. May emit a {RoleRevoked} event."
      },
      "revokeRole(bytes32,address)": {
        "details": "Revokes `role` from `account`. If `account` had been granted `role`, emits a {RoleRevoked} event. Requirements: - the caller must have ``role``'s admin role. May emit a {RoleRevoked} event."
      },
      "supportsInterface(bytes4)": {
        "details": "See {IERC165-supportsInterface}."
      },
      "upgradeTo(address)": {
        "custom:oz-upgrades-unsafe-allow-reachable": "delegatecall",
        "details": "Upgrade the implementation of the proxy to `newImplementation`. Calls {_authorizeUpgrade}. Emits an {Upgraded} event."
      },
      "upgradeToAndCall(address,bytes)": {
        "custom:oz-upgrades-unsafe-allow-reachable": "delegatecall",
        "details": "Upgrade the implementation of the proxy to `newImplementation`, and subsequently execute the function call encoded in `data`. Calls {_authorizeUpgrade}. Emits an {Upgraded} event."
      }
    },
    "version": 1
  },
  "userdoc": {
    "kind": "user",
    "methods": {},
    "version": 1
  },
  "storageLayout": {
    "storage": [
      {
        "astId": 5146,
        "contract": "contracts/SingleIdentifierID.sol:SingleIdentifierID",
        "label": "_initialized",
        "offset": 0,
        "slot": "0",
        "type": "t_uint8"
      },
      {
        "astId": 5149,
        "contract": "contracts/SingleIdentifierID.sol:SingleIdentifierID",
        "label": "_initializing",
        "offset": 1,
        "slot": "0",
        "type": "t_bool"
      },
      {
        "astId": 5815,
        "contract": "contracts/SingleIdentifierID.sol:SingleIdentifierID",
        "label": "__gap",
        "offset": 0,
        "slot": "1",
        "type": "t_array(t_uint256)50_storage"
      },
      {
        "astId": 6848,
        "contract": "contracts/SingleIdentifierID.sol:SingleIdentifierID",
        "label": "__gap",
        "offset": 0,
        "slot": "51",
        "type": "t_array(t_uint256)50_storage"
      },
      {
        "astId": 4248,
        "contract": "contracts/SingleIdentifierID.sol:SingleIdentifierID",
        "label": "_roles",
        "offset": 0,
        "slot": "101",
        "type": "t_mapping(t_bytes32,t_struct(RoleData)4243_storage)"
      },
      {
        "astId": 4543,
        "contract": "contracts/SingleIdentifierID.sol:SingleIdentifierID",
        "label": "__gap",
        "offset": 0,
        "slot": "102",
        "type": "t_array(t_uint256)49_storage"
      },
      {
        "astId": 6539,
        "contract": "contracts/SingleIdentifierID.sol:SingleIdentifierID",
        "label": "_hashedName",
        "offset": 0,
        "slot": "151",
        "type": "t_bytes32"
      },
      {
        "astId": 6542,
        "contract": "contracts/SingleIdentifierID.sol:SingleIdentifierID",
        "label": "_hashedVersion",
        "offset": 0,
        "slot": "152",
        "type": "t_bytes32"
      },
      {
        "astId": 6544,
        "contract": "contracts/SingleIdentifierID.sol:SingleIdentifierID",
        "label": "_name",
        "offset": 0,
        "slot": "153",
        "type": "t_string_storage"
      },
      {
        "astId": 6546,
        "contract": "contracts/SingleIdentifierID.sol:SingleIdentifierID",
        "label": "_version",
        "offset": 0,
        "slot": "154",
        "type": "t_string_storage"
      },
      {
        "astId": 6804,
        "contract": "contracts/SingleIdentifierID.sol:SingleIdentifierID",
        "label": "__gap",
        "offset": 0,
        "slot": "155",
        "type": "t_array(t_uint256)48_storage"
      },
      {
        "astId": 5128,
        "contract": "contracts/SingleIdentifierID.sol:SingleIdentifierID",
        "label": "__gap",
        "offset": 0,
        "slot": "203",
        "type": "t_array(t_uint256)50_storage"
      },
      {
        "astId": 5443,
        "contract": "contracts/SingleIdentifierID.sol:SingleIdentifierID",
        "label": "__gap",
        "offset": 0,
        "slot": "253",
        "type": "t_array(t_uint256)50_storage"
      },
      {
        "astId": 13302,
        "contract": "contracts/SingleIdentifierID.sol:SingleIdentifierID",
        "label": "protocolFee",
        "offset": 0,
        "slot": "303",
        "type": "t_uint256"
      },
      {
        "astId": 13304,
        "contract": "contracts/SingleIdentifierID.sol:SingleIdentifierID",
        "label": "protocolBalance",
        "offset": 0,
        "slot": "304",
        "type": "t_uint256"
      },
      {
        "astId": 13307,
        "contract": "contracts/SingleIdentifierID.sol:SingleIdentifierID",
        "label": "router",
        "offset": 0,
        "slot": "305",
        "type": "t_contract(SingleRouter)15559"
      },
      {
        "astId": 13312,
        "contract": "contracts/SingleIdentifierID.sol:SingleIdentifierID",
        "label": "emitters",
        "offset": 0,
        "slot": "306",
        "type": "t_mapping(t_bytes32,t_struct(Emitter)17183_storage)"
      },
      {
        "astId": 13316,
        "contract": "contracts/SingleIdentifierID.sol:SingleIdentifierID",
        "label": "emittersBalances",
        "offset": 0,
        "slot": "307",
        "type": "t_mapping(t_bytes32,t_uint256)"
      }
    ],
    "types": {
      "t_address": {
        "encoding": "inplace",
        "label": "address",
        "numberOfBytes": "20"
      },
      "t_array(t_uint256)48_storage": {
        "base": "t_uint256",
        "encoding": "inplace",
        "label": "uint256[48]",
        "numberOfBytes": "1536"
      },
      "t_array(t_uint256)49_storage": {
        "base": "t_uint256",
        "encoding": "inplace",
        "label": "uint256[49]",
        "numberOfBytes": "1568"
      },
      "t_array(t_uint256)50_storage": {
        "base": "t_uint256",
        "encoding": "inplace",
        "label": "uint256[50]",
        "numberOfBytes": "1600"
      },
      "t_bool": {
        "encoding": "inplace",
        "label": "bool",
        "numberOfBytes": "1"
      },
      "t_bytes32": {
        "encoding": "inplace",
        "label": "bytes32",
        "numberOfBytes": "32"
      },
      "t_contract(SingleRouter)15559": {
        "encoding": "inplace",
        "label": "contract SingleRouter",
        "numberOfBytes": "20"
      },
      "t_mapping(t_address,t_bool)": {
        "encoding": "mapping",
        "key": "t_address",
        "label": "mapping(address => bool)",
        "numberOfBytes": "32",
        "value": "t_bool"
      },
      "t_mapping(t_bytes32,t_struct(Emitter)17183_storage)": {
        "encoding": "mapping",
        "key": "t_bytes32",
        "label": "mapping(bytes32 => struct Emitter)",
        "numberOfBytes": "32",
        "value": "t_struct(Emitter)17183_storage"
      },
      "t_mapping(t_bytes32,t_struct(RoleData)4243_storage)": {
        "encoding": "mapping",
        "key": "t_bytes32",
        "label": "mapping(bytes32 => struct AccessControlUpgradeable.RoleData)",
        "numberOfBytes": "32",
        "value": "t_struct(RoleData)4243_storage"
      },
      "t_mapping(t_bytes32,t_uint256)": {
        "encoding": "mapping",
        "key": "t_bytes32",
        "label": "mapping(bytes32 => uint256)",
        "numberOfBytes": "32",
        "value": "t_uint256"
      },
      "t_string_storage": {
        "encoding": "bytes",
        "label": "string",
        "numberOfBytes": "32"
      },
      "t_struct(Emitter)17183_storage": {
        "encoding": "inplace",
        "label": "struct Emitter",
        "members": [
          {
            "astId": 17172,
            "contract": "contracts/SingleIdentifierID.sol:SingleIdentifierID",
            "label": "emitterId",
            "offset": 0,
            "slot": "0",
            "type": "t_bytes32"
          },
          {
            "astId": 17174,
            "contract": "contracts/SingleIdentifierID.sol:SingleIdentifierID",
            "label": "schemaId",
            "offset": 0,
            "slot": "1",
            "type": "t_bytes32"
          },
          {
            "astId": 17176,
            "contract": "contracts/SingleIdentifierID.sol:SingleIdentifierID",
            "label": "expirationDate",
            "offset": 0,
            "slot": "2",
            "type": "t_uint64"
          },
          {
            "astId": 17178,
            "contract": "contracts/SingleIdentifierID.sol:SingleIdentifierID",
            "label": "fee",
            "offset": 0,
            "slot": "3",
            "type": "t_uint256"
          },
          {
            "astId": 17180,
            "contract": "contracts/SingleIdentifierID.sol:SingleIdentifierID",
            "label": "registryChainId",
            "offset": 0,
            "slot": "4",
            "type": "t_uint256"
          },
          {
            "astId": 17182,
            "contract": "contracts/SingleIdentifierID.sol:SingleIdentifierID",
            "label": "owner",
            "offset": 0,
            "slot": "5",
            "type": "t_address"
          }
        ],
        "numberOfBytes": "192"
      },
      "t_struct(RoleData)4243_storage": {
        "encoding": "inplace",
        "label": "struct AccessControlUpgradeable.RoleData",
        "members": [
          {
            "astId": 4240,
            "contract": "contracts/SingleIdentifierID.sol:SingleIdentifierID",
            "label": "members",
            "offset": 0,
            "slot": "0",
            "type": "t_mapping(t_address,t_bool)"
          },
          {
            "astId": 4242,
            "contract": "contracts/SingleIdentifierID.sol:SingleIdentifierID",
            "label": "adminRole",
            "offset": 0,
            "slot": "1",
            "type": "t_bytes32"
          }
        ],
        "numberOfBytes": "64"
      },
      "t_uint256": {
        "encoding": "inplace",
        "label": "uint256",
        "numberOfBytes": "32"
      },
      "t_uint64": {
        "encoding": "inplace",
        "label": "uint64",
        "numberOfBytes": "8"
      },
      "t_uint8": {
        "encoding": "inplace",
        "label": "uint8",
        "numberOfBytes": "1"
      }
    }
  }
}