{
  "address": "0x979Be3738f4D0e5f230065F6E4e25e0A3dB1D1AA",
  "abi": [
    {
      "inputs": [],
      "name": "AddressIsZero",
      "type": "error"
    },
    {
      "inputs": [],
      "name": "ECDSAInvalidSignature",
      "type": "error"
    },
    {
      "inputs": [
        {
          "internalType": "uint256",
          "name": "length",
          "type": "uint256"
        }
      ],
      "name": "ECDSAInvalidSignatureLength",
      "type": "error"
    },
    {
      "inputs": [
        {
          "internalType": "bytes32",
          "name": "s",
          "type": "bytes32"
        }
      ],
      "name": "ECDSAInvalidSignatureS",
      "type": "error"
    },
    {
      "inputs": [],
      "name": "EmitterInvalid",
      "type": "error"
    },
    {
      "inputs": [
        {
          "internalType": "bytes",
          "name": "data",
          "type": "bytes"
        }
      ],
      "name": "MethodNotFound",
      "type": "error"
    },
    {
      "inputs": [],
      "name": "OnlyEmitter",
      "type": "error"
    },
    {
      "inputs": [],
      "name": "SIDAlreadyExists",
      "type": "error"
    },
    {
      "inputs": [],
      "name": "SIDNotExists",
      "type": "error"
    },
    {
      "inputs": [],
      "name": "SchemaAlreadyExists",
      "type": "error"
    },
    {
      "inputs": [],
      "name": "SchemaNameMissing",
      "type": "error"
    },
    {
      "inputs": [],
      "name": "SchemaNotExist",
      "type": "error"
    },
    {
      "inputs": [],
      "name": "SchemaStringMissing",
      "type": "error"
    },
    {
      "inputs": [
        {
          "internalType": "address",
          "name": "sender",
          "type": "address"
        }
      ],
      "name": "SenderIsNotPeer",
      "type": "error"
    },
    {
      "inputs": [],
      "name": "SignatureInvalid",
      "type": "error"
    },
    {
      "inputs": [],
      "name": "UnknownSelector",
      "type": "error"
    },
    {
      "anonymous": false,
      "inputs": [
        {
          "indexed": false,
          "internalType": "address",
          "name": "previousAdmin",
          "type": "address"
        },
        {
          "indexed": false,
          "internalType": "address",
          "name": "newAdmin",
          "type": "address"
        }
      ],
      "name": "AdminChanged",
      "type": "event"
    },
    {
      "anonymous": false,
      "inputs": [
        {
          "indexed": true,
          "internalType": "address",
          "name": "beacon",
          "type": "address"
        }
      ],
      "name": "BeaconUpgraded",
      "type": "event"
    },
    {
      "anonymous": false,
      "inputs": [],
      "name": "EIP712DomainChanged",
      "type": "event"
    },
    {
      "anonymous": false,
      "inputs": [
        {
          "indexed": true,
          "internalType": "bytes32",
          "name": "schemaId",
          "type": "bytes32"
        },
        {
          "indexed": true,
          "internalType": "address",
          "name": "emitter",
          "type": "address"
        }
      ],
      "name": "EmitterRevoked",
      "type": "event"
    },
    {
      "anonymous": false,
      "inputs": [
        {
          "indexed": true,
          "internalType": "bytes32",
          "name": "schemaId",
          "type": "bytes32"
        },
        {
          "indexed": true,
          "internalType": "address",
          "name": "newEmitterAddress",
          "type": "address"
        }
      ],
      "name": "EmitterUpdated",
      "type": "event"
    },
    {
      "anonymous": false,
      "inputs": [
        {
          "indexed": false,
          "internalType": "uint8",
          "name": "version",
          "type": "uint8"
        }
      ],
      "name": "Initialized",
      "type": "event"
    },
    {
      "anonymous": false,
      "inputs": [
        {
          "indexed": true,
          "internalType": "bytes32",
          "name": "role",
          "type": "bytes32"
        },
        {
          "indexed": true,
          "internalType": "bytes32",
          "name": "previousAdminRole",
          "type": "bytes32"
        },
        {
          "indexed": true,
          "internalType": "bytes32",
          "name": "newAdminRole",
          "type": "bytes32"
        }
      ],
      "name": "RoleAdminChanged",
      "type": "event"
    },
    {
      "anonymous": false,
      "inputs": [
        {
          "indexed": true,
          "internalType": "bytes32",
          "name": "role",
          "type": "bytes32"
        },
        {
          "indexed": true,
          "internalType": "address",
          "name": "account",
          "type": "address"
        },
        {
          "indexed": true,
          "internalType": "address",
          "name": "sender",
          "type": "address"
        }
      ],
      "name": "RoleGranted",
      "type": "event"
    },
    {
      "anonymous": false,
      "inputs": [
        {
          "indexed": true,
          "internalType": "bytes32",
          "name": "role",
          "type": "bytes32"
        },
        {
          "indexed": true,
          "internalType": "address",
          "name": "account",
          "type": "address"
        },
        {
          "indexed": true,
          "internalType": "address",
          "name": "sender",
          "type": "address"
        }
      ],
      "name": "RoleRevoked",
      "type": "event"
    },
    {
      "anonymous": false,
      "inputs": [
        {
          "indexed": true,
          "internalType": "bytes32",
          "name": "SIDId",
          "type": "bytes32"
        },
        {
          "indexed": true,
          "internalType": "address",
          "name": "user",
          "type": "address"
        }
      ],
      "name": "SIDRegistered",
      "type": "event"
    },
    {
      "anonymous": false,
      "inputs": [
        {
          "indexed": true,
          "internalType": "bytes32",
          "name": "SIDId",
          "type": "bytes32"
        },
        {
          "indexed": true,
          "internalType": "address",
          "name": "user",
          "type": "address"
        }
      ],
      "name": "SIDRevoked",
      "type": "event"
    },
    {
      "anonymous": false,
      "inputs": [
        {
          "indexed": true,
          "internalType": "bytes32",
          "name": "SIDId",
          "type": "bytes32"
        }
      ],
      "name": "SIDUpdated",
      "type": "event"
    },
    {
      "anonymous": false,
      "inputs": [
        {
          "indexed": true,
          "internalType": "bytes32",
          "name": "schemaId",
          "type": "bytes32"
        },
        {
          "indexed": true,
          "internalType": "address",
          "name": "emitter",
          "type": "address"
        }
      ],
      "name": "SchemaRegistered",
      "type": "event"
    },
    {
      "anonymous": false,
      "inputs": [
        {
          "indexed": true,
          "internalType": "address",
          "name": "router",
          "type": "address"
        }
      ],
      "name": "SetRouter",
      "type": "event"
    },
    {
      "anonymous": false,
      "inputs": [
        {
          "indexed": true,
          "internalType": "address",
          "name": "implementation",
          "type": "address"
        }
      ],
      "name": "Upgraded",
      "type": "event"
    },
    {
      "inputs": [],
      "name": "DEFAULT_ADMIN_ROLE",
      "outputs": [
        {
          "internalType": "bytes32",
          "name": "",
          "type": "bytes32"
        }
      ],
      "stateMutability": "view",
      "type": "function"
    },
    {
      "inputs": [],
      "name": "NAME",
      "outputs": [
        {
          "internalType": "string",
          "name": "",
          "type": "string"
        }
      ],
      "stateMutability": "view",
      "type": "function"
    },
    {
      "inputs": [],
      "name": "OPERATOR_ROLE",
      "outputs": [
        {
          "internalType": "bytes32",
          "name": "",
          "type": "bytes32"
        }
      ],
      "stateMutability": "view",
      "type": "function"
    },
    {
      "inputs": [],
      "name": "VERSION",
      "outputs": [
        {
          "internalType": "string",
          "name": "",
          "type": "string"
        }
      ],
      "stateMutability": "view",
      "type": "function"
    },
    {
      "inputs": [],
      "name": "eip712Domain",
      "outputs": [
        {
          "internalType": "bytes1",
          "name": "fields",
          "type": "bytes1"
        },
        {
          "internalType": "string",
          "name": "name",
          "type": "string"
        },
        {
          "internalType": "string",
          "name": "version",
          "type": "string"
        },
        {
          "internalType": "uint256",
          "name": "chainId",
          "type": "uint256"
        },
        {
          "internalType": "address",
          "name": "verifyingContract",
          "type": "address"
        },
        {
          "internalType": "bytes32",
          "name": "salt",
          "type": "bytes32"
        },
        {
          "internalType": "uint256[]",
          "name": "extensions",
          "type": "uint256[]"
        }
      ],
      "stateMutability": "view",
      "type": "function"
    },
    {
      "inputs": [],
      "name": "emitterCounter",
      "outputs": [
        {
          "internalType": "uint256",
          "name": "",
          "type": "uint256"
        }
      ],
      "stateMutability": "view",
      "type": "function"
    },
    {
      "inputs": [
        {
          "internalType": "bytes32",
          "name": "role",
          "type": "bytes32"
        }
      ],
      "name": "getRoleAdmin",
      "outputs": [
        {
          "internalType": "bytes32",
          "name": "",
          "type": "bytes32"
        }
      ],
      "stateMutability": "view",
      "type": "function"
    },
    {
      "inputs": [
        {
          "internalType": "bytes32",
          "name": "role",
          "type": "bytes32"
        },
        {
          "internalType": "address",
          "name": "account",
          "type": "address"
        }
      ],
      "name": "grantRole",
      "outputs": [],
      "stateMutability": "nonpayable",
      "type": "function"
    },
    {
      "inputs": [
        {
          "internalType": "bytes32",
          "name": "role",
          "type": "bytes32"
        },
        {
          "internalType": "address",
          "name": "account",
          "type": "address"
        }
      ],
      "name": "hasRole",
      "outputs": [
        {
          "internalType": "bool",
          "name": "",
          "type": "bool"
        }
      ],
      "stateMutability": "view",
      "type": "function"
    },
    {
      "inputs": [
        {
          "internalType": "address",
          "name": "_operator",
          "type": "address"
        }
      ],
      "name": "initialize",
      "outputs": [],
      "stateMutability": "nonpayable",
      "type": "function"
    },
    {
      "inputs": [],
      "name": "proxiableUUID",
      "outputs": [
        {
          "internalType": "bytes32",
          "name": "",
          "type": "bytes32"
        }
      ],
      "stateMutability": "view",
      "type": "function"
    },
    {
      "inputs": [
        {
          "components": [
            {
              "internalType": "bytes32",
              "name": "schemaId",
              "type": "bytes32"
            },
            {
              "internalType": "address",
              "name": "user",
              "type": "address"
            },
            {
              "internalType": "uint64",
              "name": "expirationDate",
              "type": "uint64"
            },
            {
              "internalType": "bytes",
              "name": "data",
              "type": "bytes"
            },
            {
              "internalType": "string",
              "name": "metadata",
              "type": "string"
            }
          ],
          "internalType": "struct MessageLib.SendMessage",
          "name": "_payload",
          "type": "tuple"
        }
      ],
      "name": "registrySID",
      "outputs": [],
      "stateMutability": "nonpayable",
      "type": "function"
    },
    {
      "inputs": [
        {
          "internalType": "bytes32",
          "name": "role",
          "type": "bytes32"
        },
        {
          "internalType": "address",
          "name": "account",
          "type": "address"
        }
      ],
      "name": "renounceRole",
      "outputs": [],
      "stateMutability": "nonpayable",
      "type": "function"
    },
    {
      "inputs": [
        {
          "internalType": "bytes32",
          "name": "_sidId",
          "type": "bytes32"
        }
      ],
      "name": "revoke",
      "outputs": [],
      "stateMutability": "nonpayable",
      "type": "function"
    },
    {
      "inputs": [
        {
          "internalType": "bytes32",
          "name": "role",
          "type": "bytes32"
        },
        {
          "internalType": "address",
          "name": "account",
          "type": "address"
        }
      ],
      "name": "revokeRole",
      "outputs": [],
      "stateMutability": "nonpayable",
      "type": "function"
    },
    {
      "inputs": [],
      "name": "router",
      "outputs": [
        {
          "internalType": "contract SingleRouter",
          "name": "",
          "type": "address"
        }
      ],
      "stateMutability": "view",
      "type": "function"
    },
    {
      "inputs": [
        {
          "internalType": "address",
          "name": "emitter",
          "type": "address"
        }
      ],
      "name": "schemaIds",
      "outputs": [
        {
          "internalType": "bytes32",
          "name": "schemaId",
          "type": "bytes32"
        }
      ],
      "stateMutability": "view",
      "type": "function"
    },
    {
      "inputs": [
        {
          "components": [
            {
              "internalType": "string",
              "name": "name",
              "type": "string"
            },
            {
              "internalType": "string",
              "name": "description",
              "type": "string"
            },
            {
              "internalType": "string",
              "name": "schema",
              "type": "string"
            },
            {
              "internalType": "address",
              "name": "emitter",
              "type": "address"
            }
          ],
          "internalType": "struct SIDSchemaParams",
          "name": "_schema",
          "type": "tuple"
        },
        {
          "internalType": "bytes",
          "name": "_signature",
          "type": "bytes"
        }
      ],
      "name": "schemaRegistry",
      "outputs": [],
      "stateMutability": "nonpayable",
      "type": "function"
    },
    {
      "inputs": [
        {
          "internalType": "bytes32",
          "name": "schemaId",
          "type": "bytes32"
        }
      ],
      "name": "schemas",
      "outputs": [
        {
          "internalType": "bytes32",
          "name": "schemaId",
          "type": "bytes32"
        },
        {
          "internalType": "string",
          "name": "name",
          "type": "string"
        },
        {
          "internalType": "string",
          "name": "description",
          "type": "string"
        },
        {
          "internalType": "string",
          "name": "schema",
          "type": "string"
        },
        {
          "internalType": "address",
          "name": "emitter",
          "type": "address"
        }
      ],
      "stateMutability": "view",
      "type": "function"
    },
    {
      "inputs": [
        {
          "internalType": "address",
          "name": "_router",
          "type": "address"
        }
      ],
      "name": "setRouter",
      "outputs": [],
      "stateMutability": "nonpayable",
      "type": "function"
    },
    {
      "inputs": [],
      "name": "sidCounter",
      "outputs": [
        {
          "internalType": "uint256",
          "name": "",
          "type": "uint256"
        }
      ],
      "stateMutability": "view",
      "type": "function"
    },
    {
      "inputs": [
        {
          "internalType": "bytes32",
          "name": "id",
          "type": "bytes32"
        }
      ],
      "name": "singleIdentifierData",
      "outputs": [
        {
          "internalType": "bytes32",
          "name": "SIDId",
          "type": "bytes32"
        },
        {
          "internalType": "bytes32",
          "name": "schemaId",
          "type": "bytes32"
        },
        {
          "internalType": "uint64",
          "name": "expirationDate",
          "type": "uint64"
        },
        {
          "internalType": "uint64",
          "name": "revocationDate",
          "type": "uint64"
        },
        {
          "internalType": "bool",
          "name": "revoked",
          "type": "bool"
        },
        {
          "internalType": "address",
          "name": "user",
          "type": "address"
        },
        {
          "internalType": "bytes",
          "name": "data",
          "type": "bytes"
        },
        {
          "internalType": "string",
          "name": "metadata",
          "type": "string"
        }
      ],
      "stateMutability": "view",
      "type": "function"
    },
    {
      "inputs": [
        {
          "internalType": "bytes4",
          "name": "interfaceId",
          "type": "bytes4"
        }
      ],
      "name": "supportsInterface",
      "outputs": [
        {
          "internalType": "bool",
          "name": "",
          "type": "bool"
        }
      ],
      "stateMutability": "view",
      "type": "function"
    },
    {
      "inputs": [
        {
          "components": [
            {
              "internalType": "bytes32",
              "name": "id",
              "type": "bytes32"
            },
            {
              "internalType": "uint64",
              "name": "expirationDate",
              "type": "uint64"
            },
            {
              "internalType": "bytes",
              "name": "data",
              "type": "bytes"
            },
            {
              "internalType": "string",
              "name": "metadata",
              "type": "string"
            }
          ],
          "internalType": "struct MessageLib.UpdateMessage",
          "name": "_payload",
          "type": "tuple"
        }
      ],
      "name": "updateSID",
      "outputs": [],
      "stateMutability": "nonpayable",
      "type": "function"
    },
    {
      "inputs": [
        {
          "internalType": "bytes32",
          "name": "_schemaId",
          "type": "bytes32"
        },
        {
          "internalType": "address",
          "name": "_emitter",
          "type": "address"
        }
      ],
      "name": "updateSchemaEmitter",
      "outputs": [],
      "stateMutability": "nonpayable",
      "type": "function"
    },
    {
      "inputs": [
        {
          "internalType": "address",
          "name": "newImplementation",
          "type": "address"
        }
      ],
      "name": "upgradeTo",
      "outputs": [],
      "stateMutability": "nonpayable",
      "type": "function"
    },
    {
      "inputs": [
        {
          "internalType": "address",
          "name": "newImplementation",
          "type": "address"
        },
        {
          "internalType": "bytes",
          "name": "data",
          "type": "bytes"
        }
      ],
      "name": "upgradeToAndCall",
      "outputs": [],
      "stateMutability": "payable",
      "type": "function"
    }
  ],
  "numDeployments": 1,
  "solcInputHash": "ed2252f80b10e936ef23184019e93e2d",
  "bytecode": "0x60a08060405234610031573060805261322b90816100378239608051818181611c1e01528181611d0c0152611fa20152f35b600080fdfe608080604052600436101561001357600080fd5b60003560e01c90816301ffc9a7146122b257508063248a9ca3146122835780632f2ff15d146121ce57806336568abe1461213c5780633659cfe614611f7d5780634f1ef28614611ccf57806352d1902d14611c0b578063666e458214611bec57806378db91c914611bb157806384b0196e14611a9957806391d1485414611a4c578063a217fddf14611a30578063a330273014611974578063a36198ba1461131a578063a3cbcb2414610fa8578063a3f4df7e14610f8c578063b75c7dc614610e4b578063c0d7865514610de0578063c4d66de8146109db578063ca2adef61461091b578063cc536fc8146108fc578063d547741f146108b9578063f2e4cdea146102b6578063f5b541a61461027b578063f887ea4014610251578063f8cf0489146101815763ffa1ad741461014857600080fd5b3461017c57600036600319011261017c576101786101646126fd565b60405191829160208352602083019061246c565b0390f35b600080fd5b3461017c57602036600319011261017c57600435600052610132602052604060002080549061017860056102436001840154936002810154956001600160401b039660ff60018060a01b0360038501541691610202604051956101f2876101eb8160048501612667565b03886123b8565b6101eb604051809a819301612667565b604051998a99610100958b5260208b015280821660408b01528160401c1660608a015260801c161515608088015260a08701528060c087015285019061246c565b9083820360e085015261246c565b3461017c57600036600319011261017c5761012f546040516001600160a01b039091168152602090f35b3461017c57600036600319011261017c5760206040517f97667070c54ef182b0f5858b034beac1b6f3089aa2d3188bb1e8929f4fa9b9298152f35b3461017c5760031960203682011261017c57600435906001600160401b03821161017c5760a090823603011261017c57604051906102f382612331565b6004810135825260248101356001600160a01b038116810361017c57602083015261032060448201612491565b916040810192835260648201356001600160401b03811161017c5761034b906004369185010161242b565b91606082019283526084810135906001600160401b03821161017c576004610376923692010161242b565b916080820192835260405163167ac65160e31b8152602081600481335afa908115610880576103ee9160209160009161088c575b5061012f54604051636a80cdc560e11b815246600482015263ffffffff9092166024830152336044830152909283916001600160a01b031690829081906064820190565b03915afa90811561088057600091610851575b501561083957815160005261013060205260406000206040519061042482612331565b805482526040516104438161043c8160018601612667565b03826123b8565b602083015260405161045c8161043c8160028601612667565b60408301526040516104758161043c8160038601612667565b6060830152600401546001600160a01b031660808201525115610827578151602083015160405190602082019283526001600160601b03199060601b166040820152603481526104c481612367565b5190209283600052610132602052604060002054610815576001600160401b0383519551169160018060a01b03602085015116905191519260405196876101008101106001600160401b036101008a01111761078657610100880160405286885260208801526040870152600060608701526000608087015260a086015260c085015260e08401528160005261013260205260406000208351815560208401516001820155600281016001600160401b036040860151166001600160401b03198254161781556105c46001600160401b03606087015116829067ffffffffffffffff60401b82549160401b169067ffffffffffffffff60401b1916179055565b608085810151825460ff60801b191690151590911b60ff60801b1617905560a08401516003820180546001600160a01b0319166001600160a01b039290921691909117905560c0840151805160048301916001600160401b038211610786576106378261063185546124eb565b8561284d565b602090601f83116001146107a7578260e095936005959361066f9360009261079c575b50508160011b916000199060031b1c19161790565b90555b019301519283516001600160401b0381116107865761069b8161069584546124eb565b8461284d565b602094601f8211600114610720576106ce9293949582916000926107155750508160011b916000199060031b1c19161790565b90555b6101336106de8154612894565b9055602001516001600160a01b0316907fcdb4f4c227298777a68324767904e59ae71f9be763842b8b3beb0d0c6d4bfcd4600080a3005b01519050868061065a565b601f198216958360005260206000209160005b88811061076e57508360019596979810610755575b505050811b0190556106d1565b015160001960f88460031b161c19169055858080610748565b91926020600181928685015181550194019201610733565b634e487b7160e01b600052604160045260246000fd5b015190508a8061065a565b90601f198316918460005260206000209260005b8181106107fd575092600192859260e0989660059896106107e4575b505050811b019055610672565b015160001960f88460031b161c191690558980806107d7565b929360206001819287860151815501950193016107bb565b6040516306e3131760e11b8152600490fd5b604051637cbdaa0560e11b8152600490fd5b604051631a64ce3f60e21b8152336004820152602490fd5b610873915060203d602011610879575b61086b81836123b8565b8101906128d5565b85610401565b503d610861565b6040513d6000823e3d90fd5b6108ac9150823d84116108b2575b6108a481836123b8565b8101906128b9565b876103aa565b503d61089a565b3461017c57604036600319011261017c576108fa6004356108d8612305565b908060005260996020526108f56001604060002001543390612c3d565b61299e565b005b3461017c57600036600319011261017c57602061013454604051908152f35b3461017c57602036600319011261017c57600435600052610130602052604060002080546040519161095b836109548160018501612667565b03846123b8565b6109d160405191610973836109548160028501612667565b6109c36040519161098b836109548160038501612667565b600460018060a01b0391015416936109b5604051978897885260a0602089015260a088019061246c565b90868203604088015261246c565b90848203606086015261246c565b9060808301520390f35b3461017c5760208060031936011261017c576109f561231b565b906000549060ff8260081c1615808091610dd3575b8015610dbc575b15610d6057600192818460ff19831617600055610d4e575b50610a326124a5565b93610a3b6126fd565b94610a5660ff60005460081c16610a5181612d54565b612d54565b8051906001600160401b039182811161078657600390610a7682546124eb565b92601f93848111610d03575b508790848311600114610c8557610ab1929160009183610c7a5750508160011b916000199060031b1c19161790565b81555b875192831161078657610ac86004546124eb565b828111610c24575b5085918311600114610b9f57508190610b039394959697600092610b945750508160011b916000199060031b1c19161790565b6004555b600084556000600255610b2560ff60005460081c16610a5181612d54565b6001600160a01b03811615610b8257610b4690610b41336128ed565b6128ed565b610b4c57005b7f7f26b83ff96e1f2b6a682f133852f6798a09c465da95921460cefb38474024989161ff001960005416600055604051908152a1005b60405163867915ab60e01b8152600490fd5b01519050878061065a565b601f1983169160046000527f8a35acfbc15ff81a39ae7d344fd709f28e8600b4aa8c65c6b64bfe7fe36bd19b9260005b818110610c0f57509884899a999697989910610bf5575b50505050811b01600455610b07565b01519060f884600019921b161c1916905586808080610be6565b8a830151855593890193918801918801610bcf565b610c6b9060046000527f8a35acfbc15ff81a39ae7d344fd709f28e8600b4aa8c65c6b64bfe7fe36bd19b8480870160051c8201928a8810610c71575b0160051c0190612836565b88610ad0565b92508192610c60565b015190508b8061065a565b899291601f19831691856000527fc2575a0e9e593c00f959f8c92f12db2869c3395a3b0502d05e2516446f71f85b9260005b8c828210610ced5750508411610cd5575b505050811b018155610ab4565b015160001983861b60f8161c191690558a8080610cc8565b8385015186558e97909501949384019301610cb7565b610d4890846000527fc2575a0e9e593c00f959f8c92f12db2869c3395a3b0502d05e2516446f71f85b8680860160051c8201928c8710610c71570160051c0190612836565b8a610a82565b61ffff19166101011760005584610a29565b60405162461bcd60e51b815260048101839052602e60248201527f496e697469616c697a61626c653a20636f6e747261637420697320616c72656160448201526d191e481a5b9a5d1a585b1a5e995960921b6064820152608490fd5b50303b158015610a115750600160ff841614610a11565b50600160ff841610610a0a565b3461017c57602036600319011261017c57610df961231b565b610e0233612a14565b6001600160a01b03168015610b825761012f80546001600160a01b031916821790557f6de4326a8b9054d72d9dbab97d27bc4edffadee7d966f5af9cc4eafdaf8e5455600080a2005b3461017c57602036600319011261017c57600435806000526101326020526040600020805415610f7a5780600160049201546000526101306020526080604060002060405190610e9a82612331565b80548252604051610eb28161043c8160018601612667565b6020830152604051610ecb8161043c8160028601612667565b6040830152604051610ee48161043c8160038601612667565b6060830152909301546001600160a01b03908116919093018190523303610f6857600281018054600160801b70ffffffffffffffffff00000000000000001990911667ffffffffffffffff60401b4260401b16171790556003015416907f436e32dc587e71660aef91b28c6f85cd077ceac47867d9df9930a48e65ab7ed0600080a3005b604051630ee803d760e21b8152600490fd5b6040516347b48db360e11b8152600490fd5b3461017c57600036600319011261017c576101786101646124a5565b3461017c576020600319818136011261017c57600435906001600160401b039081831161017c57608090833603011261017c57604051916080830183811083821117610786576040528060040135835261100460248201612491565b90848401918252604481013583811161017c57611027906004369184010161242b565b906040850191825260648101359084821161017c57600461104b923692010161242b565b906060850191825260405163167ac65160e31b81528681600481335afa908115610880576110c09188916000916112fd575061012f54604051636a80cdc560e11b815246600482015263ffffffff9092166024830152336044830152909283916001600160a01b031690829081906064820190565b03915afa908115610880576000916112e0575b50156108395784516000526101328652604060002092835415610f7a57518416806112c6575b5051805180611201575b5050519384519182611139575b84517fb16e238411c7a7cdf16f07b1bb3b95461fa3af1218deea488f95f582b5d51cea600080a2005b600501928211610786576111518261063185546124eb565b80601f831160011461119a5750819061118293949560009261118f5750508160011b916000199060031b1c19161790565b90555b8082808080611110565b01519050858061065a565b90601f198316958460005282600020926000905b8882106111e9575050836001959697106111d0575b505050811b019055611185565b015160001960f88460031b161c191690558480806111c3565b806001859682949686015181550195019301906111ae565b60048401918582116107865761121b8261063185546124eb565b8790601f831160011461125f5761124a9291600091836112545750508160011b916000199060031b1c19161790565b90555b8580611103565b01519050898061065a565b90601f1983169184600052896000209260005b8b8282106112b0575050908460019594939210611297575b505050811b01905561124d565b015160001960f88460031b161c1916905588808061128a565b6001859682939686015181550195019301611272565b60028401906001600160401b0319825416179055866110f9565b6112f79150873d89116108795761086b81836123b8565b876110d3565b6113149150823d84116108b2576108a481836123b8565b896103aa565b3461017c5760031960403682011261017c57600435906001600160401b03821161017c57608090823603011261017c576001600160401b036024351161017c5736602360243501121561017c576001600160401b03602435600401351161017c57366024803560040135813501011161017c5761139a60048201806127f0565b905015611962576113b160448201826004016127f0565b90501561195057602435600401351561193e576113d460448201826004016127f0565b611404603460405183819460208301963360601b88528484013781016000838201520360148101845201826123b8565b5190208060005261013060205260406000205461192c57611657916115d66115d16115c8604261143760048601806127f0565b61145b602060405183819483830196873781016000838201520380845201826123b8565b51902061146e60248701876004016127f0565b611492602060405183819483830196873781016000838201520380845201826123b8565b5190206114a560448801886004016127f0565b6114c9602060405183819483830196873781016000838201520380845201826123b8565b5190206114d860648901612822565b91604051937f7c9ef3db6c57694a9a92d6d98cd1c6104b9c8f1941c466575097b2e77ecdbaa1602086015260408501526060840152608083015260018060a01b031660a082015260a0815261152c81612382565b6020815191012061153b6130bb565b61154361310e565b6040519060208201927f8b73c3c69bb8fe3d512ecc4cf759cc79239f7b179b0ffacaa9a75d522b39400f8452604083015260608201524660808201523060a082015260a0815261159281612382565b519020906040519161190160f01b835260028301526022820152206115c2366024356004013560248035016123f4565b90612e44565b90929192612e80565b612a14565b336000526101316020528160406000205561166660646115fc83600401846004016127f0565b92909361160f60248201826004016127f0565b979061164861163061162760448601866004016127f0565b97909501612822565b976040519761163e89612331565b8a895236916123f4565b9860208701998a5236916123f4565b926040850193845236916123f4565b9060608301918252608083019360018060a01b031684528460005261013060205260406000209251835560019586840190518051906001600160401b038211610786576116b78261063185546124eb565b602090601f83116001146118c9576116e792916000918361079c5750508160011b916000199060031b1c19161790565b90555b51805160028401916001600160401b0382116107865761170e8261063185546124eb565b602090601f83116001146118665761173e9291600091836112545750508160011b916000199060031b1c19161790565b90555b600382019051948551906001600160401b038211610786576117678261063185546124eb565b602090601f83116001146118005750908061179d9260049697986000926117f55750508160011b916000199060031b1c19161790565b90555b019060018060a01b039051166001600160601b0360a01b8254161790556101346117ca8154612894565b905533907fd16733fb8c2a502f4e1d1d63970cbab355e37ff6d6d12a215b7d0197ea5535f4600080a3005b01519050888061065a565b9190601f198216908460005260206000209160005b81811061185057509883600498999a10611837575b505050811b0190556117a0565b015160001960f88460031b161c1916905587808061182a565b8a83015184559285019260209283019201611815565b889291601f198316918560005260206000209260005b8181106118b157508411611898575b505050811b019055611741565b015160001960f88460031b161c1916905588808061188b565b8284015185558c96909401936020938401930161187c565b899291601f198316918560005260206000209260005b818110611914575084116118fb575b505050811b0190556116ea565b015160001960f88460031b161c191690558980806118ee565b8284015185558d9690940193602093840193016118df565b604051631cfbd86560e21b8152600490fd5b6040516337e8456b60e01b8152600490fd5b604051635421bc3560e11b8152600490fd5b60405163e474746b60e01b8152600490fd5b3461017c57604036600319011261017c57600435611990612305565b9061199a33612a14565b80600052610130602052604060002091825415610827576001600160a01b03908116928315611a1e5760040190815416600052610131602052600060408120558260005281604060002055826001600160601b0360a01b8254161790557fd05b2e32ad9ac3239164be79bbc8a379cb9864bc907d8060ecd246aedf89fe54600080a3005b60405163078ec41b60e41b8152600490fd5b3461017c57600036600319011261017c57602060405160008152f35b3461017c57604036600319011261017c57611a65612305565b600435600052609960205260406000209060018060a01b0316600052602052602060ff604060002054166040519015158152f35b3461017c57600036600319011261017c57600180541580611ba7575b15611b6a57604051611aca8161043c81612525565b60405191611adb83610954816125d9565b60405192611ae88461234c565b60008452611b1f602091611b1160405195600f60f81b875260e0602088015260e087019061246c565b90858203604087015261246c565b466060850152306080850152600060a085015283810360c08501526020808651928381520195019160005b828110611b575785870386f35b8351875295810195928101928401611b4a565b60405162461bcd60e51b81526020600482015260156024820152741152540dcc4c8e88155b9a5b9a5d1a585b1a5e9959605a1b6044820152606490fd5b5060025415611ab5565b3461017c57602036600319011261017c576001600160a01b03611bd261231b565b166000526101316020526020604060002054604051908152f35b3461017c57600036600319011261017c57602061013354604051908152f35b3461017c57600036600319011261017c577f00000000000000000000000000000000000000000000000000000000000000006001600160a01b03163003611c645760206040516000805160206131d68339815191528152f35b60405162461bcd60e51b815260206004820152603860248201527f555550535570677261646561626c653a206d757374206e6f742062652063616c60448201527f6c6564207468726f7567682064656c656761746563616c6c00000000000000006064820152608490fd5b604036600319011261017c57611ce361231b565b6024356001600160401b03811161017c57611d0290369060040161242b565b6001600160a01b037f000000000000000000000000000000000000000000000000000000000000000081169190611d3b3084141561272e565b611d586000805160206131d683398151915293828554161461278f565b611d6133612a14565b7f4910fdfa16fed3260ed0e7147f7cc6da11a60208b5b9406d12a635614ffd91435460ff1615611d97575050506108fa90612db4565b8316604051926352d1902d60e01b84526020938481600481865afa60009181611f4e575b50611e1c5760405162461bcd60e51b815260048101869052602e60248201527f45524331393637557067726164653a206e657720696d706c656d656e7461746960448201526d6f6e206973206e6f74205555505360901b6064820152608490fd5b93929303611ef757611e2d84612db4565b7fbc7cd75a20ee27fd9adebab32041f755214dbc6bffa90cc0225b39da2e5c2d3b600080a2815115801590611eef575b611e6357005b6108fa9260008060405194611e7786612367565b602786527f416464726573733a206c6f772d6c6576656c2064656c65676174652063616c6c85870152660819985a5b195960ca1b60408701528481519101845af4903d15611ee6573d611ec9816123d9565b90611ed760405192836123b8565b8152600081943d92013e61313c565b6060925061313c565b506001611e5d565b60405162461bcd60e51b815260048101839052602960248201527f45524331393637557067726164653a20756e737570706f727465642070726f786044820152681a58589b195555525160ba1b6064820152608490fd5b9091508581813d8311611f76575b611f6681836123b8565b8101031261017c57519087611dbb565b503d611f5c565b3461017c5760208060031936011261017c57611f9761231b565b906001600160a01b037f00000000000000000000000000000000000000000000000000000000000000008116611fcf3082141561272e565b611fec6000805160206131d683398151915291838354161461278f565b611ff533612a14565b604051916120028361234c565b600083527f4910fdfa16fed3260ed0e7147f7cc6da11a60208b5b9406d12a635614ffd91435460ff161561203d57505050506108fa90612db4565b8416906040516352d1902d60e01b81528481600481865afa6000918161210d575b506120bf5760405162461bcd60e51b815260048101869052602e60248201527f45524331393637557067726164653a206e657720696d706c656d656e7461746960448201526d6f6e206973206e6f74205555505360901b6064820152608490fd5b93929303611ef7576120d084612db4565b7fbc7cd75a20ee27fd9adebab32041f755214dbc6bffa90cc0225b39da2e5c2d3b600080a281511580159061210557611e6357005b506000611e5d565b9091508581813d8311612135575b61212581836123b8565b8101031261017c5751908761205e565b503d61211b565b3461017c57604036600319011261017c57612155612305565b336001600160a01b03821603612171576108fa9060043561299e565b60405162461bcd60e51b815260206004820152602f60248201527f416363657373436f6e74726f6c3a2063616e206f6e6c792072656e6f756e636560448201526e103937b632b9903337b91039b2b63360891b6064820152608490fd5b3461017c57604036600319011261017c576004356121ea612305565b8160005260996020526122066001604060002001543390612c3d565b81600052609960205260406000209060018060a01b0316908160005260205260ff604060002054161561223557005b8160005260996020526040600020816000526020526040600020600160ff1982541617905533917f2f8788117e7eff1d82e926ec794901d17c78024a50270940304540a733656f0d600080a4005b3461017c57602036600319011261017c5760043560005260996020526020600160406000200154604051908152f35b3461017c57602036600319011261017c576004359063ffffffff60e01b821680920361017c57602091637965db0b60e01b81149081156122f4575b5015158152f35b6301ffc9a760e01b149050836122ed565b602435906001600160a01b038216820361017c57565b600435906001600160a01b038216820361017c57565b60a081019081106001600160401b0382111761078657604052565b602081019081106001600160401b0382111761078657604052565b606081019081106001600160401b0382111761078657604052565b60c081019081106001600160401b0382111761078657604052565b608081019081106001600160401b0382111761078657604052565b90601f801991011681019081106001600160401b0382111761078657604052565b6001600160401b03811161078657601f01601f191660200190565b929192612400826123d9565b9161240e60405193846123b8565b82948184528183011161017c578281602093846000960137010152565b9080601f8301121561017c57816020612446933591016123f4565b90565b60005b83811061245c5750506000910152565b818101518382015260200161244c565b9060209161248581518092818552858086019101612449565b601f01601f1916010190565b35906001600160401b038216820361017c57565b604051906124b282612367565b60248252637374727960e01b6040837f5275627973636f72655f53696e676c655f4964656e7469666965725f5265676960208201520152565b90600182811c9216801561251b575b602083101461250557565b634e487b7160e01b600052602260045260246000fd5b91607f16916124fa565b60035460009291612535826124eb565b808252916020906001908181169081156125b45750600114612558575b50505050565b9293945060036000527fc2575a0e9e593c00f959f8c92f12db2869c3395a3b0502d05e2516446f71f85b926000935b8585106125a1575050506020925001019038808080612552565b8054858501840152938201938101612587565b92505050602093945060ff929192191683830152151560051b01019038808080612552565b600454600092916125e9826124eb565b808252916020906001908181169081156125b4575060011461260b5750505050565b9293945060046000527f8a35acfbc15ff81a39ae7d344fd709f28e8600b4aa8c65c6b64bfe7fe36bd19b926000935b858510612654575050506020925001019038808080612552565b805485850184015293820193810161263a565b805460009392612676826124eb565b918282526020936001916001811690816000146126de575060011461269d575b5050505050565b90939495506000929192528360002092846000945b8386106126ca57505050500101903880808080612696565b8054858701830152940193859082016126b2565b60ff19168685015250505090151560051b010191503880808080612696565b60405190604082018281106001600160401b03821117610786576040526005825264302e302e3160d81b6020830152565b1561273557565b60405162461bcd60e51b815260206004820152602c60248201527f46756e6374696f6e206d7573742062652063616c6c6564207468726f7567682060448201526b19195b1959d85d1958d85b1b60a21b6064820152608490fd5b1561279657565b60405162461bcd60e51b815260206004820152602c60248201527f46756e6374696f6e206d7573742062652063616c6c6564207468726f7567682060448201526b6163746976652070726f787960a01b6064820152608490fd5b903590601e198136030182121561017c57018035906001600160401b03821161017c5760200191813603831361017c57565b356001600160a01b038116810361017c5790565b818110612841575050565b60008155600101612836565b9190601f811161285c57505050565b612888926000526020600020906020601f840160051c8301931061288a575b601f0160051c0190612836565b565b909150819061287b565b60001981146128a35760010190565b634e487b7160e01b600052601160045260246000fd5b9081602091031261017c575163ffffffff8116810361017c5790565b9081602091031261017c5751801515810361017c5790565b6001600160a01b031660008181527f03972a83835deae8e7b8a4c3f92b91705e59d4853626afefd46026fda30169a260205260408120549091907f97667070c54ef182b0f5858b034beac1b6f3089aa2d3188bb1e8929f4fa9b9299060ff161561295657505050565b80835260996020526040832082845260205260408320600160ff198254161790557f2f8788117e7eff1d82e926ec794901d17c78024a50270940304540a733656f0d339380a4565b906000918083526099602052604083209160018060a01b03169182845260205260ff6040842054166129cf57505050565b8083526099602052604083208284526020526040832060ff1981541690557ff6391f5c32d9c69d2a47ea670b442974b53935d1edc7fd64eb21e047a839171b339380a4565b6001600160a01b031660008181527f03972a83835deae8e7b8a4c3f92b91705e59d4853626afefd46026fda30169a26020908152604080832054909391927f97667070c54ef182b0f5858b034beac1b6f3089aa2d3188bb1e8929f4fa9b92992909160ff1615612a85575050505050565b612a8e90612f2c565b91845190612a9b8261239d565b60428252848201926060368537825115612c29576030845382519060019160011015612c295790607860218501536041915b818311612bbb57505050612b79576048612b75938693612b5993612b4a985198899376020b1b1b2b9b9a1b7b73a3937b61d1030b1b1b7bab73a1604d1b8a860152612b21815180928c603789019101612449565b8401917001034b99036b4b9b9b4b733903937b6329607d1b603784015251809386840190612449565b010360288101875201856123b8565b5192839262461bcd60e51b84526004840152602483019061246c565b0390fd5b60648486519062461bcd60e51b825280600483015260248201527f537472696e67733a20686578206c656e67746820696e73756666696369656e746044820152fd5b909192600f81166010811015612c15576f181899199a1a9b1b9c1cb0b131b232b360811b901a612beb8587612f05565b5360041c928015612c0157600019019190612acd565b634e487b7160e01b82526011600452602482fd5b634e487b7160e01b83526032600452602483fd5b634e487b7160e01b81526032600452602490fd5b600090808252602091609983526040938482209060018060a01b031690818352845260ff858320541615612c72575050505050565b612c7b90612f2c565b91845190612c888261239d565b60428252848201926060368537825115612c29576030845382519060019160011015612c295790607860218501536041915b818311612d0e57505050612b79576048612b75938693612b5993612b4a985198899376020b1b1b2b9b9a1b7b73a3937b61d1030b1b1b7bab73a1604d1b8a860152612b21815180928c603789019101612449565b909192600f81166010811015612c15576f181899199a1a9b1b9c1cb0b131b232b360811b901a612d3e8587612f05565b5360041c928015612c0157600019019190612cba565b15612d5b57565b60405162461bcd60e51b815260206004820152602b60248201527f496e697469616c697a61626c653a20636f6e7472616374206973206e6f74206960448201526a6e697469616c697a696e6760a81b6064820152608490fd5b803b15612de9576000805160206131d683398151915280546001600160a01b0319166001600160a01b03909216919091179055565b60405162461bcd60e51b815260206004820152602d60248201527f455243313936373a206e657720696d706c656d656e746174696f6e206973206e60448201526c1bdd08184818dbdb9d1c9858dd609a1b6064820152608490fd5b8151919060418303612e7557612e6e92506020820151906060604084015193015160001a9061302b565b9192909190565b505060009160029190565b6004811015612eef5780612e92575050565b60018103612eac5760405163f645eedf60e01b8152600490fd5b60028103612ecd5760405163fce698f760e01b815260048101839052602490fd5b600314612ed75750565b602490604051906335e2f38360e21b82526004820152fd5b634e487b7160e01b600052602160045260246000fd5b908151811015612f16570160200190565b634e487b7160e01b600052603260045260246000fd5b60405190612f3982612367565b602a8252602082016040368237825115612f165760309053815160019060011015612f1657607860218401536029905b808211612fbd575050612f795790565b606460405162461bcd60e51b815260206004820152602060248201527f537472696e67733a20686578206c656e67746820696e73756666696369656e746044820152fd5b9091600f81166010811015613016576f181899199a1a9b1b9c1cb0b131b232b360811b901a612fec8486612f05565b5360041c918015613001576000190190612f69565b60246000634e487b7160e01b81526011600452fd5b60246000634e487b7160e01b81526032600452fd5b91907f7fffffffffffffffffffffffffffffff5d576e7357a4501ddfe92f46681b20a084116130af57926020929160ff608095604051948552168484015260408301526060820152600092839182805260015afa156130a35780516001600160a01b0381161561309a57918190565b50809160019190565b604051903d90823e3d90fd5b50505060009160039190565b6040516130cb8161043c81612525565b80519081156130db576020012090565b505060015480156130e95790565b507fc5d2460186f7233c927e7db2dcc703c0e500b653ca82273b7bfad8045d85a47090565b60405161311e8161043c816125d9565b805190811561312e576020012090565b505060025480156130e95790565b9192901561319e5750815115613150575090565b3b156131595790565b60405162461bcd60e51b815260206004820152601d60248201527f416464726573733a2063616c6c20746f206e6f6e2d636f6e74726163740000006044820152606490fd5b8251909150156131b15750805190602001fd5b60405162461bcd60e51b815260206004820152908190612b7590602483019061246c56fe360894a13ba1a3210667c828492db98dca3e2076cc3735a920a3ca505d382bbca26469706673582212204ed7faf15126fe6fe1f4d781b3ecba3646b504f04b350c3e2d3479647a18bbea64736f6c63430008180033",
  "devdoc": {
    "errors": {
      "ECDSAInvalidSignature()": [
        {
          "details": "The signature derives the `address(0)`."
        }
      ],
      "ECDSAInvalidSignatureLength(uint256)": [
        {
          "details": "The signature has an invalid length."
        }
      ],
      "ECDSAInvalidSignatureS(bytes32)": [
        {
          "details": "The signature has an S value that is in the upper half order."
        }
      ]
    },
    "events": {
      "AdminChanged(address,address)": {
        "details": "Emitted when the admin account has changed."
      },
      "BeaconUpgraded(address)": {
        "details": "Emitted when the beacon is changed."
      },
      "EIP712DomainChanged()": {
        "details": "MAY be emitted to signal that the domain could have changed."
      },
      "Initialized(uint8)": {
        "details": "Triggered when the contract has been initialized or reinitialized."
      },
      "RoleAdminChanged(bytes32,bytes32,bytes32)": {
        "details": "Emitted when `newAdminRole` is set as ``role``'s admin role, replacing `previousAdminRole` `DEFAULT_ADMIN_ROLE` is the starting admin for all roles, despite {RoleAdminChanged} not being emitted signaling this. _Available since v3.1._"
      },
      "RoleGranted(bytes32,address,address)": {
        "details": "Emitted when `account` is granted `role`. `sender` is the account that originated the contract call, an admin role bearer except when using {AccessControl-_setupRole}."
      },
      "RoleRevoked(bytes32,address,address)": {
        "details": "Emitted when `account` is revoked `role`. `sender` is the account that originated the contract call:   - if using `revokeRole`, it is the admin role bearer   - if using `renounceRole`, it is the role bearer (i.e. `account`)"
      },
      "Upgraded(address)": {
        "details": "Emitted when the implementation is upgraded."
      }
    },
    "kind": "dev",
    "methods": {
      "eip712Domain()": {
        "details": "See {EIP-5267}. _Available since v4.9._"
      },
      "getRoleAdmin(bytes32)": {
        "details": "Returns the admin role that controls `role`. See {grantRole} and {revokeRole}. To change a role's admin, use {_setRoleAdmin}."
      },
      "grantRole(bytes32,address)": {
        "details": "Grants `role` to `account`. If `account` had not been already granted `role`, emits a {RoleGranted} event. Requirements: - the caller must have ``role``'s admin role. May emit a {RoleGranted} event."
      },
      "hasRole(bytes32,address)": {
        "details": "Returns `true` if `account` has been granted `role`."
      },
      "proxiableUUID()": {
        "details": "Implementation of the ERC1822 {proxiableUUID} function. This returns the storage slot used by the implementation. It is used to validate the implementation's compatibility when performing an upgrade. IMPORTANT: A proxy pointing at a proxiable contract should not be considered proxiable itself, because this risks bricking a proxy that upgrades to it, by delegating to itself until out of gas. Thus it is critical that this function revert if invoked through a proxy. This is guaranteed by the `notDelegated` modifier."
      },
      "renounceRole(bytes32,address)": {
        "details": "Revokes `role` from the calling account. Roles are often managed via {grantRole} and {revokeRole}: this function's purpose is to provide a mechanism for accounts to lose their privileges if they are compromised (such as when a trusted device is misplaced). If the calling account had been revoked `role`, emits a {RoleRevoked} event. Requirements: - the caller must be `account`. May emit a {RoleRevoked} event."
      },
      "revokeRole(bytes32,address)": {
        "details": "Revokes `role` from `account`. If `account` had been granted `role`, emits a {RoleRevoked} event. Requirements: - the caller must have ``role``'s admin role. May emit a {RoleRevoked} event."
      },
      "supportsInterface(bytes4)": {
        "details": "See {IERC165-supportsInterface}."
      },
      "upgradeTo(address)": {
        "custom:oz-upgrades-unsafe-allow-reachable": "delegatecall",
        "details": "Upgrade the implementation of the proxy to `newImplementation`. Calls {_authorizeUpgrade}. Emits an {Upgraded} event."
      },
      "upgradeToAndCall(address,bytes)": {
        "custom:oz-upgrades-unsafe-allow-reachable": "delegatecall",
        "details": "Upgrade the implementation of the proxy to `newImplementation`, and subsequently execute the function call encoded in `data`. Calls {_authorizeUpgrade}. Emits an {Upgraded} event."
      }
    },
    "version": 1
  },
  "userdoc": {
    "kind": "user",
    "methods": {},
    "version": 1
  },
  "storageLayout": {
    "storage": [
      {
        "astId": 5146,
        "contract": "contracts/SingleIdentifierRegistry.sol:SingleIdentifierRegistry",
        "label": "_initialized",
        "offset": 0,
        "slot": "0",
        "type": "t_uint8"
      },
      {
        "astId": 5149,
        "contract": "contracts/SingleIdentifierRegistry.sol:SingleIdentifierRegistry",
        "label": "_initializing",
        "offset": 1,
        "slot": "0",
        "type": "t_bool"
      },
      {
        "astId": 6539,
        "contract": "contracts/SingleIdentifierRegistry.sol:SingleIdentifierRegistry",
        "label": "_hashedName",
        "offset": 0,
        "slot": "1",
        "type": "t_bytes32"
      },
      {
        "astId": 6542,
        "contract": "contracts/SingleIdentifierRegistry.sol:SingleIdentifierRegistry",
        "label": "_hashedVersion",
        "offset": 0,
        "slot": "2",
        "type": "t_bytes32"
      },
      {
        "astId": 6544,
        "contract": "contracts/SingleIdentifierRegistry.sol:SingleIdentifierRegistry",
        "label": "_name",
        "offset": 0,
        "slot": "3",
        "type": "t_string_storage"
      },
      {
        "astId": 6546,
        "contract": "contracts/SingleIdentifierRegistry.sol:SingleIdentifierRegistry",
        "label": "_version",
        "offset": 0,
        "slot": "4",
        "type": "t_string_storage"
      },
      {
        "astId": 6804,
        "contract": "contracts/SingleIdentifierRegistry.sol:SingleIdentifierRegistry",
        "label": "__gap",
        "offset": 0,
        "slot": "5",
        "type": "t_array(t_uint256)48_storage"
      },
      {
        "astId": 5815,
        "contract": "contracts/SingleIdentifierRegistry.sol:SingleIdentifierRegistry",
        "label": "__gap",
        "offset": 0,
        "slot": "53",
        "type": "t_array(t_uint256)50_storage"
      },
      {
        "astId": 6848,
        "contract": "contracts/SingleIdentifierRegistry.sol:SingleIdentifierRegistry",
        "label": "__gap",
        "offset": 0,
        "slot": "103",
        "type": "t_array(t_uint256)50_storage"
      },
      {
        "astId": 4248,
        "contract": "contracts/SingleIdentifierRegistry.sol:SingleIdentifierRegistry",
        "label": "_roles",
        "offset": 0,
        "slot": "153",
        "type": "t_mapping(t_bytes32,t_struct(RoleData)4243_storage)"
      },
      {
        "astId": 4543,
        "contract": "contracts/SingleIdentifierRegistry.sol:SingleIdentifierRegistry",
        "label": "__gap",
        "offset": 0,
        "slot": "154",
        "type": "t_array(t_uint256)49_storage"
      },
      {
        "astId": 5128,
        "contract": "contracts/SingleIdentifierRegistry.sol:SingleIdentifierRegistry",
        "label": "__gap",
        "offset": 0,
        "slot": "203",
        "type": "t_array(t_uint256)50_storage"
      },
      {
        "astId": 5443,
        "contract": "contracts/SingleIdentifierRegistry.sol:SingleIdentifierRegistry",
        "label": "__gap",
        "offset": 0,
        "slot": "253",
        "type": "t_array(t_uint256)50_storage"
      },
      {
        "astId": 14444,
        "contract": "contracts/SingleIdentifierRegistry.sol:SingleIdentifierRegistry",
        "label": "router",
        "offset": 0,
        "slot": "303",
        "type": "t_contract(SingleRouter)15559"
      },
      {
        "astId": 14449,
        "contract": "contracts/SingleIdentifierRegistry.sol:SingleIdentifierRegistry",
        "label": "schemas",
        "offset": 0,
        "slot": "304",
        "type": "t_mapping(t_bytes32,t_struct(SIDSchema)17161_storage)"
      },
      {
        "astId": 14453,
        "contract": "contracts/SingleIdentifierRegistry.sol:SingleIdentifierRegistry",
        "label": "schemaIds",
        "offset": 0,
        "slot": "305",
        "type": "t_mapping(t_address,t_bytes32)"
      },
      {
        "astId": 14458,
        "contract": "contracts/SingleIdentifierRegistry.sol:SingleIdentifierRegistry",
        "label": "singleIdentifierData",
        "offset": 0,
        "slot": "306",
        "type": "t_mapping(t_bytes32,t_struct(SID)17150_storage)"
      },
      {
        "astId": 14460,
        "contract": "contracts/SingleIdentifierRegistry.sol:SingleIdentifierRegistry",
        "label": "sidCounter",
        "offset": 0,
        "slot": "307",
        "type": "t_uint256"
      },
      {
        "astId": 14462,
        "contract": "contracts/SingleIdentifierRegistry.sol:SingleIdentifierRegistry",
        "label": "emitterCounter",
        "offset": 0,
        "slot": "308",
        "type": "t_uint256"
      }
    ],
    "types": {
      "t_address": {
        "encoding": "inplace",
        "label": "address",
        "numberOfBytes": "20"
      },
      "t_array(t_uint256)48_storage": {
        "base": "t_uint256",
        "encoding": "inplace",
        "label": "uint256[48]",
        "numberOfBytes": "1536"
      },
      "t_array(t_uint256)49_storage": {
        "base": "t_uint256",
        "encoding": "inplace",
        "label": "uint256[49]",
        "numberOfBytes": "1568"
      },
      "t_array(t_uint256)50_storage": {
        "base": "t_uint256",
        "encoding": "inplace",
        "label": "uint256[50]",
        "numberOfBytes": "1600"
      },
      "t_bool": {
        "encoding": "inplace",
        "label": "bool",
        "numberOfBytes": "1"
      },
      "t_bytes32": {
        "encoding": "inplace",
        "label": "bytes32",
        "numberOfBytes": "32"
      },
      "t_bytes_storage": {
        "encoding": "bytes",
        "label": "bytes",
        "numberOfBytes": "32"
      },
      "t_contract(SingleRouter)15559": {
        "encoding": "inplace",
        "label": "contract SingleRouter",
        "numberOfBytes": "20"
      },
      "t_mapping(t_address,t_bool)": {
        "encoding": "mapping",
        "key": "t_address",
        "label": "mapping(address => bool)",
        "numberOfBytes": "32",
        "value": "t_bool"
      },
      "t_mapping(t_address,t_bytes32)": {
        "encoding": "mapping",
        "key": "t_address",
        "label": "mapping(address => bytes32)",
        "numberOfBytes": "32",
        "value": "t_bytes32"
      },
      "t_mapping(t_bytes32,t_struct(RoleData)4243_storage)": {
        "encoding": "mapping",
        "key": "t_bytes32",
        "label": "mapping(bytes32 => struct AccessControlUpgradeable.RoleData)",
        "numberOfBytes": "32",
        "value": "t_struct(RoleData)4243_storage"
      },
      "t_mapping(t_bytes32,t_struct(SID)17150_storage)": {
        "encoding": "mapping",
        "key": "t_bytes32",
        "label": "mapping(bytes32 => struct SID)",
        "numberOfBytes": "32",
        "value": "t_struct(SID)17150_storage"
      },
      "t_mapping(t_bytes32,t_struct(SIDSchema)17161_storage)": {
        "encoding": "mapping",
        "key": "t_bytes32",
        "label": "mapping(bytes32 => struct SIDSchema)",
        "numberOfBytes": "32",
        "value": "t_struct(SIDSchema)17161_storage"
      },
      "t_string_storage": {
        "encoding": "bytes",
        "label": "string",
        "numberOfBytes": "32"
      },
      "t_struct(RoleData)4243_storage": {
        "encoding": "inplace",
        "label": "struct AccessControlUpgradeable.RoleData",
        "members": [
          {
            "astId": 4240,
            "contract": "contracts/SingleIdentifierRegistry.sol:SingleIdentifierRegistry",
            "label": "members",
            "offset": 0,
            "slot": "0",
            "type": "t_mapping(t_address,t_bool)"
          },
          {
            "astId": 4242,
            "contract": "contracts/SingleIdentifierRegistry.sol:SingleIdentifierRegistry",
            "label": "adminRole",
            "offset": 0,
            "slot": "1",
            "type": "t_bytes32"
          }
        ],
        "numberOfBytes": "64"
      },
      "t_struct(SID)17150_storage": {
        "encoding": "inplace",
        "label": "struct SID",
        "members": [
          {
            "astId": 17135,
            "contract": "contracts/SingleIdentifierRegistry.sol:SingleIdentifierRegistry",
            "label": "SIDId",
            "offset": 0,
            "slot": "0",
            "type": "t_bytes32"
          },
          {
            "astId": 17137,
            "contract": "contracts/SingleIdentifierRegistry.sol:SingleIdentifierRegistry",
            "label": "schemaId",
            "offset": 0,
            "slot": "1",
            "type": "t_bytes32"
          },
          {
            "astId": 17139,
            "contract": "contracts/SingleIdentifierRegistry.sol:SingleIdentifierRegistry",
            "label": "expirationDate",
            "offset": 0,
            "slot": "2",
            "type": "t_uint64"
          },
          {
            "astId": 17141,
            "contract": "contracts/SingleIdentifierRegistry.sol:SingleIdentifierRegistry",
            "label": "revocationDate",
            "offset": 8,
            "slot": "2",
            "type": "t_uint64"
          },
          {
            "astId": 17143,
            "contract": "contracts/SingleIdentifierRegistry.sol:SingleIdentifierRegistry",
            "label": "revoked",
            "offset": 16,
            "slot": "2",
            "type": "t_bool"
          },
          {
            "astId": 17145,
            "contract": "contracts/SingleIdentifierRegistry.sol:SingleIdentifierRegistry",
            "label": "user",
            "offset": 0,
            "slot": "3",
            "type": "t_address"
          },
          {
            "astId": 17147,
            "contract": "contracts/SingleIdentifierRegistry.sol:SingleIdentifierRegistry",
            "label": "data",
            "offset": 0,
            "slot": "4",
            "type": "t_bytes_storage"
          },
          {
            "astId": 17149,
            "contract": "contracts/SingleIdentifierRegistry.sol:SingleIdentifierRegistry",
            "label": "metadata",
            "offset": 0,
            "slot": "5",
            "type": "t_string_storage"
          }
        ],
        "numberOfBytes": "192"
      },
      "t_struct(SIDSchema)17161_storage": {
        "encoding": "inplace",
        "label": "struct SIDSchema",
        "members": [
          {
            "astId": 17152,
            "contract": "contracts/SingleIdentifierRegistry.sol:SingleIdentifierRegistry",
            "label": "schemaId",
            "offset": 0,
            "slot": "0",
            "type": "t_bytes32"
          },
          {
            "astId": 17154,
            "contract": "contracts/SingleIdentifierRegistry.sol:SingleIdentifierRegistry",
            "label": "name",
            "offset": 0,
            "slot": "1",
            "type": "t_string_storage"
          },
          {
            "astId": 17156,
            "contract": "contracts/SingleIdentifierRegistry.sol:SingleIdentifierRegistry",
            "label": "description",
            "offset": 0,
            "slot": "2",
            "type": "t_string_storage"
          },
          {
            "astId": 17158,
            "contract": "contracts/SingleIdentifierRegistry.sol:SingleIdentifierRegistry",
            "label": "schema",
            "offset": 0,
            "slot": "3",
            "type": "t_string_storage"
          },
          {
            "astId": 17160,
            "contract": "contracts/SingleIdentifierRegistry.sol:SingleIdentifierRegistry",
            "label": "emitter",
            "offset": 0,
            "slot": "4",
            "type": "t_address"
          }
        ],
        "numberOfBytes": "160"
      },
      "t_uint256": {
        "encoding": "inplace",
        "label": "uint256",
        "numberOfBytes": "32"
      },
      "t_uint64": {
        "encoding": "inplace",
        "label": "uint64",
        "numberOfBytes": "8"
      },
      "t_uint8": {
        "encoding": "inplace",
        "label": "uint8",
        "numberOfBytes": "1"
      }
    }
  }
}