{
  "address": "0x9456E02Ef02C0F5256a559ecf7535356Aeab8647",
  "abi": [
    {
      "inputs": [
        {
          "internalType": "address",
          "name": "_admin",
          "type": "address"
        },
        {
          "internalType": "address",
          "name": "_operator",
          "type": "address"
        },
        {
          "internalType": "address",
          "name": "_registry",
          "type": "address"
        }
      ],
      "stateMutability": "nonpayable",
      "type": "constructor"
    },
    {
      "inputs": [],
      "name": "AccessControlBadConfirmation",
      "type": "error"
    },
    {
      "inputs": [
        {
          "internalType": "address",
          "name": "account",
          "type": "address"
        },
        {
          "internalType": "bytes32",
          "name": "neededRole",
          "type": "bytes32"
        }
      ],
      "name": "AccessControlUnauthorizedAccount",
      "type": "error"
    },
    {
      "inputs": [],
      "name": "AddressIsZero",
      "type": "error"
    },
    {
      "inputs": [
        {
          "internalType": "uint32",
          "name": "eid",
          "type": "uint32"
        }
      ],
      "name": "SenderIsNotPeer",
      "type": "error"
    },
    {
      "inputs": [
        {
          "internalType": "address",
          "name": "sender",
          "type": "address"
        }
      ],
      "name": "SenderIsNotRouter",
      "type": "error"
    },
    {
      "anonymous": false,
      "inputs": [
        {
          "indexed": true,
          "internalType": "bytes32",
          "name": "role",
          "type": "bytes32"
        },
        {
          "indexed": true,
          "internalType": "bytes32",
          "name": "previousAdminRole",
          "type": "bytes32"
        },
        {
          "indexed": true,
          "internalType": "bytes32",
          "name": "newAdminRole",
          "type": "bytes32"
        }
      ],
      "name": "RoleAdminChanged",
      "type": "event"
    },
    {
      "anonymous": false,
      "inputs": [
        {
          "indexed": true,
          "internalType": "bytes32",
          "name": "role",
          "type": "bytes32"
        },
        {
          "indexed": true,
          "internalType": "address",
          "name": "account",
          "type": "address"
        },
        {
          "indexed": true,
          "internalType": "address",
          "name": "sender",
          "type": "address"
        }
      ],
      "name": "RoleGranted",
      "type": "event"
    },
    {
      "anonymous": false,
      "inputs": [
        {
          "indexed": true,
          "internalType": "bytes32",
          "name": "role",
          "type": "bytes32"
        },
        {
          "indexed": true,
          "internalType": "address",
          "name": "account",
          "type": "address"
        },
        {
          "indexed": true,
          "internalType": "address",
          "name": "sender",
          "type": "address"
        }
      ],
      "name": "RoleRevoked",
      "type": "event"
    },
    {
      "anonymous": false,
      "inputs": [
        {
          "indexed": true,
          "internalType": "address",
          "name": "chainId",
          "type": "address"
        }
      ],
      "name": "SetChainIds",
      "type": "event"
    },
    {
      "anonymous": false,
      "inputs": [
        {
          "indexed": true,
          "internalType": "uint32",
          "name": "connectorId",
          "type": "uint32"
        }
      ],
      "name": "SetConnectorId",
      "type": "event"
    },
    {
      "anonymous": false,
      "inputs": [
        {
          "indexed": true,
          "internalType": "address",
          "name": "registry",
          "type": "address"
        }
      ],
      "name": "SetRegistry",
      "type": "event"
    },
    {
      "anonymous": false,
      "inputs": [
        {
          "indexed": true,
          "internalType": "address",
          "name": "router",
          "type": "address"
        }
      ],
      "name": "SetRouter",
      "type": "event"
    },
    {
      "anonymous": false,
      "inputs": [
        {
          "indexed": true,
          "internalType": "address",
          "name": "registry",
          "type": "address"
        }
      ],
      "name": "UpdateRegistry",
      "type": "event"
    },
    {
      "inputs": [],
      "name": "DEFAULT_ADMIN_ROLE",
      "outputs": [
        {
          "internalType": "bytes32",
          "name": "",
          "type": "bytes32"
        }
      ],
      "stateMutability": "view",
      "type": "function"
    },
    {
      "inputs": [],
      "name": "OPERATOR_ROLE",
      "outputs": [
        {
          "internalType": "bytes32",
          "name": "",
          "type": "bytes32"
        }
      ],
      "stateMutability": "view",
      "type": "function"
    },
    {
      "inputs": [],
      "name": "connectorId",
      "outputs": [
        {
          "internalType": "uint32",
          "name": "",
          "type": "uint32"
        }
      ],
      "stateMutability": "view",
      "type": "function"
    },
    {
      "inputs": [
        {
          "internalType": "uint256",
          "name": "nativeChainId",
          "type": "uint256"
        }
      ],
      "name": "customChainIds",
      "outputs": [
        {
          "internalType": "uint256",
          "name": "customChainId",
          "type": "uint256"
        }
      ],
      "stateMutability": "view",
      "type": "function"
    },
    {
      "inputs": [
        {
          "internalType": "bytes32",
          "name": "role",
          "type": "bytes32"
        }
      ],
      "name": "getRoleAdmin",
      "outputs": [
        {
          "internalType": "bytes32",
          "name": "",
          "type": "bytes32"
        }
      ],
      "stateMutability": "view",
      "type": "function"
    },
    {
      "inputs": [
        {
          "internalType": "bytes32",
          "name": "role",
          "type": "bytes32"
        },
        {
          "internalType": "address",
          "name": "account",
          "type": "address"
        }
      ],
      "name": "grantRole",
      "outputs": [],
      "stateMutability": "nonpayable",
      "type": "function"
    },
    {
      "inputs": [
        {
          "internalType": "bytes32",
          "name": "role",
          "type": "bytes32"
        },
        {
          "internalType": "address",
          "name": "account",
          "type": "address"
        }
      ],
      "name": "hasRole",
      "outputs": [
        {
          "internalType": "bool",
          "name": "",
          "type": "bool"
        }
      ],
      "stateMutability": "view",
      "type": "function"
    },
    {
      "inputs": [
        {
          "internalType": "uint256",
          "name": "customChainId",
          "type": "uint256"
        }
      ],
      "name": "nativeChainIds",
      "outputs": [
        {
          "internalType": "uint256",
          "name": "nativeChainId",
          "type": "uint256"
        }
      ],
      "stateMutability": "view",
      "type": "function"
    },
    {
      "inputs": [
        {
          "internalType": "uint32",
          "name": "",
          "type": "uint32"
        },
        {
          "internalType": "bytes",
          "name": "",
          "type": "bytes"
        }
      ],
      "name": "quote",
      "outputs": [
        {
          "internalType": "uint256",
          "name": "",
          "type": "uint256"
        }
      ],
      "stateMutability": "view",
      "type": "function"
    },
    {
      "inputs": [
        {
          "internalType": "bytes",
          "name": "_payload",
          "type": "bytes"
        }
      ],
      "name": "receiveMessage",
      "outputs": [],
      "stateMutability": "nonpayable",
      "type": "function"
    },
    {
      "inputs": [],
      "name": "registry",
      "outputs": [
        {
          "internalType": "contract ISingleIdentifierRegistry",
          "name": "",
          "type": "address"
        }
      ],
      "stateMutability": "view",
      "type": "function"
    },
    {
      "inputs": [
        {
          "internalType": "bytes32",
          "name": "role",
          "type": "bytes32"
        },
        {
          "internalType": "address",
          "name": "callerConfirmation",
          "type": "address"
        }
      ],
      "name": "renounceRole",
      "outputs": [],
      "stateMutability": "nonpayable",
      "type": "function"
    },
    {
      "inputs": [
        {
          "internalType": "bytes32",
          "name": "role",
          "type": "bytes32"
        },
        {
          "internalType": "address",
          "name": "account",
          "type": "address"
        }
      ],
      "name": "revokeRole",
      "outputs": [],
      "stateMutability": "nonpayable",
      "type": "function"
    },
    {
      "inputs": [],
      "name": "router",
      "outputs": [
        {
          "internalType": "contract SingleRouter",
          "name": "",
          "type": "address"
        }
      ],
      "stateMutability": "view",
      "type": "function"
    },
    {
      "inputs": [
        {
          "internalType": "uint256",
          "name": "",
          "type": "uint256"
        },
        {
          "internalType": "bytes",
          "name": "_payload",
          "type": "bytes"
        }
      ],
      "name": "sendMessage",
      "outputs": [],
      "stateMutability": "payable",
      "type": "function"
    },
    {
      "inputs": [
        {
          "internalType": "uint256",
          "name": "_nativeChainId",
          "type": "uint256"
        },
        {
          "internalType": "uint256",
          "name": "_customChainId",
          "type": "uint256"
        }
      ],
      "name": "setChainId",
      "outputs": [],
      "stateMutability": "nonpayable",
      "type": "function"
    },
    {
      "inputs": [
        {
          "internalType": "uint256[]",
          "name": "_nativeChainIds",
          "type": "uint256[]"
        },
        {
          "internalType": "uint256[]",
          "name": "_customChainIds",
          "type": "uint256[]"
        }
      ],
      "name": "setChainIds",
      "outputs": [],
      "stateMutability": "nonpayable",
      "type": "function"
    },
    {
      "inputs": [
        {
          "internalType": "uint32",
          "name": "_connectorId",
          "type": "uint32"
        }
      ],
      "name": "setConnectorId",
      "outputs": [],
      "stateMutability": "nonpayable",
      "type": "function"
    },
    {
      "inputs": [
        {
          "internalType": "address",
          "name": "_registry",
          "type": "address"
        }
      ],
      "name": "setRegistry",
      "outputs": [],
      "stateMutability": "nonpayable",
      "type": "function"
    },
    {
      "inputs": [
        {
          "internalType": "address",
          "name": "_router",
          "type": "address"
        }
      ],
      "name": "setRouter",
      "outputs": [],
      "stateMutability": "nonpayable",
      "type": "function"
    },
    {
      "inputs": [
        {
          "internalType": "bytes4",
          "name": "selector",
          "type": "bytes4"
        }
      ],
      "name": "supportMethod",
      "outputs": [
        {
          "internalType": "bool",
          "name": "",
          "type": "bool"
        }
      ],
      "stateMutability": "pure",
      "type": "function"
    },
    {
      "inputs": [
        {
          "internalType": "bytes4",
          "name": "interfaceId",
          "type": "bytes4"
        }
      ],
      "name": "supportsInterface",
      "outputs": [
        {
          "internalType": "bool",
          "name": "",
          "type": "bool"
        }
      ],
      "stateMutability": "view",
      "type": "function"
    }
  ],
  "transactionHash": "0x105cb2dedc4af1ba24db6f3c459c278ffbd85b4b9eab5017632e6fc1ad6b8c82",
  "args": [
    "0x0d0D5Ff3cFeF8B7B2b1cAC6B6C27Fd0846c09361",
    "0x381c031bAA5995D0Cc52386508050Ac947780815",
    "0xB9cC0Bb020cF55197C4C3d826AC87CAdba51f272"
  ],
  "numDeployments": 2,
  "solcInputHash": "0cbf7cfbe136b839052e6e1e71a1c86a",
  "bytecode": "0x608034620000d357601f6200141d38819003918201601f19168301916001600160401b03831184841017620000d857808492606094604052833981010312620000d3576200008c6200005182620000ee565b91620000796200007260406200006a60208501620000ee565b9301620000ee565b9362000103565b50620000853362000183565b5062000183565b506001600160a01b03168015620000c157600280546001600160a01b0319169190911790556040516111d79081620002268239f35b60405163867915ab60e01b8152600490fd5b600080fd5b634e487b7160e01b600052604160045260246000fd5b51906001600160a01b0382168203620000d357565b6001600160a01b031660008181527fad3228b676f7d3cd4284a5443f17f1962b36e491b30a40b2405849e597ba5fb5602052604081205490919060ff166200017f57818052816020526040822081835260205260408220600160ff198254161790553391600080516020620013fd8339815191528180a4600190565b5090565b6001600160a01b031660008181527fee57cd81e84075558e8fcc182a1f4393f91fc97f963a136e66b7f949a62f319f60205260408120549091907f97667070c54ef182b0f5858b034beac1b6f3089aa2d3188bb1e8929f4fa9b9299060ff166200022057808352826020526040832082845260205260408320600160ff19825416179055600080516020620013fd833981519152339380a4600190565b50509056fe6080604052600436101561001257600080fd5b60003560e01c806301ffc9a7146101775780630c6a04371461017257806321f93b1e1461016d578063248a9ca3146101685780632f2ff15d1461016357806336568abe1461015e57806337528ffa146101595780633e42d4a4146101545780634214d2e51461014f5780636d4c9cd61461014a5780637b1039991461014557806391d1485414610140578063a217fddf1461013b578063a91ee0dc14610136578063b00899cf14610131578063b3d632881461012c578063c0d7865514610127578063d547741f14610122578063e289adcd1461011d578063f5b541a614610118578063f887ea40146101135763f953cec71461010e57600080fd5b610982565b610959565b61091e565b61088e565b61084c565b6107df565b6107b8565b61078c565b61070d565b6106f1565b61069b565b610672565b61063b565b6105f6565b6104b2565b610423565b6103c5565b610383565b610343565b610304565b61021c565b6101a4565b602090600319011261019f576004356001600160e01b03198116810361019f5790565b600080fd5b3461019f5760206001600160e01b03196101bd3661017c565b16637965db0b60e01b81149081156101db575b506040519015158152f35b6301ffc9a760e01b149050386101d0565b9181601f8401121561019f578235916001600160401b03831161019f576020808501948460051b01011161019f57565b3461019f57604036600319011261019f576001600160401b0360043581811161019f5761024d9036906004016101ec565b909160243590811161019f576102679036906004016101ec565b9050610271610c89565b81036102c65760005b81811061028357005b806102c061029d6001936000526003602052604060002090565b548260051b86013581600052600460205280604060002055600052604060002055565b0161027a565b60405162461bcd60e51b815260206004820152601660248201527524b73b30b634b21030b93930bcb9903632b733ba341760511b6044820152606490fd5b3461019f57604036600319011261019f5761031d610c89565b61034160243560043581600052600460205280604060002055600052604060002055565b005b3461019f57602036600319011261019f5760043560005260006020526020600160406000200154604051908152f35b6001600160a01b0381160361019f57565b3461019f57604036600319011261019f576103416024356004356103a682610372565b8060005260006020526103c0600160406000200154610d05565b610d24565b3461019f57604036600319011261019f576024356103e281610372565b336001600160a01b038216036103fe5761034190600435610db5565b60405163334bd91960e11b8152600490fd5b6004359063ffffffff8216820361019f57565b3461019f57602036600319011261019f5761043c610410565b6001546001600160a01b0316330361049a576002805463ffffffff60a01b191660a083901b63ffffffff60a01b1617905563ffffffff167f47333240c37caed3a1253ddbea098806bb1baf7280274b495d478f95b28dd06d600080a2005b604051633d5e603f60e01b8152336004820152602490fd5b3461019f57602063f953cec760e01b6001600160e01b03196104d33661017c565b1614604051908152f35b634e487b7160e01b600052604160045260246000fd5b6001600160401b03811161050657604052565b6104dd565b608081019081106001600160401b0382111761050657604052565b90601f801991011681019081106001600160401b0382111761050657604052565b604051906105548261050b565b565b6040519060a082018281106001600160401b0382111761050657604052565b60405190606082018281106001600160401b0382111761050657604052565b6001600160401b03811161050657601f01601f191660200190565b81601f8201121561019f578035906105c682610594565b926105d46040519485610526565b8284526020838301011161019f57816000926020809301838601378301015290565b3461019f57604036600319011261019f5761060f610410565b506024356001600160401b03811161019f5761062f9036906004016105af565b50602060405160008152f35b3461019f57602036600319011261019f5760043560005260036020526020604060002054604051908152f35b600091031261019f57565b3461019f57600036600319011261019f576002546040516001600160a01b039091168152602090f35b3461019f57604036600319011261019f57602060ff6106e56024356106bf81610372565b6004356000526000845260406000209060018060a01b0316600052602052604060002090565b54166040519015158152f35b3461019f57600036600319011261019f57602060405160008152f35b3461019f57602036600319011261019f5760043561072a81610372565b610732610c89565b6001600160a01b0316801561077a57600280546001600160a01b031916821790557f278c70ced5f3e0e5eeb385b5ff9cb735748ba00a625147e66065ed48fc1562cd600080a2005b60405163867915ab60e01b8152600490fd5b3461019f57602036600319011261019f5760043560005260046020526020604060002054604051908152f35b3461019f57600036600319011261019f57602063ffffffff60025460a01c16604051908152f35b3461019f57602036600319011261019f576004356107fc81610372565b610804610c89565b6001600160a01b0316801561077a57600180546001600160a01b031916821790557f6de4326a8b9054d72d9dbab97d27bc4edffadee7d966f5af9cc4eafdaf8e5455600080a2005b3461019f57604036600319011261019f5761034160243560043561086f82610372565b806000526000602052610889600160406000200154610d05565b610db5565b604036600319011261019f576024356001600160401b03811161019f576108b99036906004016105af565b6002546001600160a01b0316803b1561019f5760405163f953cec760e01b8152602060048201529060009082908183816108f66024820189610b67565b03925af180156109195761090657005b80610913610341926104f3565b80610667565b610b8c565b3461019f57600036600319011261019f5760206040517f97667070c54ef182b0f5858b034beac1b6f3089aa2d3188bb1e8929f4fa9b9298152f35b3461019f57600036600319011261019f576001546040516001600160a01b039091168152602090f35b3461019f57602036600319011261019f57600480356001600160401b03811161019f576109b290369083016105af565b6001549091906109d2906001600160a01b03165b6001600160a01b031690565b60025460408051636a80cdc560e11b81524685820190815263ffffffff60a085901c8116602080840191909152339483019490945293969491929183918290819060600103915afa90811561091957600091610b15575b5015610aeb5750610a3990611015565b918251610a4581610bb0565b610a4e81610bb0565b610a975750600254602090610a6b906001600160a01b03166109c6565b920151823b1561019f576108f6926000928360405180968195829463797266f560e11b84528301610c25565b60018351610aa481610bb0565b610aad81610bb0565b14610ab457005b60409060018060a01b0316920151823b1561019f576108f692600092836040518096819582946328f2f2c960e21b84528301610bd0565b6040516325614e5f60e11b8152469190911663ffffffff1692810192835291829003602001919050fd5b610b37915060203d602011610b3d575b610b2f8183610526565b810190610b98565b38610a29565b503d610b25565b60005b838110610b575750506000910152565b8181015183820152602001610b47565b90602091610b8081518092818552858086019101610b44565b601f01601f1916010190565b6040513d6000823e3d90fd5b9081602091031261019f5751801515810361019f5790565b60021115610bba57565b634e487b7160e01b600052602160045260246000fd5b90610c229160208152815160208201526001600160401b0360208301511660408201526060610c0d604084015160808385015260a0840190610b67565b920151906080601f1982850301910152610b67565b90565b90610c2291602081528151602082015260018060a01b0360208301511660408201526001600160401b0360408301511660608201526080610c74606084015160a08385015260c0840190610b67565b9201519060a0601f1982850301910152610b67565b3360009081527fee57cd81e84075558e8fcc182a1f4393f91fc97f963a136e66b7f949a62f319f602052604090207f97667070c54ef182b0f5858b034beac1b6f3089aa2d3188bb1e8929f4fa9b9299060ff905b541615610ce75750565b6044906040519063e2517d3f60e01b82523360048301526024820152fd5b600081815260208181526040808320338452909152902060ff90610cdd565b6000818152602081815260408083206001600160a01b038616845290915281205490919060ff16610daf57808252602082815260408084206001600160a01b038616600090815292529020805460ff1916600117905533926001600160a01b0316917f2f8788117e7eff1d82e926ec794901d17c78024a50270940304540a733656f0d9080a4600190565b50905090565b6000818152602081815260408083206001600160a01b038616845290915281205490919060ff1615610daf57808252602082815260408084206001600160a01b038616600090815292529020805460ff1916905533926001600160a01b0316917ff6391f5c32d9c69d2a47ea670b442974b53935d1edc7fd64eb21e047a839171b9080a4600190565b60408051606092916001600160401b039184810183811182821017610506578252809460009384835283519060a082019082821090821117610506578452848152846020820152848482015281808201528160808201526020830152825193610ea68561050b565b80855260208501528083850152808401520152565b519060ff8216820361019f57565b51906001600160401b038216820361019f57565b81601f8201121561019f578051610ef381610594565b92610f016040519485610526565b8184526020828401011161019f57610c229160208085019101610b44565b91909160a08184031261019f57610f3581610ebb565b92602082015192610f4860408401610ec9565b926060810151926001600160401b039384811161019f5781610f6b918401610edd565b93608083015190811161019f57610c229201610edd565b60405190602082018281106001600160401b038211176105065760405260008252565b9160c08383031261019f57610fb983610ebb565b926020810151926040820151610fce81610372565b92610fdb60608401610ec9565b926080810151926001600160401b039384811161019f5781610ffe918401610edd565b9360a083015190811161019f57610c229201610edd565b61101d610e3e565b5060ff600182015116600181146000146110cf575061107e61104b8260208061106e95518301019101610fa5565b959396919290945061105b610556565b9687526001600160a01b03166020870152565b6001600160401b03166040850152565b60608301526080820152611090610547565b60008152600060208201526110a3610f82565b60408201526110b0610f82565b60608201526110bd610575565b91600083526020830152604082015290565b600203611165576110ec8160208061110c94518301019101610f1f565b93509193906110f9610547565b9485526001600160401b03166020850152565b6040830152606082015261111e610556565b90600082526000602083015260006040830152611139610f82565b6060830152611146610f82565b6080830152611153610575565b60018152916020830152604082015290565b60405162461bcd60e51b8152602060048201526014602482015273556e6b6e6f776e206d657373616765207479706560601b6044820152606490fdfea26469706673582212200ad4368247b6acef121c80d6de097b2a783ab1f26b83c29265dce630e1a03e8c64736f6c634300081800332f8788117e7eff1d82e926ec794901d17c78024a50270940304540a733656f0d",
  "devdoc": {
    "errors": {
      "AccessControlBadConfirmation()": [
        {
          "details": "The caller of a function is not the expected one. NOTE: Don't confuse with {AccessControlUnauthorizedAccount}."
        }
      ],
      "AccessControlUnauthorizedAccount(address,bytes32)": [
        {
          "details": "The `account` is missing a role."
        }
      ]
    },
    "events": {
      "RoleAdminChanged(bytes32,bytes32,bytes32)": {
        "details": "Emitted when `newAdminRole` is set as ``role``'s admin role, replacing `previousAdminRole` `DEFAULT_ADMIN_ROLE` is the starting admin for all roles, despite {RoleAdminChanged} not being emitted signaling this."
      },
      "RoleGranted(bytes32,address,address)": {
        "details": "Emitted when `account` is granted `role`. `sender` is the account that originated the contract call, an admin role bearer except when using {AccessControl-_setupRole}."
      },
      "RoleRevoked(bytes32,address,address)": {
        "details": "Emitted when `account` is revoked `role`. `sender` is the account that originated the contract call:   - if using `revokeRole`, it is the admin role bearer   - if using `renounceRole`, it is the role bearer (i.e. `account`)"
      }
    },
    "kind": "dev",
    "methods": {
      "getRoleAdmin(bytes32)": {
        "details": "Returns the admin role that controls `role`. See {grantRole} and {revokeRole}. To change a role's admin, use {_setRoleAdmin}."
      },
      "grantRole(bytes32,address)": {
        "details": "Grants `role` to `account`. If `account` had not been already granted `role`, emits a {RoleGranted} event. Requirements: - the caller must have ``role``'s admin role. May emit a {RoleGranted} event."
      },
      "hasRole(bytes32,address)": {
        "details": "Returns `true` if `account` has been granted `role`."
      },
      "renounceRole(bytes32,address)": {
        "details": "Revokes `role` from the calling account. Roles are often managed via {grantRole} and {revokeRole}: this function's purpose is to provide a mechanism for accounts to lose their privileges if they are compromised (such as when a trusted device is misplaced). If the calling account had been revoked `role`, emits a {RoleRevoked} event. Requirements: - the caller must be `callerConfirmation`. May emit a {RoleRevoked} event."
      },
      "revokeRole(bytes32,address)": {
        "details": "Revokes `role` from `account`. If `account` had been granted `role`, emits a {RoleRevoked} event. Requirements: - the caller must have ``role``'s admin role. May emit a {RoleRevoked} event."
      },
      "supportsInterface(bytes4)": {
        "details": "See {IERC165-supportsInterface}."
      }
    },
    "version": 1
  },
  "userdoc": {
    "kind": "user",
    "methods": {},
    "version": 1
  },
  "storageLayout": {
    "storage": [
      {
        "astId": 4918,
        "contract": "contracts/connectors/SameChainConnector.sol:SameChainConnector",
        "label": "_roles",
        "offset": 0,
        "slot": "0",
        "type": "t_mapping(t_bytes32,t_struct(RoleData)4913_storage)"
      },
      {
        "astId": 12454,
        "contract": "contracts/connectors/SameChainConnector.sol:SameChainConnector",
        "label": "router",
        "offset": 0,
        "slot": "1",
        "type": "t_contract(SingleRouter)12434"
      },
      {
        "astId": 12457,
        "contract": "contracts/connectors/SameChainConnector.sol:SameChainConnector",
        "label": "registry",
        "offset": 0,
        "slot": "2",
        "type": "t_contract(ISingleIdentifierRegistry)13683"
      },
      {
        "astId": 12459,
        "contract": "contracts/connectors/SameChainConnector.sol:SameChainConnector",
        "label": "connectorId",
        "offset": 20,
        "slot": "2",
        "type": "t_uint32"
      },
      {
        "astId": 12463,
        "contract": "contracts/connectors/SameChainConnector.sol:SameChainConnector",
        "label": "customChainIds",
        "offset": 0,
        "slot": "3",
        "type": "t_mapping(t_uint256,t_uint256)"
      },
      {
        "astId": 12467,
        "contract": "contracts/connectors/SameChainConnector.sol:SameChainConnector",
        "label": "nativeChainIds",
        "offset": 0,
        "slot": "4",
        "type": "t_mapping(t_uint256,t_uint256)"
      }
    ],
    "types": {
      "t_address": {
        "encoding": "inplace",
        "label": "address",
        "numberOfBytes": "20"
      },
      "t_bool": {
        "encoding": "inplace",
        "label": "bool",
        "numberOfBytes": "1"
      },
      "t_bytes32": {
        "encoding": "inplace",
        "label": "bytes32",
        "numberOfBytes": "32"
      },
      "t_contract(ISingleIdentifierRegistry)13683": {
        "encoding": "inplace",
        "label": "contract ISingleIdentifierRegistry",
        "numberOfBytes": "20"
      },
      "t_contract(SingleRouter)12434": {
        "encoding": "inplace",
        "label": "contract SingleRouter",
        "numberOfBytes": "20"
      },
      "t_mapping(t_address,t_bool)": {
        "encoding": "mapping",
        "key": "t_address",
        "label": "mapping(address => bool)",
        "numberOfBytes": "32",
        "value": "t_bool"
      },
      "t_mapping(t_bytes32,t_struct(RoleData)4913_storage)": {
        "encoding": "mapping",
        "key": "t_bytes32",
        "label": "mapping(bytes32 => struct AccessControl.RoleData)",
        "numberOfBytes": "32",
        "value": "t_struct(RoleData)4913_storage"
      },
      "t_mapping(t_uint256,t_uint256)": {
        "encoding": "mapping",
        "key": "t_uint256",
        "label": "mapping(uint256 => uint256)",
        "numberOfBytes": "32",
        "value": "t_uint256"
      },
      "t_struct(RoleData)4913_storage": {
        "encoding": "inplace",
        "label": "struct AccessControl.RoleData",
        "members": [
          {
            "astId": 4910,
            "contract": "contracts/connectors/SameChainConnector.sol:SameChainConnector",
            "label": "hasRole",
            "offset": 0,
            "slot": "0",
            "type": "t_mapping(t_address,t_bool)"
          },
          {
            "astId": 4912,
            "contract": "contracts/connectors/SameChainConnector.sol:SameChainConnector",
            "label": "adminRole",
            "offset": 0,
            "slot": "1",
            "type": "t_bytes32"
          }
        ],
        "numberOfBytes": "64"
      },
      "t_uint256": {
        "encoding": "inplace",
        "label": "uint256",
        "numberOfBytes": "32"
      },
      "t_uint32": {
        "encoding": "inplace",
        "label": "uint32",
        "numberOfBytes": "4"
      }
    }
  }
}