{
  "address": "0x3fd85e4932fA418401E96737700bA62569c08dA2",
  "abi": [
    {
      "inputs": [
        {
          "internalType": "uint256",
          "name": "_protocolFee",
          "type": "uint256"
        },
        {
          "internalType": "address",
          "name": "_admin",
          "type": "address"
        },
        {
          "internalType": "address",
          "name": "_operator",
          "type": "address"
        },
        {
          "internalType": "address",
          "name": "_router",
          "type": "address"
        }
      ],
      "stateMutability": "nonpayable",
      "type": "constructor"
    },
    {
      "inputs": [],
      "name": "AccessControlBadConfirmation",
      "type": "error"
    },
    {
      "inputs": [
        {
          "internalType": "address",
          "name": "account",
          "type": "address"
        },
        {
          "internalType": "bytes32",
          "name": "neededRole",
          "type": "bytes32"
        }
      ],
      "name": "AccessControlUnauthorizedAccount",
      "type": "error"
    },
    {
      "inputs": [],
      "name": "AddressIsZero",
      "type": "error"
    },
    {
      "inputs": [],
      "name": "ChainIdInvalid",
      "type": "error"
    },
    {
      "inputs": [],
      "name": "DataIsEmpty",
      "type": "error"
    },
    {
      "inputs": [],
      "name": "ECDSAInvalidSignature",
      "type": "error"
    },
    {
      "inputs": [
        {
          "internalType": "uint256",
          "name": "length",
          "type": "uint256"
        }
      ],
      "name": "ECDSAInvalidSignatureLength",
      "type": "error"
    },
    {
      "inputs": [
        {
          "internalType": "bytes32",
          "name": "s",
          "type": "bytes32"
        }
      ],
      "name": "ECDSAInvalidSignatureS",
      "type": "error"
    },
    {
      "inputs": [],
      "name": "EmitterAlreadyExists",
      "type": "error"
    },
    {
      "inputs": [],
      "name": "EmitterNotExists",
      "type": "error"
    },
    {
      "inputs": [],
      "name": "ExpirationDateInvalid",
      "type": "error"
    },
    {
      "inputs": [],
      "name": "InvalidShortString",
      "type": "error"
    },
    {
      "inputs": [],
      "name": "ProtocolIdInvalid",
      "type": "error"
    },
    {
      "inputs": [],
      "name": "SIDNotValid",
      "type": "error"
    },
    {
      "inputs": [],
      "name": "SchemaIdInvalid",
      "type": "error"
    },
    {
      "inputs": [],
      "name": "SenderNotEmitter",
      "type": "error"
    },
    {
      "inputs": [],
      "name": "SignatureInvalid",
      "type": "error"
    },
    {
      "inputs": [
        {
          "internalType": "string",
          "name": "str",
          "type": "string"
        }
      ],
      "name": "StringTooLong",
      "type": "error"
    },
    {
      "inputs": [],
      "name": "WrongFeeAmount",
      "type": "error"
    },
    {
      "anonymous": false,
      "inputs": [],
      "name": "EIP712DomainChanged",
      "type": "event"
    },
    {
      "anonymous": false,
      "inputs": [
        {
          "indexed": true,
          "internalType": "bytes32",
          "name": "emitterId",
          "type": "bytes32"
        },
        {
          "indexed": true,
          "internalType": "address",
          "name": "emitterAddress",
          "type": "address"
        },
        {
          "indexed": false,
          "internalType": "uint256",
          "name": "registryChainId",
          "type": "uint256"
        }
      ],
      "name": "EmitterRegistered",
      "type": "event"
    },
    {
      "anonymous": false,
      "inputs": [
        {
          "indexed": true,
          "internalType": "bytes32",
          "name": "role",
          "type": "bytes32"
        },
        {
          "indexed": true,
          "internalType": "bytes32",
          "name": "previousAdminRole",
          "type": "bytes32"
        },
        {
          "indexed": true,
          "internalType": "bytes32",
          "name": "newAdminRole",
          "type": "bytes32"
        }
      ],
      "name": "RoleAdminChanged",
      "type": "event"
    },
    {
      "anonymous": false,
      "inputs": [
        {
          "indexed": true,
          "internalType": "bytes32",
          "name": "role",
          "type": "bytes32"
        },
        {
          "indexed": true,
          "internalType": "address",
          "name": "account",
          "type": "address"
        },
        {
          "indexed": true,
          "internalType": "address",
          "name": "sender",
          "type": "address"
        }
      ],
      "name": "RoleGranted",
      "type": "event"
    },
    {
      "anonymous": false,
      "inputs": [
        {
          "indexed": true,
          "internalType": "bytes32",
          "name": "role",
          "type": "bytes32"
        },
        {
          "indexed": true,
          "internalType": "address",
          "name": "account",
          "type": "address"
        },
        {
          "indexed": true,
          "internalType": "address",
          "name": "sender",
          "type": "address"
        }
      ],
      "name": "RoleRevoked",
      "type": "event"
    },
    {
      "anonymous": false,
      "inputs": [
        {
          "indexed": true,
          "internalType": "bytes32",
          "name": "schemaId",
          "type": "bytes32"
        },
        {
          "indexed": true,
          "internalType": "uint32",
          "name": "protocolId",
          "type": "uint32"
        },
        {
          "indexed": true,
          "internalType": "address",
          "name": "user",
          "type": "address"
        },
        {
          "indexed": false,
          "internalType": "uint256",
          "name": "registryDst",
          "type": "uint256"
        }
      ],
      "name": "SentRegisterSIDMessage",
      "type": "event"
    },
    {
      "anonymous": false,
      "inputs": [
        {
          "indexed": true,
          "internalType": "bytes32",
          "name": "id",
          "type": "bytes32"
        },
        {
          "indexed": true,
          "internalType": "uint32",
          "name": "protocolId",
          "type": "uint32"
        },
        {
          "indexed": true,
          "internalType": "address",
          "name": "user",
          "type": "address"
        },
        {
          "indexed": false,
          "internalType": "uint256",
          "name": "registryDst",
          "type": "uint256"
        }
      ],
      "name": "SentUpdateSIDMessage",
      "type": "event"
    },
    {
      "anonymous": false,
      "inputs": [
        {
          "indexed": false,
          "internalType": "uint256",
          "name": "fee",
          "type": "uint256"
        }
      ],
      "name": "SetProtocolFee",
      "type": "event"
    },
    {
      "anonymous": false,
      "inputs": [
        {
          "indexed": true,
          "internalType": "address",
          "name": "newRouter",
          "type": "address"
        }
      ],
      "name": "SetRouter",
      "type": "event"
    },
    {
      "anonymous": false,
      "inputs": [
        {
          "indexed": true,
          "internalType": "bytes32",
          "name": "emitterId",
          "type": "bytes32"
        },
        {
          "indexed": true,
          "internalType": "address",
          "name": "newEmitter",
          "type": "address"
        }
      ],
      "name": "UpdateEmitter",
      "type": "event"
    },
    {
      "anonymous": false,
      "inputs": [
        {
          "indexed": true,
          "internalType": "address",
          "name": "receiver",
          "type": "address"
        },
        {
          "indexed": false,
          "internalType": "uint256",
          "name": "amount",
          "type": "uint256"
        }
      ],
      "name": "Withdrawal",
      "type": "event"
    },
    {
      "inputs": [],
      "name": "DEFAULT_ADMIN_ROLE",
      "outputs": [
        {
          "internalType": "bytes32",
          "name": "",
          "type": "bytes32"
        }
      ],
      "stateMutability": "view",
      "type": "function"
    },
    {
      "inputs": [],
      "name": "NAME",
      "outputs": [
        {
          "internalType": "string",
          "name": "",
          "type": "string"
        }
      ],
      "stateMutability": "view",
      "type": "function"
    },
    {
      "inputs": [],
      "name": "OPERATOR_ROLE",
      "outputs": [
        {
          "internalType": "bytes32",
          "name": "",
          "type": "bytes32"
        }
      ],
      "stateMutability": "view",
      "type": "function"
    },
    {
      "inputs": [],
      "name": "VERSION",
      "outputs": [
        {
          "internalType": "string",
          "name": "",
          "type": "string"
        }
      ],
      "stateMutability": "view",
      "type": "function"
    },
    {
      "inputs": [],
      "name": "eip712Domain",
      "outputs": [
        {
          "internalType": "bytes1",
          "name": "fields",
          "type": "bytes1"
        },
        {
          "internalType": "string",
          "name": "name",
          "type": "string"
        },
        {
          "internalType": "string",
          "name": "version",
          "type": "string"
        },
        {
          "internalType": "uint256",
          "name": "chainId",
          "type": "uint256"
        },
        {
          "internalType": "address",
          "name": "verifyingContract",
          "type": "address"
        },
        {
          "internalType": "bytes32",
          "name": "salt",
          "type": "bytes32"
        },
        {
          "internalType": "uint256[]",
          "name": "extensions",
          "type": "uint256[]"
        }
      ],
      "stateMutability": "view",
      "type": "function"
    },
    {
      "inputs": [
        {
          "internalType": "bytes32",
          "name": "emitterId",
          "type": "bytes32"
        }
      ],
      "name": "emitters",
      "outputs": [
        {
          "internalType": "bytes32",
          "name": "emitterId",
          "type": "bytes32"
        },
        {
          "internalType": "bytes32",
          "name": "schemaId",
          "type": "bytes32"
        },
        {
          "internalType": "uint64",
          "name": "expirationDate",
          "type": "uint64"
        },
        {
          "internalType": "uint256",
          "name": "fee",
          "type": "uint256"
        },
        {
          "internalType": "uint256",
          "name": "registryChainId",
          "type": "uint256"
        },
        {
          "internalType": "address",
          "name": "owner",
          "type": "address"
        }
      ],
      "stateMutability": "view",
      "type": "function"
    },
    {
      "inputs": [
        {
          "internalType": "bytes32",
          "name": "emitterId",
          "type": "bytes32"
        }
      ],
      "name": "emittersBalances",
      "outputs": [
        {
          "internalType": "uint256",
          "name": "balance",
          "type": "uint256"
        }
      ],
      "stateMutability": "view",
      "type": "function"
    },
    {
      "inputs": [
        {
          "internalType": "bytes32",
          "name": "role",
          "type": "bytes32"
        }
      ],
      "name": "getRoleAdmin",
      "outputs": [
        {
          "internalType": "bytes32",
          "name": "",
          "type": "bytes32"
        }
      ],
      "stateMutability": "view",
      "type": "function"
    },
    {
      "inputs": [
        {
          "internalType": "bytes32",
          "name": "role",
          "type": "bytes32"
        },
        {
          "internalType": "address",
          "name": "account",
          "type": "address"
        }
      ],
      "name": "grantRole",
      "outputs": [],
      "stateMutability": "nonpayable",
      "type": "function"
    },
    {
      "inputs": [
        {
          "internalType": "bytes32",
          "name": "role",
          "type": "bytes32"
        },
        {
          "internalType": "address",
          "name": "account",
          "type": "address"
        }
      ],
      "name": "hasRole",
      "outputs": [
        {
          "internalType": "bool",
          "name": "",
          "type": "bool"
        }
      ],
      "stateMutability": "view",
      "type": "function"
    },
    {
      "inputs": [],
      "name": "protocolBalance",
      "outputs": [
        {
          "internalType": "uint256",
          "name": "",
          "type": "uint256"
        }
      ],
      "stateMutability": "view",
      "type": "function"
    },
    {
      "inputs": [],
      "name": "protocolFee",
      "outputs": [
        {
          "internalType": "uint256",
          "name": "",
          "type": "uint256"
        }
      ],
      "stateMutability": "view",
      "type": "function"
    },
    {
      "inputs": [
        {
          "internalType": "bytes32",
          "name": "_schemaId",
          "type": "bytes32"
        },
        {
          "internalType": "uint256",
          "name": "_registryChainId",
          "type": "uint256"
        },
        {
          "internalType": "address",
          "name": "_emitterAddress",
          "type": "address"
        },
        {
          "internalType": "uint64",
          "name": "_expirationDate",
          "type": "uint64"
        },
        {
          "internalType": "uint256",
          "name": "_fee",
          "type": "uint256"
        },
        {
          "internalType": "bytes",
          "name": "_data",
          "type": "bytes"
        },
        {
          "internalType": "bytes",
          "name": "_signature",
          "type": "bytes"
        }
      ],
      "name": "registerEmitter",
      "outputs": [
        {
          "internalType": "bytes32",
          "name": "",
          "type": "bytes32"
        }
      ],
      "stateMutability": "nonpayable",
      "type": "function"
    },
    {
      "inputs": [
        {
          "internalType": "bytes32",
          "name": "_emitterId",
          "type": "bytes32"
        },
        {
          "internalType": "uint32",
          "name": "_connectorId",
          "type": "uint32"
        },
        {
          "internalType": "bytes",
          "name": "_data",
          "type": "bytes"
        },
        {
          "internalType": "bytes",
          "name": "_signature",
          "type": "bytes"
        },
        {
          "internalType": "string",
          "name": "_metadata",
          "type": "string"
        }
      ],
      "name": "registerSID",
      "outputs": [],
      "stateMutability": "payable",
      "type": "function"
    },
    {
      "inputs": [
        {
          "internalType": "bytes32",
          "name": "_schemaId",
          "type": "bytes32"
        },
        {
          "internalType": "uint32",
          "name": "_connectorId",
          "type": "uint32"
        },
        {
          "internalType": "uint64",
          "name": "_expirationDate",
          "type": "uint64"
        },
        {
          "internalType": "uint256",
          "name": "_fee",
          "type": "uint256"
        },
        {
          "internalType": "uint256",
          "name": "_registryChainId",
          "type": "uint256"
        },
        {
          "internalType": "address",
          "name": "_emitterAddress",
          "type": "address"
        },
        {
          "internalType": "bytes",
          "name": "_data",
          "type": "bytes"
        },
        {
          "internalType": "string",
          "name": "_metadata",
          "type": "string"
        },
        {
          "internalType": "bytes",
          "name": "_signature",
          "type": "bytes"
        }
      ],
      "name": "registerSIDWithEmitter",
      "outputs": [],
      "stateMutability": "payable",
      "type": "function"
    },
    {
      "inputs": [
        {
          "internalType": "bytes32",
          "name": "role",
          "type": "bytes32"
        },
        {
          "internalType": "address",
          "name": "callerConfirmation",
          "type": "address"
        }
      ],
      "name": "renounceRole",
      "outputs": [],
      "stateMutability": "nonpayable",
      "type": "function"
    },
    {
      "inputs": [
        {
          "internalType": "bytes32",
          "name": "role",
          "type": "bytes32"
        },
        {
          "internalType": "address",
          "name": "account",
          "type": "address"
        }
      ],
      "name": "revokeRole",
      "outputs": [],
      "stateMutability": "nonpayable",
      "type": "function"
    },
    {
      "inputs": [],
      "name": "router",
      "outputs": [
        {
          "internalType": "contract SingleRouter",
          "name": "",
          "type": "address"
        }
      ],
      "stateMutability": "view",
      "type": "function"
    },
    {
      "inputs": [
        {
          "internalType": "uint256",
          "name": "_fee",
          "type": "uint256"
        }
      ],
      "name": "setProtocolFee",
      "outputs": [],
      "stateMutability": "nonpayable",
      "type": "function"
    },
    {
      "inputs": [
        {
          "internalType": "address",
          "name": "_router",
          "type": "address"
        }
      ],
      "name": "setRouter",
      "outputs": [],
      "stateMutability": "nonpayable",
      "type": "function"
    },
    {
      "inputs": [
        {
          "internalType": "bytes4",
          "name": "interfaceId",
          "type": "bytes4"
        }
      ],
      "name": "supportsInterface",
      "outputs": [
        {
          "internalType": "bool",
          "name": "",
          "type": "bool"
        }
      ],
      "stateMutability": "view",
      "type": "function"
    },
    {
      "inputs": [
        {
          "internalType": "bytes32",
          "name": "_emitterId",
          "type": "bytes32"
        },
        {
          "internalType": "address",
          "name": "_newEmitter",
          "type": "address"
        }
      ],
      "name": "updateEmitter",
      "outputs": [],
      "stateMutability": "nonpayable",
      "type": "function"
    },
    {
      "inputs": [
        {
          "internalType": "bytes32",
          "name": "_emitterId",
          "type": "bytes32"
        },
        {
          "internalType": "uint256",
          "name": "_fee",
          "type": "uint256"
        }
      ],
      "name": "updateFee",
      "outputs": [],
      "stateMutability": "nonpayable",
      "type": "function"
    },
    {
      "inputs": [
        {
          "internalType": "bytes32",
          "name": "_emitterId",
          "type": "bytes32"
        },
        {
          "internalType": "uint32",
          "name": "_connectorId",
          "type": "uint32"
        },
        {
          "internalType": "bytes32",
          "name": "_sidId",
          "type": "bytes32"
        },
        {
          "internalType": "uint64",
          "name": "_expirationDate",
          "type": "uint64"
        },
        {
          "internalType": "bytes",
          "name": "_data",
          "type": "bytes"
        },
        {
          "internalType": "string",
          "name": "_metadata",
          "type": "string"
        },
        {
          "internalType": "bytes",
          "name": "_signature",
          "type": "bytes"
        }
      ],
      "name": "updateSID",
      "outputs": [],
      "stateMutability": "nonpayable",
      "type": "function"
    },
    {
      "inputs": [
        {
          "internalType": "bytes32",
          "name": "_emitterId",
          "type": "bytes32"
        },
        {
          "internalType": "address payable",
          "name": "_receiver",
          "type": "address"
        }
      ],
      "name": "withdraw",
      "outputs": [],
      "stateMutability": "nonpayable",
      "type": "function"
    },
    {
      "inputs": [
        {
          "internalType": "address payable",
          "name": "_receiver",
          "type": "address"
        }
      ],
      "name": "withdraw",
      "outputs": [],
      "stateMutability": "nonpayable",
      "type": "function"
    }
  ],
  "transactionHash": "0x6733cfda99358ef28a553a3fcbdf68ec47eb8e9684fd20b225470141fd924a39",
  "args": [
    1000000000,
    "0x0d0D5Ff3cFeF8B7B2b1cAC6B6C27Fd0846c09361",
    "0x381c031bAA5995D0Cc52386508050Ac947780815",
    "0xfcB1A34583980bc4565Eb8458B0F715f69e04bA8"
  ],
  "numDeployments": 1,
  "solcInputHash": "0cbf7cfbe136b839052e6e1e71a1c86a",
  "bytecode": "0x610160346200025c57601f620025d538819003918201601f1916830192916001600160401b039182851184861017620002465781608092859260409788528339810103126200025c5781519262000059602084016200027d565b926200007560606200006d8484016200027d565b92016200027d565b93825193620000848562000261565b601e855260208501957f5275627973636f72655f53696e676c655f4964656e7469666965725f496400008752845197620000be8962000261565b600589526020890164302e302e3160d81b8152620000dc88620003b4565b98610120998a52620000ee8b6200058b565b98610140998a52519020998a60e0525190209861010099808b524660a05287519060208201927f8b73c3c69bb8fe3d512ecc4cf759cc79239f7b179b0ffacaa9a75d522b39400f84528983015260608201524660808201523060a082015260a0815260c08101948186109086111762000246578488525190206080523060c0526001600160a01b0392848416156200023757508285161562000226576003551680156200021557600580546001600160a01b0319169091179055620001cc9190620001b99062000292565b50620001c53362000312565b5062000312565b505191611e71938462000744853960805184611ac5015260a05184611b80015260c05184611a8f015260e05184611b1401525183611b3a0152518261094b015251816109750152f35b835163867915ab60e01b8152600490fd5b855163867915ab60e01b8152600490fd5b63867915ab60e01b8152600490fd5b634e487b7160e01b600052604160045260246000fd5b600080fd5b604081019081106001600160401b038211176200024657604052565b51906001600160a01b03821682036200025c57565b6001600160a01b031660008181527fad3228b676f7d3cd4284a5443f17f1962b36e491b30a40b2405849e597ba5fb5602052604081205490919060ff166200030e57818052816020526040822081835260205260408220600160ff198254161790553391600080516020620025b58339815191528180a4600190565b5090565b6001600160a01b031660008181527fee57cd81e84075558e8fcc182a1f4393f91fc97f963a136e66b7f949a62f319f60205260408120549091907f97667070c54ef182b0f5858b034beac1b6f3089aa2d3188bb1e8929f4fa9b9299060ff16620003af57808352826020526040832082845260205260408320600160ff19825416179055600080516020620025b5833981519152339380a4600190565b505090565b805160209081811015620004515750601f825111620003f05780825192015190808310620003e157501790565b82600019910360031b1b161790565b90604051809263305a27a960e01b82528060048301528251908160248401526000935b82851062000437575050604492506000838284010152601f80199101168101030190fd5b848101820151868601604401529381019385935062000413565b9192916001600160401b038111620002465760019182548381811c9116801562000580575b828210146200056a57601f811162000531575b5080601f8311600114620004c9575081929394600092620004bd575b5050600019600383901b1c191690821b17905560ff90565b015190503880620004a5565b90601f198316958460005282600020926000905b888210620005195750508385969710620004ff575b505050811b01905560ff90565b015160001960f88460031b161c19169055388080620004f2565b808785968294968601518155019501930190620004dd565b8360005283601f83600020920160051c820191601f850160051c015b8281106200055d57505062000489565b600081550184906200054d565b634e487b7160e01b600052602260045260246000fd5b90607f169062000476565b805160209081811015620006195750601f825111620005b85780825192015190808310620003e157501790565b90604051809263305a27a960e01b82528060048301528251908160248401526000935b828510620005ff575050604492506000838284010152601f80199101168101030190fd5b8481018201518686016044015293810193859350620005db565b906001600160401b0382116200024657600254926001938481811c9116801562000738575b838210146200056a57601f8111620006fe575b5081601f841160011462000692575092829391839260009462000686575b50501b916000199060031b1c19161760025560ff90565b0151925038806200066f565b919083601f198116600260005284600020946000905b88838310620006e35750505010620006c9575b505050811b0160025560ff90565b015160001960f88460031b161c19169055388080620006bb565b858701518855909601959485019487935090810190620006a8565b600260005284601f84600020920160051c820191601f860160051c015b8281106200072b57505062000651565b600081550185906200071b565b90607f16906200063e56fe608080604052600436101561001357600080fd5b600090813560e01c90816301ffc9a714611064575080630c3f573c14610fa357806311d7d03514610f125780631b258d5014610e18578063248a9ca314610dec5780632f2ff15d14610dad5780633427b33f14610d4057806336568abe14610cf857806351cff8d914610c4657806361adccb114610ac257806361e98db814610aa4578063787dce3d14610a5557806384b0196e1461093557806391d14854146108ed57806398ac5f1b1461042d578063a0ede6a91461038d578063a217fddf14610371578063a3f4df7e14610355578063b0e21e8a14610337578063c0d78655146102ba578063cbac3e4914610246578063d547741f14610203578063eca1cacf146101d9578063f5b541a61461019e578063f887ea40146101755763ffa1ad741461013f57600080fd5b3461017257806003193601126101725761016e61015a61128b565b604051918291602083526020830190611140565b0390f35b80fd5b50346101725780600319360112610172576005546040516001600160a01b039091168152602090f35b503461017257806003193601126101725760206040517f97667070c54ef182b0f5858b034beac1b6f3089aa2d3188bb1e8929f4fa9b9298152f35b50346101725760203660031901126101725760406020916004358152600783522054604051908152f35b5034610172576040366003190112610172576102426004356102236110e7565b908084528360205261023d6001604086200154339061188a565b611939565b5080f35b503461017257602036600319011261017257604060c09160043581526006602052208054906001810154906001600160401b03600282015416600382015490600483015492600560018060a01b039101541693604051958652602086015260408501526060840152608083015260a0820152f35b5034610172576020366003190112610172576102d46110fd565b6102dd33611807565b6001600160a01b0316801561032557600580546001600160a01b031916821790557f6de4326a8b9054d72d9dbab97d27bc4edffadee7d966f5af9cc4eafdaf8e54558280a280f35b60405163867915ab60e01b8152600490fd5b50346101725780600319360112610172576020600354604051908152f35b503461017257806003193601126101725761016e61015a611252565b5034610172578060031936011261017257602090604051908152f35b5034610172576040366003190112610172576004356103aa6110e7565b6103b333611807565b818352600660205260408320541561041b576001600160a01b03169081156103255780835260066020526040832060050180546001600160a01b031916831790557f667925a9bdae8446a1b9442b13ed4c01f57a9b33ed84c5f58992a6d5be8c2f868380a380f35b60405163b6df4bdb60e01b8152600490fd5b50346101725760e03660031901126101725760043561044a6110b9565b906104536110d1565b906084356001600160401b0381116108e957610473903690600401611113565b60a4356001600160401b0381116108e557610492903690600401611113565b939060c4356001600160401b0381116108e157366023820112156108e1576104c490369060248160040135910161121b565b95828952600660205260408920541561041b576001600160401b0316914283106108cf5783156108bd578651156108ab57604435156108995788526006602052604088209561051436858761121b565b80519060200120604051602081019088858337808981018d60208201520380825260200161054290826111df565b5190206040519060208201927f3e7a516fe2d41e22e28fe9cb74cd05e64b2325fb408b583b94d2c278ea87d45984526044356040840152866060840152608083015260a082015260a0815261059681611180565b5190206105a1611a8c565b906105ab916119ae565b906105b5916119cb565b6105be91611a07565b6105c790611807565b85549360038701549660040154966003546105e290826115ba565b61088757610645958a52600760205260408a20556106046003546004546115ba565b60045560208760018060a01b03600554168a604051809981948293634918d76b60e01b8452600484016020909392919363ffffffff60408201951681520152565b03915afa94851561087c57899561084b575b5060405193608085018581106001600160401b03821117610837576001600160401b036106b68c9897956106a761070a98966106fe966106eb966040526044358a5260208a01988952369161121b565b9a604088019b8c52369161121b565b94856060820152519351169751604051988994600260208701526040860152606085015260a0608085015260c0840190611140565b601f1993848483030160a0850152611140565b039081018552846111df565b604080516377d2b77160e01b815260048101869052602481019190915292906001600160a01b0316602084806107436044820186611140565b0381845afa93841561082c5783946107f8575b50803b156107f45761078c9160405194858094819363e289adcd60e01b8352896004840152604060248401526044830190611140565b03925af180156107e9576107d6575b5060405190815263ffffffff339216907f67a4c03bf8579f3c9861215d59876074cd52df280ba316d73f0eecc7aacbe160602060443592a480f35b6107e2909391936111b1565b913861079b565b6040513d86823e3d90fd5b8280fd5b9093506020813d602011610824575b81610814602093836111df565b810103126107f457519238610756565b3d9150610807565b6040513d85823e3d90fd5b634e487b7160e01b8b52604160045260248bfd5b61086e91955060203d602011610875575b61086681836111df565b8101906115dd565b9338610657565b503d61085c565b6040513d8b823e3d90fd5b604051636bae82db60e11b8152600490fd5b6040516313b96ac560e31b8152600490fd5b6040516337e8456b60e01b8152600490fd5b6040516391ea306f60e01b8152600490fd5b604051633b1e6c5f60e11b8152600490fd5b8880fd5b8680fd5b8480fd5b50346101725760403660031901126101725760ff604060209261090e6110e7565b60043582528185528282206001600160a01b03909116825284522054604051911615158152f35b503461017257806003193601126101725761096f7f0000000000000000000000000000000000000000000000000000000000000000611ba6565b906109997f0000000000000000000000000000000000000000000000000000000000000000611cd3565b906040519060209060208301938385106001600160401b03861117610a415792849260206109f788966109e998604052858552604051988998600f60f81b8a5260e0858b015260e08a0190611140565b9088820360408a0152611140565b924660608801523060808801528460a088015286840360c088015251928381520193925b828110610a2a57505050500390f35b835185528695509381019392810192600101610a1b565b634e487b7160e01b82526041600452602482fd5b5034610172576020366003190112610172577fdc0410a296e1e33943a772020d333d5f99319d7fcad932a484c53889f7aaa2b16020600435610a9633611807565b80600355604051908152a180f35b50346101725780600319360112610172576020600454604051908152f35b5060a036600319011261017257600435610ada6110b9565b6001600160401b03906044358281116108e957610afb903690600401611113565b906064358481116108e557610b14903690600401611113565b6084358681116108e157610b2c903690600401611113565b969095888a526020926006845260408b20541561041b5786156108bd5780156108ab57898b526006845260408b2060018101549590948a908a8e82610b72368e8e61121b565b8181519101209460405192818492848401968737820190838201520380835201610b9c90826111df565b519020604051918201927f3099343916b7010ba6d9380d3a62b19ae833bcc0f9214c67d2f40a9c3221f4348452896040840152336060840152608083015260a082015260a08152610bec81611180565b519020610bf7611a8c565b90610c01916119ae565b913690610c0d9261121b565b610c16916119cb565b610c1f91611a07565b610c2890611807565b600383015491600484015493600201541693610c43996115fc565b80f35b503461017257602036600319011261017257610c606110fd565b818052816020526040822033835260205260ff60408320541615610cd9576001600160a01b0316801561032557610ca882808080600454865af1610ca2611547565b50611577565b816004557f7fcf532c15f0a6db0bd6d0e038bea71d30d808c7d98cb3bf7268a95bf5081b656020604051848152a280f35b60405163e2517d3f60e01b815233600482015260248101839052604490fd5b503461017257604036600319011261017257610d126110e7565b336001600160a01b03821603610d2e5761024290600435611939565b60405163334bd91960e11b8152600490fd5b503461017257604036600319011261017257600435808252600660205260408220541561041b57808252600660205260408220600501546001600160a01b03163303610d9b5781526006602052602435600360408320015580f35b604051632d7e4ee760e21b8152600490fd5b503461017257604036600319011261017257610242600435610dcd6110e7565b9080845283602052610de76001604086200154339061188a565b6118bb565b503461017257602036600319011261017257600160406020926004358152808452200154604051908152f35b503461017257604036600319011261017257600435610e356110e7565b9080835260206006815260408420541561041b576001600160a01b039283169283156103255760a090838652600683526040862090600560405192610e7984611180565b805484526001810154868501526001600160401b036002820154166040850152600381015460608501526004810154608085015201541691829101523303610d9b578184526007815260408420547f7fcf532c15f0a6db0bd6d0e038bea71d30d808c7d98cb3bf7268a95bf5081b6592610efc86808080868a5af1610ca2611547565b855260078252846040812055604051908152a280f35b50346101725760e036600319011261017257604435906001600160a01b038216820361017257610f406110d1565b906001600160401b039060a435828111610f9f57610f62903690600401611113565b92909160c435918211610172576020610f9787878787610f853660048a01611113565b949093608435916024356004356112ac565b604051908152f35b5080fd5b5061012036600319011261017257600435610fbc6110b9565b906044356001600160401b039283821682036108e95760a4359160643591906084356001600160a01b03851685036110605760c4358781116108e157611006903690600401611113565b94909360e43589811161105c57611021903690600401611113565b989097610104359a8b11611058578561105391898987610c439f611049903690600401611113565b9590948b896112ac565b6115fc565b8b80fd5b8a80fd5b8780fd5b905034610f9f576020366003190112610f9f5760043563ffffffff60e01b81168091036107f45760209250637965db0b60e01b81149081156110a8575b5015158152f35b6301ffc9a760e01b149050386110a1565b6024359063ffffffff821682036110cc57565b600080fd5b606435906001600160401b03821682036110cc57565b602435906001600160a01b03821682036110cc57565b600435906001600160a01b03821682036110cc57565b9181601f840112156110cc578235916001600160401b0383116110cc57602083818601950101116110cc57565b919082519283825260005b84811061116c575050826000602080949584010152601f8019910116010190565b60208183018101518483018201520161114b565b60c081019081106001600160401b0382111761119b57604052565b634e487b7160e01b600052604160045260246000fd5b6001600160401b03811161119b57604052565b604081019081106001600160401b0382111761119b57604052565b90601f801991011681019081106001600160401b0382111761119b57604052565b6001600160401b03811161119b57601f01601f191660200190565b92919261122782611200565b9161123560405193846111df565b8294818452818301116110cc578281602093846000960137010152565b6040519061125f826111c4565b601e82527f5275627973636f72655f53696e676c655f4964656e7469666965725f496400006020830152565b60405190611298826111c4565b6005825264302e302e3160d81b6020830152565b909495979391928115611535576001600160401b03809116914283106108cf578615611523576001600160a01b03948516988915610325578a156108bd5786156108ab5760409687519160209a8b84018581528b8b8601528a855260608501948086108887111761119b57858c525190209d8e948d6000968752600690528b86205461151457508d9161134091369161121b565b8c81519101208a51908d8201927fa661ba5adeddc46f883f4f86d014fe04b4c6a599d6f714d3f750c4c88fe1fc9e8452878d84015260608301528c60808301523360a083015260c082015260c0815260e081018181108882111761150057958f9d9b8f9993968f977f1e25e2f1371ab2b801f4d9d7359bd854406ce605572b1b994ba7b32c5da121f79f9d9a948f908f99859f996114799161146a60059f9261146260069861147e97611470968d525190208b6113fb611252565b8a815191012061140961128b565b8b81519101208251918c8301937f8b73c3c69bb8fe3d512ecc4cf759cc79239f7b179b0ffacaa9a75d522b39400f855283015260608201528c60808201528c60a082015260a0815261145a81611180565b5190206119ae565b92369161121b565b906119cb565b90929192611a07565b611807565b83519961148a8b611180565b808b52818b01958652848b0197885260608b0198895260808b01998a5260a08b019d8e528352522095518655516001860155600285019151166001600160401b0319825416179055516003830155516004820155019151166bffffffffffffffffffffffff60a01b82541617905551908152a390565b634e487b7160e01b86526041600452602486fd5b6399ed5a0360e01b8152600490fd5b604051636fd794c760e01b8152600490fd5b60405163335ece0360e01b8152600490fd5b3d15611572573d9061155882611200565b9161156660405193846111df565b82523d6000602084013e565b606090565b1561157e57565b60405162461bcd60e51b81526020600482015260146024820152732330b4b632b2103a379039b2b7321022ba3432b960611b6044820152606490fd5b919082018092116115c757565b634e487b7160e01b600052601160045260246000fd5b908160209103126110cc57516001600160a01b03811681036110cc5790565b93979590969198949294611612600354876115ba565b341061088757899361168093600096875260209860078a526040988989205561163f6003546004546115ba565b600455898c60018060a01b03988960055416908c51809a81948293634918d76b60e01b8452600484016020909392919363ffffffff60408201951681520152565b03915afa9586156117fd5788966117de575b508851946001600160401b039260a087018481118882101761083757958795858f9b8f978f976116eb60019f98849f9e986116fa946117459f9c8e6117329d6106fe9f83528d528c019b338d520198168852369161121b565b9560608c01968752369161121b565b98896080820152519451169151169151928d519b8c978801528d8701526060860152608085015260c060a085015260e0840190611140565b601f1993848483030160c0850152611140565b1690813b156107f45761177d83928392865195868094819363e289adcd60e01b83528d60048401528a60248401526044830190611140565b03925af19081156117d35750907f99846cbfae302af9a36c958b82461e643139f9aff8e6d0e5ee931d70655537379392916117c4575b505193845263ffffffff33951693a4565b6117cd906111b1565b386117b3565b8351903d90823e3d90fd5b6117f69196508a3d8c116108755761086681836111df565b9438611692565b89513d8a823e3d90fd5b6001600160a01b031660008181527fee57cd81e84075558e8fcc182a1f4393f91fc97f963a136e66b7f949a62f319f60205260409020547f97667070c54ef182b0f5858b034beac1b6f3089aa2d3188bb1e8929f4fa9b9299060ff161561186c575050565b604492506040519163e2517d3f60e01b835260048301526024820152fd5b80600052600060205260406000209160018060a01b0316918260005260205260ff604060002054161561186c575050565b9060009180835282602052604083209160018060a01b03169182845260205260ff6040842054161560001461193457808352826020526040832082845260205260408320600160ff198254161790557f2f8788117e7eff1d82e926ec794901d17c78024a50270940304540a733656f0d339380a4600190565b505090565b9060009180835282602052604083209160018060a01b03169182845260205260ff6040842054166000146119345780835282602052604083208284526020526040832060ff1981541690557ff6391f5c32d9c69d2a47ea670b442974b53935d1edc7fd64eb21e047a839171b339380a4600190565b6042916040519161190160f01b8352600283015260228201522090565b81519190604183036119fc576119f592506020820151906060604084015193015160001a90611dab565b9192909190565b505060009160029190565b6004811015611a765780611a19575050565b60018103611a335760405163f645eedf60e01b8152600490fd5b60028103611a545760405163fce698f760e01b815260048101839052602490fd5b600314611a5e5750565b602490604051906335e2f38360e21b82526004820152fd5b634e487b7160e01b600052602160045260246000fd5b307f00000000000000000000000000000000000000000000000000000000000000006001600160a01b03161480611b7d575b15611ae7577f000000000000000000000000000000000000000000000000000000000000000090565b60405160208101907f8b73c3c69bb8fe3d512ecc4cf759cc79239f7b179b0ffacaa9a75d522b39400f82527f000000000000000000000000000000000000000000000000000000000000000060408201527f000000000000000000000000000000000000000000000000000000000000000060608201524660808201523060a082015260a08152611b7781611180565b51902090565b507f00000000000000000000000000000000000000000000000000000000000000004614611abe565b60ff8114611be45760ff811690601f8211611bd25760405191611bc8836111c4565b8252602082015290565b604051632cd44ac360e21b8152600490fd5b506040516000600190600154918260011c9060018416938415611cc9575b6020948584108114611cb55783875286949392918115611c955750600114611c36575b5050611c33925003826111df565b90565b9093915060016000527fb10e2d527612073b26eecdfd717e6a320cf44b4afac2b0732d9fcbe2b7fa0cf6936000915b818310611c7d575050611c3393508201013880611c25565b85548784018501529485019486945091830191611c65565b915050611c3394925060ff191682840152151560051b8201013880611c25565b634e487b7160e01b85526022600452602485fd5b91607f1691611c02565b60ff8114611cf55760ff811690601f8211611bd25760405191611bc8836111c4565b5060405160006002549060018260011c9060018416938415611da1575b6020948584108114611cb55783875286949392918115611c955750600114611d42575050611c33925003826111df565b9093915060026000527f405787fa12a823e0f2b7631cc41b3ba8828b3321ca811111fa75cd3aa3bb5ace936000915b818310611d89575050611c3393508201013880611c25565b85548784018501529485019486945091830191611d71565b91607f1691611d12565b91907f7fffffffffffffffffffffffffffffff5d576e7357a4501ddfe92f46681b20a08411611e2f57926020929160ff608095604051948552168484015260408301526060820152600092839182805260015afa15611e235780516001600160a01b03811615611e1a57918190565b50809160019190565b604051903d90823e3d90fd5b5050506000916003919056fea26469706673582212203eff82166188f007f2b81324d5b29b2a4bb7824f79517995644c92a1a2943bcb64736f6c634300081800332f8788117e7eff1d82e926ec794901d17c78024a50270940304540a733656f0d",
  "devdoc": {
    "errors": {
      "AccessControlBadConfirmation()": [
        {
          "details": "The caller of a function is not the expected one. NOTE: Don't confuse with {AccessControlUnauthorizedAccount}."
        }
      ],
      "AccessControlUnauthorizedAccount(address,bytes32)": [
        {
          "details": "The `account` is missing a role."
        }
      ],
      "ECDSAInvalidSignature()": [
        {
          "details": "The signature derives the `address(0)`."
        }
      ],
      "ECDSAInvalidSignatureLength(uint256)": [
        {
          "details": "The signature has an invalid length."
        }
      ],
      "ECDSAInvalidSignatureS(bytes32)": [
        {
          "details": "The signature has an S value that is in the upper half order."
        }
      ]
    },
    "events": {
      "EIP712DomainChanged()": {
        "details": "MAY be emitted to signal that the domain could have changed."
      },
      "RoleAdminChanged(bytes32,bytes32,bytes32)": {
        "details": "Emitted when `newAdminRole` is set as ``role``'s admin role, replacing `previousAdminRole` `DEFAULT_ADMIN_ROLE` is the starting admin for all roles, despite {RoleAdminChanged} not being emitted signaling this."
      },
      "RoleGranted(bytes32,address,address)": {
        "details": "Emitted when `account` is granted `role`. `sender` is the account that originated the contract call, an admin role bearer except when using {AccessControl-_setupRole}."
      },
      "RoleRevoked(bytes32,address,address)": {
        "details": "Emitted when `account` is revoked `role`. `sender` is the account that originated the contract call:   - if using `revokeRole`, it is the admin role bearer   - if using `renounceRole`, it is the role bearer (i.e. `account`)"
      }
    },
    "kind": "dev",
    "methods": {
      "eip712Domain()": {
        "details": "See {IERC-5267}."
      },
      "getRoleAdmin(bytes32)": {
        "details": "Returns the admin role that controls `role`. See {grantRole} and {revokeRole}. To change a role's admin, use {_setRoleAdmin}."
      },
      "grantRole(bytes32,address)": {
        "details": "Grants `role` to `account`. If `account` had not been already granted `role`, emits a {RoleGranted} event. Requirements: - the caller must have ``role``'s admin role. May emit a {RoleGranted} event."
      },
      "hasRole(bytes32,address)": {
        "details": "Returns `true` if `account` has been granted `role`."
      },
      "renounceRole(bytes32,address)": {
        "details": "Revokes `role` from the calling account. Roles are often managed via {grantRole} and {revokeRole}: this function's purpose is to provide a mechanism for accounts to lose their privileges if they are compromised (such as when a trusted device is misplaced). If the calling account had been revoked `role`, emits a {RoleRevoked} event. Requirements: - the caller must be `callerConfirmation`. May emit a {RoleRevoked} event."
      },
      "revokeRole(bytes32,address)": {
        "details": "Revokes `role` from `account`. If `account` had been granted `role`, emits a {RoleRevoked} event. Requirements: - the caller must have ``role``'s admin role. May emit a {RoleRevoked} event."
      },
      "supportsInterface(bytes4)": {
        "details": "See {IERC165-supportsInterface}."
      }
    },
    "version": 1
  },
  "userdoc": {
    "kind": "user",
    "methods": {},
    "version": 1
  },
  "storageLayout": {
    "storage": [
      {
        "astId": 4918,
        "contract": "contracts/SingleIdentifierID.sol:SingleIdentifierID",
        "label": "_roles",
        "offset": 0,
        "slot": "0",
        "type": "t_mapping(t_bytes32,t_struct(RoleData)4913_storage)"
      },
      {
        "astId": 7097,
        "contract": "contracts/SingleIdentifierID.sol:SingleIdentifierID",
        "label": "_nameFallback",
        "offset": 0,
        "slot": "1",
        "type": "t_string_storage"
      },
      {
        "astId": 7099,
        "contract": "contracts/SingleIdentifierID.sol:SingleIdentifierID",
        "label": "_versionFallback",
        "offset": 0,
        "slot": "2",
        "type": "t_string_storage"
      },
      {
        "astId": 10354,
        "contract": "contracts/SingleIdentifierID.sol:SingleIdentifierID",
        "label": "protocolFee",
        "offset": 0,
        "slot": "3",
        "type": "t_uint256"
      },
      {
        "astId": 10356,
        "contract": "contracts/SingleIdentifierID.sol:SingleIdentifierID",
        "label": "protocolBalance",
        "offset": 0,
        "slot": "4",
        "type": "t_uint256"
      },
      {
        "astId": 10359,
        "contract": "contracts/SingleIdentifierID.sol:SingleIdentifierID",
        "label": "router",
        "offset": 0,
        "slot": "5",
        "type": "t_contract(SingleRouter)12434"
      },
      {
        "astId": 10364,
        "contract": "contracts/SingleIdentifierID.sol:SingleIdentifierID",
        "label": "emitters",
        "offset": 0,
        "slot": "6",
        "type": "t_mapping(t_bytes32,t_struct(Emitter)13961_storage)"
      },
      {
        "astId": 10368,
        "contract": "contracts/SingleIdentifierID.sol:SingleIdentifierID",
        "label": "emittersBalances",
        "offset": 0,
        "slot": "7",
        "type": "t_mapping(t_bytes32,t_uint256)"
      }
    ],
    "types": {
      "t_address": {
        "encoding": "inplace",
        "label": "address",
        "numberOfBytes": "20"
      },
      "t_bool": {
        "encoding": "inplace",
        "label": "bool",
        "numberOfBytes": "1"
      },
      "t_bytes32": {
        "encoding": "inplace",
        "label": "bytes32",
        "numberOfBytes": "32"
      },
      "t_contract(SingleRouter)12434": {
        "encoding": "inplace",
        "label": "contract SingleRouter",
        "numberOfBytes": "20"
      },
      "t_mapping(t_address,t_bool)": {
        "encoding": "mapping",
        "key": "t_address",
        "label": "mapping(address => bool)",
        "numberOfBytes": "32",
        "value": "t_bool"
      },
      "t_mapping(t_bytes32,t_struct(Emitter)13961_storage)": {
        "encoding": "mapping",
        "key": "t_bytes32",
        "label": "mapping(bytes32 => struct Emitter)",
        "numberOfBytes": "32",
        "value": "t_struct(Emitter)13961_storage"
      },
      "t_mapping(t_bytes32,t_struct(RoleData)4913_storage)": {
        "encoding": "mapping",
        "key": "t_bytes32",
        "label": "mapping(bytes32 => struct AccessControl.RoleData)",
        "numberOfBytes": "32",
        "value": "t_struct(RoleData)4913_storage"
      },
      "t_mapping(t_bytes32,t_uint256)": {
        "encoding": "mapping",
        "key": "t_bytes32",
        "label": "mapping(bytes32 => uint256)",
        "numberOfBytes": "32",
        "value": "t_uint256"
      },
      "t_string_storage": {
        "encoding": "bytes",
        "label": "string",
        "numberOfBytes": "32"
      },
      "t_struct(Emitter)13961_storage": {
        "encoding": "inplace",
        "label": "struct Emitter",
        "members": [
          {
            "astId": 13950,
            "contract": "contracts/SingleIdentifierID.sol:SingleIdentifierID",
            "label": "emitterId",
            "offset": 0,
            "slot": "0",
            "type": "t_bytes32"
          },
          {
            "astId": 13952,
            "contract": "contracts/SingleIdentifierID.sol:SingleIdentifierID",
            "label": "schemaId",
            "offset": 0,
            "slot": "1",
            "type": "t_bytes32"
          },
          {
            "astId": 13954,
            "contract": "contracts/SingleIdentifierID.sol:SingleIdentifierID",
            "label": "expirationDate",
            "offset": 0,
            "slot": "2",
            "type": "t_uint64"
          },
          {
            "astId": 13956,
            "contract": "contracts/SingleIdentifierID.sol:SingleIdentifierID",
            "label": "fee",
            "offset": 0,
            "slot": "3",
            "type": "t_uint256"
          },
          {
            "astId": 13958,
            "contract": "contracts/SingleIdentifierID.sol:SingleIdentifierID",
            "label": "registryChainId",
            "offset": 0,
            "slot": "4",
            "type": "t_uint256"
          },
          {
            "astId": 13960,
            "contract": "contracts/SingleIdentifierID.sol:SingleIdentifierID",
            "label": "owner",
            "offset": 0,
            "slot": "5",
            "type": "t_address"
          }
        ],
        "numberOfBytes": "192"
      },
      "t_struct(RoleData)4913_storage": {
        "encoding": "inplace",
        "label": "struct AccessControl.RoleData",
        "members": [
          {
            "astId": 4910,
            "contract": "contracts/SingleIdentifierID.sol:SingleIdentifierID",
            "label": "hasRole",
            "offset": 0,
            "slot": "0",
            "type": "t_mapping(t_address,t_bool)"
          },
          {
            "astId": 4912,
            "contract": "contracts/SingleIdentifierID.sol:SingleIdentifierID",
            "label": "adminRole",
            "offset": 0,
            "slot": "1",
            "type": "t_bytes32"
          }
        ],
        "numberOfBytes": "64"
      },
      "t_uint256": {
        "encoding": "inplace",
        "label": "uint256",
        "numberOfBytes": "32"
      },
      "t_uint64": {
        "encoding": "inplace",
        "label": "uint64",
        "numberOfBytes": "8"
      }
    }
  }
}