{
  "address": "0xB9cC0Bb020cF55197C4C3d826AC87CAdba51f272",
  "abi": [
    {
      "inputs": [
        {
          "internalType": "address",
          "name": "_operator",
          "type": "address"
        }
      ],
      "stateMutability": "nonpayable",
      "type": "constructor"
    },
    {
      "inputs": [],
      "name": "AccessControlBadConfirmation",
      "type": "error"
    },
    {
      "inputs": [
        {
          "internalType": "address",
          "name": "account",
          "type": "address"
        },
        {
          "internalType": "bytes32",
          "name": "neededRole",
          "type": "bytes32"
        }
      ],
      "name": "AccessControlUnauthorizedAccount",
      "type": "error"
    },
    {
      "inputs": [],
      "name": "AddressIsZero",
      "type": "error"
    },
    {
      "inputs": [],
      "name": "ECDSAInvalidSignature",
      "type": "error"
    },
    {
      "inputs": [
        {
          "internalType": "uint256",
          "name": "length",
          "type": "uint256"
        }
      ],
      "name": "ECDSAInvalidSignatureLength",
      "type": "error"
    },
    {
      "inputs": [
        {
          "internalType": "bytes32",
          "name": "s",
          "type": "bytes32"
        }
      ],
      "name": "ECDSAInvalidSignatureS",
      "type": "error"
    },
    {
      "inputs": [],
      "name": "EmitterInvalid",
      "type": "error"
    },
    {
      "inputs": [],
      "name": "InvalidShortString",
      "type": "error"
    },
    {
      "inputs": [
        {
          "internalType": "bytes",
          "name": "data",
          "type": "bytes"
        }
      ],
      "name": "MethodNotFound",
      "type": "error"
    },
    {
      "inputs": [],
      "name": "OnlyEmitter",
      "type": "error"
    },
    {
      "inputs": [],
      "name": "SIDAlreadyExists",
      "type": "error"
    },
    {
      "inputs": [],
      "name": "SIDNotExists",
      "type": "error"
    },
    {
      "inputs": [],
      "name": "SchemaAlreadyExists",
      "type": "error"
    },
    {
      "inputs": [],
      "name": "SchemaNameMissing",
      "type": "error"
    },
    {
      "inputs": [],
      "name": "SchemaNotExist",
      "type": "error"
    },
    {
      "inputs": [],
      "name": "SchemaStringMissing",
      "type": "error"
    },
    {
      "inputs": [
        {
          "internalType": "address",
          "name": "sender",
          "type": "address"
        }
      ],
      "name": "SenderIsNotPeer",
      "type": "error"
    },
    {
      "inputs": [],
      "name": "SignatureInvalid",
      "type": "error"
    },
    {
      "inputs": [
        {
          "internalType": "string",
          "name": "str",
          "type": "string"
        }
      ],
      "name": "StringTooLong",
      "type": "error"
    },
    {
      "inputs": [],
      "name": "UnknownSelector",
      "type": "error"
    },
    {
      "anonymous": false,
      "inputs": [],
      "name": "EIP712DomainChanged",
      "type": "event"
    },
    {
      "anonymous": false,
      "inputs": [
        {
          "indexed": true,
          "internalType": "bytes32",
          "name": "schemaId",
          "type": "bytes32"
        },
        {
          "indexed": true,
          "internalType": "address",
          "name": "emitter",
          "type": "address"
        }
      ],
      "name": "EmitterRevoked",
      "type": "event"
    },
    {
      "anonymous": false,
      "inputs": [
        {
          "indexed": true,
          "internalType": "bytes32",
          "name": "schemaId",
          "type": "bytes32"
        },
        {
          "indexed": true,
          "internalType": "address",
          "name": "newEmitterAddress",
          "type": "address"
        }
      ],
      "name": "EmitterUpdated",
      "type": "event"
    },
    {
      "anonymous": false,
      "inputs": [
        {
          "indexed": true,
          "internalType": "bytes32",
          "name": "role",
          "type": "bytes32"
        },
        {
          "indexed": true,
          "internalType": "bytes32",
          "name": "previousAdminRole",
          "type": "bytes32"
        },
        {
          "indexed": true,
          "internalType": "bytes32",
          "name": "newAdminRole",
          "type": "bytes32"
        }
      ],
      "name": "RoleAdminChanged",
      "type": "event"
    },
    {
      "anonymous": false,
      "inputs": [
        {
          "indexed": true,
          "internalType": "bytes32",
          "name": "role",
          "type": "bytes32"
        },
        {
          "indexed": true,
          "internalType": "address",
          "name": "account",
          "type": "address"
        },
        {
          "indexed": true,
          "internalType": "address",
          "name": "sender",
          "type": "address"
        }
      ],
      "name": "RoleGranted",
      "type": "event"
    },
    {
      "anonymous": false,
      "inputs": [
        {
          "indexed": true,
          "internalType": "bytes32",
          "name": "role",
          "type": "bytes32"
        },
        {
          "indexed": true,
          "internalType": "address",
          "name": "account",
          "type": "address"
        },
        {
          "indexed": true,
          "internalType": "address",
          "name": "sender",
          "type": "address"
        }
      ],
      "name": "RoleRevoked",
      "type": "event"
    },
    {
      "anonymous": false,
      "inputs": [
        {
          "indexed": true,
          "internalType": "bytes32",
          "name": "SIDId",
          "type": "bytes32"
        },
        {
          "indexed": true,
          "internalType": "address",
          "name": "user",
          "type": "address"
        }
      ],
      "name": "SIDRegistered",
      "type": "event"
    },
    {
      "anonymous": false,
      "inputs": [
        {
          "indexed": true,
          "internalType": "bytes32",
          "name": "SIDId",
          "type": "bytes32"
        },
        {
          "indexed": true,
          "internalType": "address",
          "name": "user",
          "type": "address"
        }
      ],
      "name": "SIDRevoked",
      "type": "event"
    },
    {
      "anonymous": false,
      "inputs": [
        {
          "indexed": true,
          "internalType": "bytes32",
          "name": "SIDId",
          "type": "bytes32"
        }
      ],
      "name": "SIDUpdated",
      "type": "event"
    },
    {
      "anonymous": false,
      "inputs": [
        {
          "indexed": true,
          "internalType": "bytes32",
          "name": "schemaId",
          "type": "bytes32"
        },
        {
          "indexed": true,
          "internalType": "address",
          "name": "emitter",
          "type": "address"
        }
      ],
      "name": "SchemaRegistered",
      "type": "event"
    },
    {
      "anonymous": false,
      "inputs": [
        {
          "indexed": true,
          "internalType": "address",
          "name": "router",
          "type": "address"
        }
      ],
      "name": "SetRouter",
      "type": "event"
    },
    {
      "inputs": [],
      "name": "DEFAULT_ADMIN_ROLE",
      "outputs": [
        {
          "internalType": "bytes32",
          "name": "",
          "type": "bytes32"
        }
      ],
      "stateMutability": "view",
      "type": "function"
    },
    {
      "inputs": [],
      "name": "NAME",
      "outputs": [
        {
          "internalType": "string",
          "name": "",
          "type": "string"
        }
      ],
      "stateMutability": "view",
      "type": "function"
    },
    {
      "inputs": [],
      "name": "OPERATOR_ROLE",
      "outputs": [
        {
          "internalType": "bytes32",
          "name": "",
          "type": "bytes32"
        }
      ],
      "stateMutability": "view",
      "type": "function"
    },
    {
      "inputs": [],
      "name": "VERSION",
      "outputs": [
        {
          "internalType": "string",
          "name": "",
          "type": "string"
        }
      ],
      "stateMutability": "view",
      "type": "function"
    },
    {
      "inputs": [],
      "name": "eip712Domain",
      "outputs": [
        {
          "internalType": "bytes1",
          "name": "fields",
          "type": "bytes1"
        },
        {
          "internalType": "string",
          "name": "name",
          "type": "string"
        },
        {
          "internalType": "string",
          "name": "version",
          "type": "string"
        },
        {
          "internalType": "uint256",
          "name": "chainId",
          "type": "uint256"
        },
        {
          "internalType": "address",
          "name": "verifyingContract",
          "type": "address"
        },
        {
          "internalType": "bytes32",
          "name": "salt",
          "type": "bytes32"
        },
        {
          "internalType": "uint256[]",
          "name": "extensions",
          "type": "uint256[]"
        }
      ],
      "stateMutability": "view",
      "type": "function"
    },
    {
      "inputs": [
        {
          "internalType": "bytes32",
          "name": "role",
          "type": "bytes32"
        }
      ],
      "name": "getRoleAdmin",
      "outputs": [
        {
          "internalType": "bytes32",
          "name": "",
          "type": "bytes32"
        }
      ],
      "stateMutability": "view",
      "type": "function"
    },
    {
      "inputs": [
        {
          "internalType": "bytes32",
          "name": "role",
          "type": "bytes32"
        },
        {
          "internalType": "address",
          "name": "account",
          "type": "address"
        }
      ],
      "name": "grantRole",
      "outputs": [],
      "stateMutability": "nonpayable",
      "type": "function"
    },
    {
      "inputs": [
        {
          "internalType": "bytes32",
          "name": "role",
          "type": "bytes32"
        },
        {
          "internalType": "address",
          "name": "account",
          "type": "address"
        }
      ],
      "name": "hasRole",
      "outputs": [
        {
          "internalType": "bool",
          "name": "",
          "type": "bool"
        }
      ],
      "stateMutability": "view",
      "type": "function"
    },
    {
      "inputs": [
        {
          "components": [
            {
              "internalType": "bytes32",
              "name": "schemaId",
              "type": "bytes32"
            },
            {
              "internalType": "address",
              "name": "user",
              "type": "address"
            },
            {
              "internalType": "uint64",
              "name": "expirationDate",
              "type": "uint64"
            },
            {
              "internalType": "bytes",
              "name": "data",
              "type": "bytes"
            },
            {
              "internalType": "string",
              "name": "metadata",
              "type": "string"
            }
          ],
          "internalType": "struct MessageLib.SendMessage",
          "name": "_payload",
          "type": "tuple"
        }
      ],
      "name": "registrySID",
      "outputs": [],
      "stateMutability": "nonpayable",
      "type": "function"
    },
    {
      "inputs": [
        {
          "internalType": "bytes32",
          "name": "role",
          "type": "bytes32"
        },
        {
          "internalType": "address",
          "name": "callerConfirmation",
          "type": "address"
        }
      ],
      "name": "renounceRole",
      "outputs": [],
      "stateMutability": "nonpayable",
      "type": "function"
    },
    {
      "inputs": [
        {
          "internalType": "bytes32",
          "name": "_sidId",
          "type": "bytes32"
        }
      ],
      "name": "revoke",
      "outputs": [],
      "stateMutability": "nonpayable",
      "type": "function"
    },
    {
      "inputs": [
        {
          "internalType": "bytes32",
          "name": "role",
          "type": "bytes32"
        },
        {
          "internalType": "address",
          "name": "account",
          "type": "address"
        }
      ],
      "name": "revokeRole",
      "outputs": [],
      "stateMutability": "nonpayable",
      "type": "function"
    },
    {
      "inputs": [],
      "name": "router",
      "outputs": [
        {
          "internalType": "contract SingleRouter",
          "name": "",
          "type": "address"
        }
      ],
      "stateMutability": "view",
      "type": "function"
    },
    {
      "inputs": [
        {
          "components": [
            {
              "internalType": "bytes32",
              "name": "schemaId",
              "type": "bytes32"
            },
            {
              "internalType": "string",
              "name": "name",
              "type": "string"
            },
            {
              "internalType": "string",
              "name": "description",
              "type": "string"
            },
            {
              "internalType": "string",
              "name": "schema",
              "type": "string"
            },
            {
              "internalType": "address",
              "name": "emitter",
              "type": "address"
            }
          ],
          "internalType": "struct SIDSchema",
          "name": "_schema",
          "type": "tuple"
        },
        {
          "internalType": "bytes",
          "name": "_signature",
          "type": "bytes"
        }
      ],
      "name": "schemaRegistry",
      "outputs": [],
      "stateMutability": "nonpayable",
      "type": "function"
    },
    {
      "inputs": [
        {
          "internalType": "bytes32",
          "name": "schemaId",
          "type": "bytes32"
        }
      ],
      "name": "schemas",
      "outputs": [
        {
          "internalType": "bytes32",
          "name": "schemaId",
          "type": "bytes32"
        },
        {
          "internalType": "string",
          "name": "name",
          "type": "string"
        },
        {
          "internalType": "string",
          "name": "description",
          "type": "string"
        },
        {
          "internalType": "string",
          "name": "schema",
          "type": "string"
        },
        {
          "internalType": "address",
          "name": "emitter",
          "type": "address"
        }
      ],
      "stateMutability": "view",
      "type": "function"
    },
    {
      "inputs": [
        {
          "internalType": "address",
          "name": "_router",
          "type": "address"
        }
      ],
      "name": "setRouter",
      "outputs": [],
      "stateMutability": "nonpayable",
      "type": "function"
    },
    {
      "inputs": [
        {
          "internalType": "bytes32",
          "name": "id",
          "type": "bytes32"
        }
      ],
      "name": "singleIdentifierData",
      "outputs": [
        {
          "internalType": "bytes32",
          "name": "SIDId",
          "type": "bytes32"
        },
        {
          "internalType": "bytes32",
          "name": "schemaId",
          "type": "bytes32"
        },
        {
          "internalType": "uint64",
          "name": "expirationDate",
          "type": "uint64"
        },
        {
          "internalType": "uint64",
          "name": "revocationDate",
          "type": "uint64"
        },
        {
          "internalType": "bool",
          "name": "revoked",
          "type": "bool"
        },
        {
          "internalType": "address",
          "name": "user",
          "type": "address"
        },
        {
          "internalType": "bytes",
          "name": "data",
          "type": "bytes"
        },
        {
          "internalType": "string",
          "name": "metadata",
          "type": "string"
        }
      ],
      "stateMutability": "view",
      "type": "function"
    },
    {
      "inputs": [
        {
          "internalType": "bytes4",
          "name": "interfaceId",
          "type": "bytes4"
        }
      ],
      "name": "supportsInterface",
      "outputs": [
        {
          "internalType": "bool",
          "name": "",
          "type": "bool"
        }
      ],
      "stateMutability": "view",
      "type": "function"
    },
    {
      "inputs": [
        {
          "components": [
            {
              "internalType": "bytes32",
              "name": "id",
              "type": "bytes32"
            },
            {
              "internalType": "uint64",
              "name": "expirationDate",
              "type": "uint64"
            },
            {
              "internalType": "bytes",
              "name": "data",
              "type": "bytes"
            },
            {
              "internalType": "string",
              "name": "metadata",
              "type": "string"
            }
          ],
          "internalType": "struct MessageLib.UpdateMessage",
          "name": "_payload",
          "type": "tuple"
        }
      ],
      "name": "updateSID",
      "outputs": [],
      "stateMutability": "nonpayable",
      "type": "function"
    },
    {
      "inputs": [
        {
          "internalType": "bytes32",
          "name": "_schemaId",
          "type": "bytes32"
        },
        {
          "internalType": "address",
          "name": "_emitter",
          "type": "address"
        }
      ],
      "name": "updateSchemaEmitter",
      "outputs": [],
      "stateMutability": "nonpayable",
      "type": "function"
    }
  ],
  "transactionHash": "0xe1257332e310afbbcf7173465d87d6fc493608ecef394a3cfc86225e467f45ad",
  "args": [
    "0x381c031bAA5995D0Cc52386508050Ac947780815"
  ],
  "numDeployments": 2,
  "solcInputHash": "0cbf7cfbe136b839052e6e1e71a1c86a",
  "bytecode": "0x61016034620001fa57601f620026a838819003918201601f19168301926001600160401b0392909183851183861017620001e4578160209284926040978852833981010312620001fa57516001600160a01b03811692838203620001fa578051916060830183811085821117620001e45782526024835260208301937f5275627973636f72655f53696e676c655f4964656e7469666965725f526567698552637374727960e01b8385015282519583870187811083821117620001e4578452600587526020870164302e302e3160d81b8152620000dc86620002b3565b96610120978852620000ee8962000486565b96610140978852519020978860e05251902096610100978089524660a05285519060208201927f8b73c3c69bb8fe3d512ecc4cf759cc79239f7b179b0ffacaa9a75d522b39400f84528783015260608201524660808201523060a082015260a0815260c081019381851090851117620001e4578386525190206080523060c05215620001d557506200018c906200018533620001ff565b50620001ff565b505191612074938462000634853960805184611e0c015260a05184611ec7015260c05184611dd6015260e05184611e5b01525183611e8101525182611548015251816115710152f35b63867915ab60e01b8152600490fd5b634e487b7160e01b600052604160045260246000fd5b600080fd5b6001600160a01b031660008181527f6bc781d8c7f9885ebbb3cefbc18932c491038e2ae5c5b56447891e0bd98ea16360205260408120549091907f97667070c54ef182b0f5858b034beac1b6f3089aa2d3188bb1e8929f4fa9b9299060ff16620002ae5780835260026020526040832082845260205260408320600160ff198254161790557f2f8788117e7eff1d82e926ec794901d17c78024a50270940304540a733656f0d339380a4600190565b505090565b8051602091908281101562000352575090601f825111620002f15780825192015190808310620002e257501790565b82600019910360031b1b161790565b90604051809263305a27a960e01b82528060048301528251908160248401526000935b82851062000338575050604492506000838284010152601f80199101168101030190fd5b848101820151868601604401529381019385935062000314565b6001600160401b038111620001e4576000928354926001938481811c911680156200047b575b838210146200046757601f811162000431575b5081601f8411600114620003ca57509282939183928694620003be575b50501b916000199060031b1c191617905560ff90565b015192503880620003a8565b919083601f1981168780528488209488905b88838310620004165750505010620003fc575b505050811b01905560ff90565b015160001960f88460031b161c19169055388080620003ef565b858701518855909601959485019487935090810190620003dc565b85805284601f848820920160051c820191601f860160051c015b8281106200045b5750506200038b565b8781550185906200044b565b634e487b7160e01b86526022600452602486fd5b90607f169062000378565b805160209081811015620005145750601f825111620004b35780825192015190808310620002e257501790565b90604051809263305a27a960e01b82528060048301528251908160248401526000935b828510620004fa575050604492506000838284010152601f80199101168101030190fd5b8481018201518686016044015293810193859350620004d6565b9192916001600160401b038111620001e45760019182548381811c9116801562000628575b828210146200061257601f8111620005d9575b5080601f83116001146200058c57508192939460009262000580575b5050600019600383901b1c191690821b17905560ff90565b01519050388062000568565b90601f198316958460005282600020926000905b888210620005c15750508385969710620003fc57505050811b01905560ff90565b808785968294968601518155019501930190620005a0565b8360005283601f83600020920160051c820191601f850160051c015b828110620006055750506200054c565b60008155018490620005f5565b634e487b7160e01b600052602260045260246000fd5b90607f16906200053956fe608080604052600436101561001357600080fd5b60003560e01c90816301ffc9a7146116f357508063248a9ca3146116c45780632f2ff15d1461168357806336568abe1461163c57806384b0196e1461153257806391d14854146114e5578063a217fddf146114c9578063a330273014611424578063a3cbcb24146110b3578063a3f4df7e14611048578063b75c7dc614610f0a578063c0d7865514610e8a578063ca2adef614610dcb578063d547741f14610d88578063eb36bbba1461082c578063f2e4cdea1461027d578063f5b541a614610242578063f887ea4014610219578063f8cf04891461014a5763ffa1ad74146100fb57600080fd5b346101455760003660031901126101455761014160405161011b816117ed565b6005815264302e302e3160d81b602082015260405191829160208352602083019061175c565b0390f35b600080fd5b346101455760203660031901126101455760043560005260056020526040600020805490610141600561020b6001840154936002810154956001600160401b039660ff60018060a01b03600385015416916101ca604051956101ba876101b381600485016118db565b0388611808565b6101b3604051809a8193016118db565b604051998a99610100958b5260208b015280821660408b01528160401c1660608a015260801c161515608088015260a08701528060c087015285019061175c565b9083820360e085015261175c565b34610145576000366003190112610145576003546040516001600160a01b039091168152602090f35b346101455760003660031901126101455760206040517f97667070c54ef182b0f5858b034beac1b6f3089aa2d3188bb1e8929f4fa9b9298152f35b346101455760031960203682011261014557600435906001600160401b0382116101455760a090823603011261014557604051906102ba8261179c565b600481013582526001600160a01b0390602481013590828216820361014557602084019182526102ec60448201611829565b6040850190815260648201356001600160401b038111610145576103169060043691850101611883565b91606086019283526084810135906001600160401b0382116101455760046103419236920101611883565b906080860191825260405163167ac65160e31b8152602081600481335afa9081156107f3576103b1916020916000916107ff575b50600354604051636a80cdc560e11b815246600482015263ffffffff909216602483015233604483015290928391891690829081906064820190565b03915afa9081156107f3576000916107c4575b50156107ac57855160005260046020526040600020916040516103e68161179c565b8354815286600460019560405161040a81610403818b86016118db565b0382611808565b60208501526040516104238161040381600286016118db565b604085015260405161043c8161040381600386016118db565b60608501520154166080820152511561079a578651855160405190602082019283526001600160601b03199060601b1660408201526034815261047e816117b7565b51902096876000526005602052604060002054610788576001600160401b039051925116938686511690519151946040519561010087018781106001600160401b038211176106f857604052898752602087019485526040870191825261055d6001600160401b03606089016000815260808a01936000855260a08b0196875260c08b0197885260e08b01528c60005260056020526040600020978a5189555189890155816002890195511682198654161785555116839067ffffffffffffffff60401b82549160401b169067ffffffffffffffff60401b1916179055565b51815460ff60801b191690151560801b60ff60801b16179055516003830180546001600160a01b03191691881691909117905551805160048301916001600160401b0382116106f8576105ba826105b485546118a1565b856119a5565b602090601f8311600114610719578260e09593600595936105f29360009261070e575b50508160011b916000199060031b1c19161790565b90555b019201518051906001600160401b0382116106f85761061e8261061886546118a1565b866119a5565b602092601f8311600114610694575061064e92600091836106895750508160011b916000199060031b1c19161790565b90555b61065c600654611a41565b6006555116907fcdb4f4c227298777a68324767904e59ae71f9be763842b8b3beb0d0c6d4bfcd4600080a3005b0151905087806105dd565b92601f19831691856000528360206000209360005b878282106106df575050106106c6575b505050811b019055610651565b015160001960f88460031b161c191690558680806106b9565b84860151875590950194602094850194879350016106a9565b634e487b7160e01b600052604160045260246000fd5b015190508c806105dd565b859291601f198316918560005260206000209260005b81811061077057509160e09795939185600598969410610757575b505050811b0190556105f5565b015160001960f88460031b161c191690558b808061074a565b8284015185558996909401936020938401930161072f565b6040516306e3131760e11b8152600490fd5b604051637cbdaa0560e11b8152600490fd5b604051631a64ce3f60e21b8152336004820152602490fd5b6107e6915060203d6020116107ec575b6107de8183611808565b81019061198d565b876103c4565b503d6107d4565b6040513d6000823e3d90fd5b61081f9150823d8411610825575b6108178183611808565b810190611971565b89610375565b503d61080d565b3461014557600319604036820112610145576001600160401b03906004358281116101455760a081600401928236030112610145576024358381116101455736602382011215610145578060040135928484116101455736602485840101116101455761089c60248401826119fb565b905015610d765760648301926108b284836119fb565b905015610d64578415610d52576108c984836119fb565b906040516108fb60348260209580878301963360601b8852848401378101600083820152036014810184520182611808565b519020968760005260048252604060002054610d405761091e60248401856119fb565b8360405182819383830195863781018281016000905203808352016109439082611808565b51902095604484019561095687876119fb565b85604051828193838301958637810182810160009052038083520161097b9082611808565b5190209861098983886119fb565b8660405182819383830195863781018281016000905203808352016109ae9082611808565b51902098608487019a6109c08c611a2d565b9a60405191888301937f7c9ef3db6c57694a9a92d6d98cd1c6104b9c8f1941c466575097b2e77ecdbaa18552604084015260608301526080820152600160a01b60019003809b1660a082015260a08152610a19816117d2565b519020610a24611dd3565b906040519161190160f01b8352600283015260228201526042902091369060240191610a4f9261183d565b610a5891611eed565b610a6191611f29565b610a6a90611b5d565b88600052600483526040600020958535875560019485880190602401610a9090886119fb565b908582116106f857610aa6826105b485546118a1565b600090601f8311600114610cdc57610ad6929160009183610c665750508160011b916000199060031b1c19161790565b90555b610ae76002880191876119fb565b908482116106f857610afd826105b485546118a1565b600090601f8311600114610c71579180610b3392610b40969594600092610c665750508160011b916000199060031b1c19161790565b90555b60038701956119fb565b93909184116106f857610b5d84610b5787546118a1565b876119a5565b600092601f8511600114610bf557505082610ba1959360049593610b9793600092610bea5750508160011b916000199060031b1c19161790565b90555b0192611a2d565b166001600160601b0360a01b825416179055610bbe600754611a41565b60075533907fd16733fb8c2a502f4e1d1d63970cbab355e37ff6d6d12a215b7d0197ea5535f4600080a3005b013590508a806105dd565b91909392601f1984168660005283600020936000905b828210610c4f57505091610ba19795939185600498969410610c35575b505050811b019055610b9a565b0135600019600384901b60f8161c19169055898080610c28565b808885978294968801358155019601930190610c0b565b013590508e806105dd565b918791949392601f1982169084600052886000209160005b8a828210610cc65750509683610b409810610cac575b505050811b019055610b36565b0135600019600384901b60f8161c191690558d8080610c9f565b838a01358555988901988c969094019301610c89565b90889291601f1983169185600052896000209260005b8b828210610d2a5750508411610d10575b505050811b019055610ad9565b0135600019600384901b60f8161c191690558d8080610d03565b8385013586558d97909501949283019201610cf2565b604051631cfbd86560e21b8152600490fd5b6040516337e8456b60e01b8152600490fd5b604051635421bc3560e11b8152600490fd5b60405163e474746b60e01b8152600490fd5b3461014557604036600319011261014557610dc9600435610da7611746565b90806000526002602052610dc46001604060002001543390611be0565b611ae6565b005b346101455760203660031901126101455760043560005260046020526040600020805460405191610e0a83610e0381600185016118db565b0384611808565b610e8060405191610e2283610e0381600285016118db565b610e7260405191610e3a83610e0381600385016118db565b600460018060a01b039101541693610e64604051978897885260a0602089015260a088019061175c565b90868203604088015261175c565b90848203606086015261175c565b9060808301520390f35b34610145576020366003190112610145576004356001600160a01b0381169081900361014557610eb933611b5d565b8015610ef857600380546001600160a01b031916821790557f6de4326a8b9054d72d9dbab97d27bc4edffadee7d966f5af9cc4eafdaf8e5455600080a2005b60405163867915ab60e01b8152600490fd5b34610145576020366003190112610145576004358060005260056020526040600020805415611036578060016004920154600052816020526080604060002060405190610f568261179c565b80548252604051610f6e8161040381600186016118db565b6020830152604051610f878161040381600286016118db565b6040830152604051610fa08161040381600386016118db565b6060830152909301546001600160a01b0390811691909301819052330361102457600281018054600160801b70ffffffffffffffffff00000000000000001990911667ffffffffffffffff60401b4260401b16171790556003015416907f436e32dc587e71660aef91b28c6f85cd077ceac47867d9df9930a48e65ab7ed0600080a3005b604051630ee803d760e21b8152600490fd5b6040516347b48db360e11b8152600490fd5b3461014557600036600319011261014557610141604051611068816117b7565b602481527f5275627973636f72655f53696e676c655f4964656e7469666965725f526567696020820152637374727960e01b604082015260405191829160208352602083019061175c565b34610145576020600319818136011261014557600435906001600160401b0390818311610145576080908336030112610145576040519160808301838110838211176106f8576040528060040135835261110f60248201611829565b908484019182526044810135838111610145576111329060043691840101611883565b90604085019182526064810135908482116101455760046111569236920101611883565b906060850191825260405163167ac65160e31b81528681600481335afa9081156107f3576111cb918891600091611407575b50600354604051636a80cdc560e11b815246600482015263ffffffff9092166024830152336044830152909283916001600160a01b031690829081906064820190565b03915afa9081156107f3576000916113ea575b50156107ac5784516000526005865260406000209283541561103657518416806113d0575b505180518061130b575b5050519384519182611243575b84517fb16e238411c7a7cdf16f07b1bb3b95461fa3af1218deea488f95f582b5d51cea600080a2005b6005019282116106f85761125b826105b485546118a1565b80601f83116001146112a45750819061128c9394956000926112995750508160011b916000199060031b1c19161790565b90555b808280808061121a565b0151905085806105dd565b90601f198316958460005282600020926000905b8882106112f3575050836001959697106112da575b505050811b01905561128f565b015160001960f88460031b161c191690558480806112cd565b806001859682949686015181550195019301906112b8565b60048401918582116106f857611325826105b485546118a1565b8790601f83116001146113695761135492916000918361135e5750508160011b916000199060031b1c19161790565b90555b858061120d565b0151905089806105dd565b90601f1983169184600052896000209260005b8b8282106113ba5750509084600195949392106113a1575b505050811b019055611357565b015160001960f88460031b161c19169055888080611394565b600185968293968601518155019501930161137c565b60028401906001600160401b031982541617905586611203565b6114019150873d89116107ec576107de8183611808565b876111de565b61141e9150823d8411610825576108178183611808565b89611188565b3461014557604036600319011261014557600435611440611746565b61144933611b5d565b8160005260046020526040600020541561079a576001600160a01b03169081156114b7578060005260046020526004604060002001826001600160601b0360a01b8254161790557fd05b2e32ad9ac3239164be79bbc8a379cb9864bc907d8060ecd246aedf89fe54600080a3005b60405163078ec41b60e41b8152600490fd5b3461014557600036600319011261014557602060405160008152f35b34610145576040366003190112610145576114fe611746565b600435600052600260205260406000209060018060a01b0316600052602052602060ff604060002054166040519015158152f35b346101455760003660031901126101455761156c7f0000000000000000000000000000000000000000000000000000000000000000611c11565b6115957f0000000000000000000000000000000000000000000000000000000000000000611d12565b6040516020808201928284106001600160401b038511176106f8579160206115ef85946115e1979660405260008452604051978897600f60f81b895260e0858a015260e089019061175c565b90878203604089015261175c565b91466060870152306080870152600060a087015285830360c0870152519182815201929160005b82811061162557505050500390f35b835185528695509381019392810192600101611616565b3461014557604036600319011261014557611655611746565b336001600160a01b0382160361167157610dc990600435611ae6565b60405163334bd91960e11b8152600490fd5b3461014557604036600319011261014557610dc96004356116a2611746565b908060005260026020526116bf6001604060002001543390611be0565b611a66565b346101455760203660031901126101455760043560005260026020526020600160406000200154604051908152f35b34610145576020366003190112610145576004359063ffffffff60e01b821680920361014557602091637965db0b60e01b8114908115611735575b5015158152f35b6301ffc9a760e01b1490508361172e565b602435906001600160a01b038216820361014557565b919082519283825260005b848110611788575050826000602080949584010152601f8019910116010190565b602081830181015184830182015201611767565b60a081019081106001600160401b038211176106f857604052565b606081019081106001600160401b038211176106f857604052565b60c081019081106001600160401b038211176106f857604052565b604081019081106001600160401b038211176106f857604052565b90601f801991011681019081106001600160401b038211176106f857604052565b35906001600160401b038216820361014557565b9291926001600160401b0382116106f85760405191611866601f8201601f191660200184611808565b829481845281830111610145578281602093846000960137010152565b9080601f830112156101455781602061189e9335910161183d565b90565b90600182811c921680156118d1575b60208310146118bb57565b634e487b7160e01b600052602260045260246000fd5b91607f16916118b0565b8054600093926118ea826118a1565b918282526020936001916001811690816000146119525750600114611911575b5050505050565b90939495506000929192528360002092846000945b83861061193e5750505050010190388080808061190a565b805485870183015294019385908201611926565b60ff19168685015250505090151560051b01019150388080808061190a565b90816020910312610145575163ffffffff811681036101455790565b90816020910312610145575180151581036101455790565b90601f81116119b357505050565b6000916000526020600020906020601f850160051c830194106119f1575b601f0160051c01915b8281106119e657505050565b8181556001016119da565b90925082906119d1565b903590601e198136030182121561014557018035906001600160401b0382116101455760200191813603831361014557565b356001600160a01b03811681036101455790565b6000198114611a505760010190565b634e487b7160e01b600052601160045260246000fd5b906000918083526002602052604083209160018060a01b03169182845260205260ff60408420541615600014611ae15780835260026020526040832082845260205260408320600160ff198254161790557f2f8788117e7eff1d82e926ec794901d17c78024a50270940304540a733656f0d339380a4600190565b505090565b906000918083526002602052604083209160018060a01b03169182845260205260ff604084205416600014611ae1578083526002602052604083208284526020526040832060ff1981541690557ff6391f5c32d9c69d2a47ea670b442974b53935d1edc7fd64eb21e047a839171b339380a4600190565b6001600160a01b031660008181527f6bc781d8c7f9885ebbb3cefbc18932c491038e2ae5c5b56447891e0bd98ea16360205260409020547f97667070c54ef182b0f5858b034beac1b6f3089aa2d3188bb1e8929f4fa9b9299060ff1615611bc2575050565b604492506040519163e2517d3f60e01b835260048301526024820152fd5b80600052600260205260406000209160018060a01b0316918260005260205260ff6040600020541615611bc2575050565b60ff8114611c4f5760ff811690601f8211611c3d5760405191611c33836117ed565b8252602082015290565b604051632cd44ac360e21b8152600490fd5b5060405160008160005491611c63836118a1565b80835292602090600190818116908115611cee5750600114611c8e575b505061189e92500382611808565b915092600080527f290decd9548b62a8d60345a988386fc84ba6bc95484008f6362f93160ef3e563936000925b828410611cd6575061189e9450505081016020013880611c80565b85548785018301529485019486945092810192611cbb565b9150506020925061189e94915060ff191682840152151560051b8201013880611c80565b60ff8114611d345760ff811690601f8211611c3d5760405191611c33836117ed565b50604051600081600191600154611d4a816118a1565b8084529360209160018116908115611cee5750600114611d7257505061189e92500382611808565b91509260016000527fb10e2d527612073b26eecdfd717e6a320cf44b4afac2b0732d9fcbe2b7fa0cf6936000925b828410611dbb575061189e9450505081016020013880611c80565b85548785018301529485019486945092810192611da0565b307f00000000000000000000000000000000000000000000000000000000000000006001600160a01b03161480611ec4575b15611e2e577f000000000000000000000000000000000000000000000000000000000000000090565b60405160208101907f8b73c3c69bb8fe3d512ecc4cf759cc79239f7b179b0ffacaa9a75d522b39400f82527f000000000000000000000000000000000000000000000000000000000000000060408201527f000000000000000000000000000000000000000000000000000000000000000060608201524660808201523060a082015260a08152611ebe816117d2565b51902090565b507f00000000000000000000000000000000000000000000000000000000000000004614611e05565b8151919060418303611f1e57611f1792506020820151906060604084015193015160001a90611fae565b9192909190565b505060009160029190565b6004811015611f985780611f3b575050565b60018103611f555760405163f645eedf60e01b8152600490fd5b60028103611f765760405163fce698f760e01b815260048101839052602490fd5b600314611f805750565b602490604051906335e2f38360e21b82526004820152fd5b634e487b7160e01b600052602160045260246000fd5b91907f7fffffffffffffffffffffffffffffff5d576e7357a4501ddfe92f46681b20a0841161203257926020929160ff608095604051948552168484015260408301526060820152600092839182805260015afa156120265780516001600160a01b0381161561201d57918190565b50809160019190565b604051903d90823e3d90fd5b5050506000916003919056fea264697066735822122056ec25fb7533cdbfec467225507a0e3ba9e2cd952eeb9cc38b0cc29c0f4e8c5664736f6c63430008180033",
  "devdoc": {
    "errors": {
      "AccessControlBadConfirmation()": [
        {
          "details": "The caller of a function is not the expected one. NOTE: Don't confuse with {AccessControlUnauthorizedAccount}."
        }
      ],
      "AccessControlUnauthorizedAccount(address,bytes32)": [
        {
          "details": "The `account` is missing a role."
        }
      ],
      "ECDSAInvalidSignature()": [
        {
          "details": "The signature derives the `address(0)`."
        }
      ],
      "ECDSAInvalidSignatureLength(uint256)": [
        {
          "details": "The signature has an invalid length."
        }
      ],
      "ECDSAInvalidSignatureS(bytes32)": [
        {
          "details": "The signature has an S value that is in the upper half order."
        }
      ]
    },
    "events": {
      "EIP712DomainChanged()": {
        "details": "MAY be emitted to signal that the domain could have changed."
      },
      "RoleAdminChanged(bytes32,bytes32,bytes32)": {
        "details": "Emitted when `newAdminRole` is set as ``role``'s admin role, replacing `previousAdminRole` `DEFAULT_ADMIN_ROLE` is the starting admin for all roles, despite {RoleAdminChanged} not being emitted signaling this."
      },
      "RoleGranted(bytes32,address,address)": {
        "details": "Emitted when `account` is granted `role`. `sender` is the account that originated the contract call, an admin role bearer except when using {AccessControl-_setupRole}."
      },
      "RoleRevoked(bytes32,address,address)": {
        "details": "Emitted when `account` is revoked `role`. `sender` is the account that originated the contract call:   - if using `revokeRole`, it is the admin role bearer   - if using `renounceRole`, it is the role bearer (i.e. `account`)"
      }
    },
    "kind": "dev",
    "methods": {
      "eip712Domain()": {
        "details": "See {IERC-5267}."
      },
      "getRoleAdmin(bytes32)": {
        "details": "Returns the admin role that controls `role`. See {grantRole} and {revokeRole}. To change a role's admin, use {_setRoleAdmin}."
      },
      "grantRole(bytes32,address)": {
        "details": "Grants `role` to `account`. If `account` had not been already granted `role`, emits a {RoleGranted} event. Requirements: - the caller must have ``role``'s admin role. May emit a {RoleGranted} event."
      },
      "hasRole(bytes32,address)": {
        "details": "Returns `true` if `account` has been granted `role`."
      },
      "renounceRole(bytes32,address)": {
        "details": "Revokes `role` from the calling account. Roles are often managed via {grantRole} and {revokeRole}: this function's purpose is to provide a mechanism for accounts to lose their privileges if they are compromised (such as when a trusted device is misplaced). If the calling account had been revoked `role`, emits a {RoleRevoked} event. Requirements: - the caller must be `callerConfirmation`. May emit a {RoleRevoked} event."
      },
      "revokeRole(bytes32,address)": {
        "details": "Revokes `role` from `account`. If `account` had been granted `role`, emits a {RoleRevoked} event. Requirements: - the caller must have ``role``'s admin role. May emit a {RoleRevoked} event."
      },
      "supportsInterface(bytes4)": {
        "details": "See {IERC165-supportsInterface}."
      }
    },
    "version": 1
  },
  "userdoc": {
    "kind": "user",
    "methods": {},
    "version": 1
  },
  "storageLayout": {
    "storage": [
      {
        "astId": 7097,
        "contract": "contracts/SingleIdentifierRegistry.sol:SingleIdentifierRegistry",
        "label": "_nameFallback",
        "offset": 0,
        "slot": "0",
        "type": "t_string_storage"
      },
      {
        "astId": 7099,
        "contract": "contracts/SingleIdentifierRegistry.sol:SingleIdentifierRegistry",
        "label": "_versionFallback",
        "offset": 0,
        "slot": "1",
        "type": "t_string_storage"
      },
      {
        "astId": 4918,
        "contract": "contracts/SingleIdentifierRegistry.sol:SingleIdentifierRegistry",
        "label": "_roles",
        "offset": 0,
        "slot": "2",
        "type": "t_mapping(t_bytes32,t_struct(RoleData)4913_storage)"
      },
      {
        "astId": 11437,
        "contract": "contracts/SingleIdentifierRegistry.sol:SingleIdentifierRegistry",
        "label": "router",
        "offset": 0,
        "slot": "3",
        "type": "t_contract(SingleRouter)12434"
      },
      {
        "astId": 11442,
        "contract": "contracts/SingleIdentifierRegistry.sol:SingleIdentifierRegistry",
        "label": "schemas",
        "offset": 0,
        "slot": "4",
        "type": "t_mapping(t_bytes32,t_struct(SIDSchema)13948_storage)"
      },
      {
        "astId": 11447,
        "contract": "contracts/SingleIdentifierRegistry.sol:SingleIdentifierRegistry",
        "label": "singleIdentifierData",
        "offset": 0,
        "slot": "5",
        "type": "t_mapping(t_bytes32,t_struct(SID)13937_storage)"
      },
      {
        "astId": 11449,
        "contract": "contracts/SingleIdentifierRegistry.sol:SingleIdentifierRegistry",
        "label": "sidCounter",
        "offset": 0,
        "slot": "6",
        "type": "t_uint256"
      },
      {
        "astId": 11451,
        "contract": "contracts/SingleIdentifierRegistry.sol:SingleIdentifierRegistry",
        "label": "emitterCounter",
        "offset": 0,
        "slot": "7",
        "type": "t_uint256"
      }
    ],
    "types": {
      "t_address": {
        "encoding": "inplace",
        "label": "address",
        "numberOfBytes": "20"
      },
      "t_bool": {
        "encoding": "inplace",
        "label": "bool",
        "numberOfBytes": "1"
      },
      "t_bytes32": {
        "encoding": "inplace",
        "label": "bytes32",
        "numberOfBytes": "32"
      },
      "t_bytes_storage": {
        "encoding": "bytes",
        "label": "bytes",
        "numberOfBytes": "32"
      },
      "t_contract(SingleRouter)12434": {
        "encoding": "inplace",
        "label": "contract SingleRouter",
        "numberOfBytes": "20"
      },
      "t_mapping(t_address,t_bool)": {
        "encoding": "mapping",
        "key": "t_address",
        "label": "mapping(address => bool)",
        "numberOfBytes": "32",
        "value": "t_bool"
      },
      "t_mapping(t_bytes32,t_struct(RoleData)4913_storage)": {
        "encoding": "mapping",
        "key": "t_bytes32",
        "label": "mapping(bytes32 => struct AccessControl.RoleData)",
        "numberOfBytes": "32",
        "value": "t_struct(RoleData)4913_storage"
      },
      "t_mapping(t_bytes32,t_struct(SID)13937_storage)": {
        "encoding": "mapping",
        "key": "t_bytes32",
        "label": "mapping(bytes32 => struct SID)",
        "numberOfBytes": "32",
        "value": "t_struct(SID)13937_storage"
      },
      "t_mapping(t_bytes32,t_struct(SIDSchema)13948_storage)": {
        "encoding": "mapping",
        "key": "t_bytes32",
        "label": "mapping(bytes32 => struct SIDSchema)",
        "numberOfBytes": "32",
        "value": "t_struct(SIDSchema)13948_storage"
      },
      "t_string_storage": {
        "encoding": "bytes",
        "label": "string",
        "numberOfBytes": "32"
      },
      "t_struct(RoleData)4913_storage": {
        "encoding": "inplace",
        "label": "struct AccessControl.RoleData",
        "members": [
          {
            "astId": 4910,
            "contract": "contracts/SingleIdentifierRegistry.sol:SingleIdentifierRegistry",
            "label": "hasRole",
            "offset": 0,
            "slot": "0",
            "type": "t_mapping(t_address,t_bool)"
          },
          {
            "astId": 4912,
            "contract": "contracts/SingleIdentifierRegistry.sol:SingleIdentifierRegistry",
            "label": "adminRole",
            "offset": 0,
            "slot": "1",
            "type": "t_bytes32"
          }
        ],
        "numberOfBytes": "64"
      },
      "t_struct(SID)13937_storage": {
        "encoding": "inplace",
        "label": "struct SID",
        "members": [
          {
            "astId": 13922,
            "contract": "contracts/SingleIdentifierRegistry.sol:SingleIdentifierRegistry",
            "label": "SIDId",
            "offset": 0,
            "slot": "0",
            "type": "t_bytes32"
          },
          {
            "astId": 13924,
            "contract": "contracts/SingleIdentifierRegistry.sol:SingleIdentifierRegistry",
            "label": "schemaId",
            "offset": 0,
            "slot": "1",
            "type": "t_bytes32"
          },
          {
            "astId": 13926,
            "contract": "contracts/SingleIdentifierRegistry.sol:SingleIdentifierRegistry",
            "label": "expirationDate",
            "offset": 0,
            "slot": "2",
            "type": "t_uint64"
          },
          {
            "astId": 13928,
            "contract": "contracts/SingleIdentifierRegistry.sol:SingleIdentifierRegistry",
            "label": "revocationDate",
            "offset": 8,
            "slot": "2",
            "type": "t_uint64"
          },
          {
            "astId": 13930,
            "contract": "contracts/SingleIdentifierRegistry.sol:SingleIdentifierRegistry",
            "label": "revoked",
            "offset": 16,
            "slot": "2",
            "type": "t_bool"
          },
          {
            "astId": 13932,
            "contract": "contracts/SingleIdentifierRegistry.sol:SingleIdentifierRegistry",
            "label": "user",
            "offset": 0,
            "slot": "3",
            "type": "t_address"
          },
          {
            "astId": 13934,
            "contract": "contracts/SingleIdentifierRegistry.sol:SingleIdentifierRegistry",
            "label": "data",
            "offset": 0,
            "slot": "4",
            "type": "t_bytes_storage"
          },
          {
            "astId": 13936,
            "contract": "contracts/SingleIdentifierRegistry.sol:SingleIdentifierRegistry",
            "label": "metadata",
            "offset": 0,
            "slot": "5",
            "type": "t_string_storage"
          }
        ],
        "numberOfBytes": "192"
      },
      "t_struct(SIDSchema)13948_storage": {
        "encoding": "inplace",
        "label": "struct SIDSchema",
        "members": [
          {
            "astId": 13939,
            "contract": "contracts/SingleIdentifierRegistry.sol:SingleIdentifierRegistry",
            "label": "schemaId",
            "offset": 0,
            "slot": "0",
            "type": "t_bytes32"
          },
          {
            "astId": 13941,
            "contract": "contracts/SingleIdentifierRegistry.sol:SingleIdentifierRegistry",
            "label": "name",
            "offset": 0,
            "slot": "1",
            "type": "t_string_storage"
          },
          {
            "astId": 13943,
            "contract": "contracts/SingleIdentifierRegistry.sol:SingleIdentifierRegistry",
            "label": "description",
            "offset": 0,
            "slot": "2",
            "type": "t_string_storage"
          },
          {
            "astId": 13945,
            "contract": "contracts/SingleIdentifierRegistry.sol:SingleIdentifierRegistry",
            "label": "schema",
            "offset": 0,
            "slot": "3",
            "type": "t_string_storage"
          },
          {
            "astId": 13947,
            "contract": "contracts/SingleIdentifierRegistry.sol:SingleIdentifierRegistry",
            "label": "emitter",
            "offset": 0,
            "slot": "4",
            "type": "t_address"
          }
        ],
        "numberOfBytes": "160"
      },
      "t_uint256": {
        "encoding": "inplace",
        "label": "uint256",
        "numberOfBytes": "32"
      },
      "t_uint64": {
        "encoding": "inplace",
        "label": "uint64",
        "numberOfBytes": "8"
      }
    }
  }
}